:020000040000fa
:080000000002040000000000f2
:020000040000fa
:04000800ea03000007
:020000040000fa
:04000c00ea03000003
:020000040000fa
:04001000ea030000ff
:020000040000fa
:04001400ea030000fb
:020000040000fa
:04001800ea030000f7
:020000040000fa
:04001c00ea030000f3
:020000040000fa
:04002000ea030000ef
:020000040000fa
:04002400ea030000eb
:020000040000fa
:04002800ea030000e7
:020000040000fa
:04002c00ea030000e3
:020000040000fa
:04003000ea030000df
:020000040000fa
:04003400ea030000db
:020000040000fa
:04003800ea030000d7
:020000040000fa
:04003c00ea030000d3
:020000040000fa
:04004000ea030000cf
:020000040000fa
:04004400ea030000cb
:020000040000fa
:04004800620300004f
:020000040000fa
:04004c00ea030000c3
:020000040000fa
:04005000ea030000bf
:020000040000fa
:04005400ea030000bb
:020000040000fa
:04005800c6030000db
:020000040000fa
:04005c00d4020000ca
:020000040000fa
:04006000ea030000af
:020000040000fa
:04006400ea030000ab
:020000040000fa
:04006800ea030000a7
:020000040000fa
:04006c00ea030000a3
:020000040000fa
:04007000ea0300009f
:020000040000fa
:04007400ea0300009b
:020000040000fa
:04007800ea03000097
:020000040000fa
:04007c00ea03000093
:020000040000fa
:04008000ea0300008f
:020000040000fa
:04008400ea0300008b
:020000040000fa
:04008800ea03000087
:020000040000fa
:04008c00ea03000083
:020000040000fa
:04009000ea0300007f
:020000040000fa
:04009400ea0300007b
:020000040000fa
:040098006c030000f5
:020000040000fa
:04009c00ea03000073
:020000040000fa
:0400a000ea0300006f
:020000040000fa
:0400a400ea0300006b
:020000040000fa
:0400a800ea03000067
:020000040000fa
:0400ac00ea03000063
:020000040000fa
:0400b000ea0300005f
:020000040000fa
:0400b400ea0300005b
:020000040000fa
:0400b800ea03000057
:020000040000fa
:0400bc00ea03000053
:020000040000fa
:0400c000ea0300004f
:020000040000fa
:0400c400ea0300004b
:020000040000fa
:0400c800ea03000047
:020000040000fa
:0400cc00ea03000043
:020000040000fa
:0400d000ea0300003f
:020000040000fa
:0400d400ea0300003b
:020000040000fa
:0400d800ea03000037
:020000040000fa
:0400dc00ea03000033
:020000040000fa
:0400e000ea0300002f
:020000040000fa
:0400e400ea0300002b
:020000040000fa
:0400e800ea03000027
:020000040000fa
:0400ec00ea03000023
:020000040000fa
:0400f000ea0300001f
:020000040000fa
:0400f400ea0300001b
:020000040000fa
:0400f800ea03000017
:020000040000fa
:0400fc00ea03000013
:020000040000fa
:04010000ea0300000e
:020000040000fa
:04010400ea0300000a
:020000040000fa
:04010800ea03000006
:020000040000fa
:04010c00ea03000002
:020000040000fa
:04011000ea030000fe
:020000040000fa
:04011400ea030000fa
:020000040000fa
:04011800ea030000f6
:020000040000fa
:04011c00ea030000f2
:020000040000fa
:04012000ea030000ee
:020000040000fa
:04012400ea030000ea
:020000040000fa
:04012800ea030000e6
:020000040000fa
:04012c00ea030000e2
:020000040000fa
:04013000ea030000de
:020000040000fa
:04013400ea030000da
:020000040000fa
:04013800ea030000d6
:020000040000fa
:04013c00ea030000d2
:020000040000fa
:04014000ea030000ce
:020000040000fa
:04014400ea030000ca
:020000040000fa
:04014800ea030000c6
:020000040000fa
:04014c00ea030000c2
:020000040000fa
:04015000ea030000be
:020000040000fa
:04015400ea030000ba
:020000040000fa
:04015800ea030000b6
:020000040000fa
:04015c00ea030000b2
:020000040000fa
:04016000ea030000ae
:020000040000fa
:04016400ea030000aa
:020000040000fa
:04020800ea03000005
:020000040000fa
:04020c00ea03000001
:020000040000fa
:04021000ea030000fd
:020000040000fa
:04021400ea030000f9
:020000040000fa
:04021800ea030000f5
:020000040000fa
:04021c00ea030000f1
:020000040000fa
:04022000ea030000ed
:020000040000fa
:04022400ea030000e9
:020000040000fa
:04022800ea030000e5
:020000040000fa
:04022c00ea030000e1
:020000040000fa
:04023000ea030000dd
:020000040000fa
:04023400ea030000d9
:020000040000fa
:04023800ea030000d5
:020000040000fa
:04023c00ea030000d1
:020000040000fa
:04024000ea030000cd
:020000040000fa
:04024400ea030000c9
:020000040000fa
:04024800620300004d
:020000040000fa
:04024c00ea030000c1
:020000040000fa
:04025000ea030000bd
:020000040000fa
:04025400ea030000b9
:020000040000fa
:04025800c6030000d9
:020000040000fa
:04025c00d4020000c8
:020000040000fa
:04026000ea030000ad
:020000040000fa
:04026400ea030000a9
:020000040000fa
:04026800ea030000a5
:020000040000fa
:04026c00ea030000a1
:020000040000fa
:04027000ea0300009d
:020000040000fa
:04027400ea03000099
:020000040000fa
:04027800ea03000095
:020000040000fa
:04027c00ea03000091
:020000040000fa
:04028000ea0300008d
:020000040000fa
:04028400ea03000089
:020000040000fa
:04028800ea03000085
:020000040000fa
:04028c00ea03000081
:020000040000fa
:04029000ea0300007d
:020000040000fa
:04029400ea03000079
:020000040000fa
:040298006c030000f3
:020000040000fa
:04029c00ea03000071
:020000040000fa
:0402a000ea0300006d
:020000040000fa
:0402a400ea03000069
:020000040000fa
:0402a800ea03000065
:020000040000fa
:0402ac00ea03000061
:020000040000fa
:0402b000ea0300005d
:020000040000fa
:0402b400ea03000059
:020000040000fa
:0402b800ea03000055
:020000040000fa
:0402bc00ea03000051
:020000040000fa
:0402c000ea0300004d
:020000040000fa
:0402c400ea03000049
:020000040000fa
:0402c800ea03000045
:020000040000fa
:0402cc00ea03000041
:020000040000fa
:0402d000ea0300003d
:020000040000fa
:0402d400ea03000039
:020000040000fa
:0402d800ea03000035
:020000040000fa
:0402dc00ea03000031
:020000040000fa
:0402e000ea0300002d
:020000040000fa
:0402e400ea03000029
:020000040000fa
:0402e800ea03000025
:020000040000fa
:0402ec00ea03000021
:020000040000fa
:0402f000ea0300001d
:020000040000fa
:0402f400ea03000019
:020000040000fa
:0402f800ea03000015
:020000040000fa
:0402fc00ea03000011
:020000040000fa
:04030000ea0300000c
:020000040000fa
:04030400ea03000008
:020000040000fa
:04030800ea03000004
:020000040000fa
:04030c00ea03000000
:020000040000fa
:04031000ea030000fc
:020000040000fa
:04031400ea030000f8
:020000040000fa
:04031800ea030000f4
:020000040000fa
:04031c00ea030000f0
:020000040000fa
:04032000ea030000ec
:020000040000fa
:04032400ea030000e8
:020000040000fa
:04032800ea030000e4
:020000040000fa
:04032c00ea030000e0
:020000040000fa
:04033000ea030000dc
:020000040000fa
:04033400ea030000d8
:020000040000fa
:04033800ea030000d4
:020000040000fa
:04033c00ea030000d0
:020000040000fa
:04034000ea030000cc
:020000040000fa
:04034400ea030000c8
:020000040000fa
:04034800ea030000c4
:020000040000fa
:04034c00ea030000c0
:020000040000fa
:04035000ea030000bc
:020000040000fa
:04035400ea030000b8
:020000040000fa
:04035800ea030000b4
:020000040000fa
:04035c00ea030000b0
:020000040000fa
:04036000ea030000ac
:020000040000fa
:04036400ea030000a8
:020000040000fa
:10040000cf9121000eff23000e01880000000000a4
:10041000000020000000e000020032000001200087
:100420002002880014000700ba0107000000e00065
:1004300003003a004077220001002000020037004c
:100440000000200001002000810f70000100320038
:1004500014000700000020000000e000020032004d
:100460000000020000000000b625020000000000ad
:100470000040da000000fe004440a900e001200036
:100480000000e0000300320000002000a00188000e
:100490004440a800000006008a1f78008b1f7800e7
:1004a0000000060091018800800478000000eb0045
:1004b0001a003700e284440032a0b4009905ba0063
:1004c000e284440032a0b4009906ba00e2844400f9
:1004d00032a0b4000006eb00476fde00fd07b2005b
:1004e000636ce10003003a00ebff07000000eb0043
:1004f0000a003700606ce10004003a00005deb0088
:100500008b05e900fdff3e00040037006168e10053
:10051000010032000086eb000b00070019c7ba008b
:100520001905ba000e04e00003003a000a00e000da
:10053000e0ff3a0000000600fe07b2009e018800be
:100540008a047800f5ff3700395dba008b05e900b1
:100550000c003200295dba008b05e900080032006a
:100560000c00e00003003a00e284440032a0b40032
:10057000f5ff370019ddba008b05e900faff3a00f4
:100580008904e800e184440032a0b40000000600c1
:10059000000000000000000000000000000000005b
:1005a0000000000000000000809fbe00829fbe008f
:1005b0000000fa0004c8bf000000fb000000e000db
:1005c00003003200e10f50001a0032003200370001
:1005d00001408000f00f2000808f50000b003a0097
:1005e0000040800001188000000140000050210000
:1005f0000000410001087800404080000000e80051
:10060000404088000028ef002300370000408000b1
:100610000118800001017800800140000150210094
:1006200081804100820878000000e80000408800d6
:100630001900370011408000f00f2000808f50001b
:100640000b003a00104080000118800000014000bb
:100650000070210000004100010878004040800047
:100660000000e800404088000228ef000a00370040
:1006700010408000011880000101780080014000d6
:100680000170210081804100820878000000e800ac
:10069000104088000000000004c8bf000040e800cf
:1006a00004e8b70004c8bf006140600004e8b70078
:1006b00085a0a9000080fa004f01be004f00be00d7
:1006c000004006000000fa002023a8008500a900d1
:1006d0000080fa0000400600809fbe000000fa0083
:1006e0005140800000102000808f500005003a002b
:1006f0009780a90095a0a8009500a8000a28ef00ff
:100700001e00370001c02000504080004200dd0084
:1007100000804000304088003040800090407800e9
:100720008180fb00211188000000e8003040880033
:1007300030408000904078008180fb0021118800cb
:100740000000e80030408800304080009040780091
:100750008180fb00211188000000e8003040880003
:1007600030408000104078000080fb00201188009d
:10077000504080000000e800504088008780a900b9
:100780000080fa004f00be0000400600809fbe00bf
:100790000000fa008580a900601680004500de0098
:1007a0006140600000c0ea00614060000080fb0022
:1007b000610060004500dd00611680000150a1006d
:1007c00001007000601688000080fa004f00be0033
:1007d000004006000040da000000fe000a00fa00b7
:1007e0000000e0003b003a0043448000a341900039
:1007f0000304e00037003a00734c8000e18f5100a1
:1008000003003200e28f51000e003a000900370069
:10081000002220000000e00001003a000040da0061
:100820002002e2000b0035002822ef0021e2a800a0
:1008300008003700002320000000e00001003a001b
:100840000040da003002e200020035003822ef00fa
:1008500031e2a800020078001a003700040a2000e4
:10086000e18f51000b003a00030037000402e90059
:1008700002003a0003003700040a20002202ab0005
:10088000faff320014118000050037000402e9006d
:10089000020032003202ab00fcff320094118000f3
:1008a0006102620009003200e18f510002003a004b
:1008b0003411800001003700b411800084587800a2
:1008c0000000e9000000e000e4ff3a0000005100f1
:1008d0000800370023002000b3bf9f00c0bf9f0067
:1008e000d1bf9f00e2bf9f006a8057000e0e070035
:1008f0006fb897000080fa00000006000a00fa00b6
:100900008001eb00b3bf9f00c0bf9f00d1bf9f001d
:10091000e2bf9f000080eb00f0bf9f006a8057009d
:10092000030e07007fb89700e10f400002003a0075
:1009300051022000314c88000080fa0000000600bf
:100940000a00fa0011002000b1bf9f00c0bf9f0045
:100950006a805700f80d07004fb897000080fa0032
:10096000000006000a00fa00e20f500034003e00ca
:10097000704c8000e10f500003003200e20f500085
:1009800011003a000c003700032220000300e000b1
:1009900001003a000040da002002e20002003500c7
:1009a0002822ef0021e2a8002342ab000d003a000c
:1009b0002342a8000b003700032320000300e000bf
:1009c00001003a000040da003002e2000200350087
:1009d0003822ef0031e2a8003342ab0001003a00b8
:1009e0003342a800820178000b0037003102fb007f
:1009f000e10f500004003a002322ab00feff3a0052
:100a000024118800030037003322ab00feff3a00b8
:100a1000a41188008301e9000300e000f3ff3a001d
:100a2000e10f500003003a002302ab00feff32004a
:100a30000b0037003302ab00feff32000800370026
:100a400033002000b3bf9f00c0bf9f00d1bf9f00f5
:100a5000e2bf9f006a805700b90d07006fb9970089
:100a6000020078000080fa00000006000a00fa0088
:100a700051002000b1bf9f00c0bf9f006a80570097
:100a8000b10d07005fb897000080fa000000060073
:100a9000889fbe0080047800804c80000000e00049
:100aa00004003a000e0007000084eb000000e000a4
:100ab00008003500884c80000900e0000500320085
:100ac00009004400060007000000e00001003d00ae
:100ad0000084eb00080078004f04be000000060010
:100ae000800078000100e00003003a0000002000d0
:100af000804c8800000005000080eb000200200010
:100b0000828f500002003e00814c88000000eb0004
:100b100000000600000005004f89de008201780019
:100b200034003700889fbe008a9fbe008c1f78006b
:100b3000950007009c00330003866c006450e100c0
:100b4000240032006420e100270032006150e100ff
:100b5000220032006120e100210032008b8542003a
:100b6000eb07b1000134b800003ab80008044200b5
:100b700089844a00013ab8000030b80088804000fb
:100b800009014a0004003300000040008180480051
:100b9000020149008b05e900c909dd0083017000ed
:100ba0000100320013002000c814de004814dd00ec
:100bb0004709de001200b200c808de000884700099
:100bc0004b00070001f0a1000cf0a70001f0a0000d
:100bd0007e0037006120e100800032000801be0085
:100be0000200be00f7ff37006150e100fcff3a0051
:100bf0007a003700881f7800030478000300e000c3
:100c000007003d0060001000e0801800600119003e
:100c1000e081190002003b0001f02d0003003700c5
:100c20000400070008f0a70001f0a0004f047800be
:100c300000000600889fbe008a9fbe0000827000f0
:100c40000402710004827100260032000004be001c
:100c50000200be006011b8006b0920009502200060
:100c60000182cf000a0039000541b1000082cf00a7
:100c7000070039000541b1000982cf0004003900a6
:100c80000541b1000882cf00010039000541b100e3
:100c900005425200120032000a003b0082817100be
:100ca000610164008100d1000080d3008984d300f9
:100cb0000884d3008b05e8000442e800f7ff3a00ff
:100cc000070037000804440089844c0000004800f5
:100cd000818048008b05e9000442e900f9ff3a00f1
:100ce000030007004f05be004f04be0000000600d1
:100cf00081002000618055000b003d000b002000aa
:100d000061fe2f000100e1001d00340082817100ae
:100d1000610164008904d1000884d3000000e80068
:100d2000faff3a00710020006100640003007000c7
:100d3000020060000900320061044400e0844c00bd
:100d40000988a500050032008b05e8006808e1006d
:100d500002003a008904d1000884d300f20f200079
:100d60000258e10005003d00c75ddd00f907b20053
:100d70008980750008007800000006000bf8270045
:100d80008b007800000005000004be00160007007c
:100d90000003be000405be000200be0012000700f2
:100da000844f7500000006000200be006450e100a0
:100db000050036006420e100020036000968a30047
:100dc00001003a000800be000160a0004f06780054
:100dd0004f05be004f04be0000000600f0ff2f00cc
:100de000f1ff2700f9ff3700c70ade00f107b20064
:100df000f50fb20008003200e1cf420002003200dd
:100e00000170a00024000500810f70000100320075
:100e10000408050044000500810f700002003a003c
:100e2000140005008502e9000000400081c0480070
:100e3000fcff3b000170a00024000500807b200027
:100e40009d003700881f7800a89820001804e00053
:100e500003003a00f9ff070020c0b300004c7800ff
:100e60004f04780000000600889fbe000004780050
:100e7000080078004c00070080047800000420007f
:100e8000180060000200320028009000690207008c
:100e90000000eb0020049800384090000004e000bf
:100ea000050035000000fb00a5fe07000000e00083
:100eb000010032008084eb00181090000000e00078
:100ec00008003200e9fe07000000e00001003200e7
:100ed0008084eb0018109000560207000000eb0021
:100ee0001014980000082000180060000f00320065
:100ef000618820000000eb00d10f140005003a00cb
:100f00000000400081882000008040000008eb00c5
:100f1000030037000000e800e80f5000f6ff3a0039
:100f200008007800430207000e003700000c78002c
:100f300000c0eb0030449800600220000800400030
:100f4000200498004004980050049800400c980039
:100f500060049800500c98007004980076004400db
:100f6000000c9800090078004f04be000000060045
:100f7000889fbe0088892000f00454004800780053
:100f80000000e00001003200b7ff0700890f5400a5
:100f9000faff3a004f04be000000060001102000d6
:100fa0001080600000000600889fbe008a1f780045
:100fb000000478000800e0000d003a006888200076
:100fc000700544008004eb00580078000000e00049
:100fd00004003200f4ff07000000e00001003d00c3
:100fe0008084eb008a0f5400f7ff3a002500370099
:100ff00000002200180060008004eb002100320095
:10100000a80490000f0037000901510038409000fb
:101010000000fb008900780052fe07000000e0009d
:1010200007003c00280090004004980060049800ed
:10103000500c98001890a0008084eb00110037003d
:101040008084440048019000828f5400eeff3900f4
:1010500028009000400498009800780002c020000a
:101060000281600001003a003800900001e8a3000e
:10107000020032006004980001003700500c980014
:101080008004eb00090078004f0578004f04be0093
:1010900000000600889fbe000004be007402070026
:1010a00080c1eb00000178000800be000e000700c0
:1010b0004f04be0000000600010020000100e00017
:1010c00008003200010080000100e000050032004d
:1010d0008100e9000100880081804000020080005a
:1010e00000b1780000000600881f78000204780034
:1010f0000800e0004a0032000508200098826200e3
:101100002841900013000900001ceb008802b10088
:1011100000c2eb0034449800224498006202200090
:1011200008014100220498004204980052049800eb
:10113000420c980062049800520c980072049800c7
:1011400076014400020c9800114278001200200041
:1011500026c7b300864f520009003200a2012000ca
:1011600065434300864f5200050032000001eb004a
:1011700076435300864f520001003a00620120007e
:1011800002817200020c7800630161000c003a00d9
:101190001d003700180178000258a3000f003a0024
:1011a0000250a000020c78000500370018017800fa
:1011b00063026100e30f520008003200630c71000b
:1011c0005141780024c6b300844f5100f1ff320032
:1011d000b4c2b300844f5100f4ff32000000e000bd
:1011e0000700320001017800980078000f00070026
:1011f000304498000004e00008003d000200370081
:101200000304e00004003d000800780016ff07001a
:101210000004eb00020037003344980009ff070088
:10122000080078004f0478000000060001017800f3
:10123000e30061008100d000a3972000e3807800e4
:101240000220a7000130a0000230a7000190a000fa
:101250000240a7000180a0000258a3000200320053
:1012600001f0a0000100370001e0a00002182000fa
:10127000a2fd3700810178000200e0000100320089
:10128000db0037008000780003007800060137009b
:101290000000fa00e88157004fb9970080007800fd
:1012a000a0932000020007000080fa000000060062
:1012b0001200fa00889fbe008a9fbe008c1f780033
:1012c00002047800a0b79f00b1b79f0083007800a8
:1012d00078805700130107000000eb00e0b79f0083
:1012e000d8b79f00000478005fb697009c85fb008c
:1012f0008b04fb008b05ea00cf5dde00090078005f
:10130000b30007000000e0001b0032006fb0970040
:101310000000e800e0b79f00120020008000eb0012
:101320003fb09700afb197000300010000057800bf
:101330000a007800a60007000000e000f3ff3a0072
:101340006fb09700e10f4500080032000000e9008f
:10135000e0b79f000001eb008a0078003fb09700e3
:10136000afb1970003000100220037000000e90040
:10137000e0b79f001f00370050022000808f54000c
:1013800002003a000b05e900180037000b05780051
:10139000160037006fb097000000e800e0b79f002c
:1013a000120020008000eb003fb09700afb1970023
:1013b00003000100bc00fb00810f50000b00320055
:1013c000e10f40007c003200efb097008100e9009f
:1013d000e1b79f000001eb00800078003fb097006c
:1013e000afb1970003000100730037000a05e90060
:1013f000e8ff3b005fb097008b054000dbb79f0024
:1014000050022000808f5400030032000900e000e9
:10141000b5ff3a00680037009b4078000040eb00c1
:10142000a2c2b30082cf500003003a008b05e8004f
:10143000dbb79f0001407800a0f79f000000eb00a1
:1014400080bf9f000b0037000fb89700f2ff270006
:10145000820f5000050032006a01b90000fd2f0024
:10146000020040000100400080bf9f000a05e80024
:10147000dab79f005fb597009a4478008900fb00b7
:1014800000fd2f0001004000e90f5000eeff360084
:1014900060962000780007000000e00003003200a2
:1014a0000a05e800dab79f00010037008044eb002e
:1014b000b9f79f005fb0970081c6b30081cf540099
:1014c00004003a0090cf14000b003a00e6c0500030
:1014d00006003700c1c6b30081cf540006003a00b1
:1014e00090cf140004003a00e5c04000b1f79f001f
:1014f0000000e800d0b79f005fb097009000fb00ad
:10150000d09620005c0007000000e0001a003a00be
:101510006fb097000000e800e0b79f0012002000c5
:101520008000eb003fb09700afb1970003000100cf
:101530008004780009007800250007000000e00022
:10154000f3ff3a006fb09700e18f440008003200cb
:101550000000e900e0b79f000001eb00890078007f
:101560003fb09700afb197000300010002003700c1
:101570000000e900e0b79f007c8057006b00070087
:101580000000e00003003c000800e0000a003a0010
:10159000080037004ff097000004e000010032001f
:1015a0000804e8005fb097000000e800d0b79f0093
:1015b0004dff370000047800080078004f067800df
:1015c0004f05be004f04be000080fa000000060078
:1015d0006900e100040035006d00e1000300340003
:1015e0000002b100010032000000050010000500fb
:1015f000881f780000047800f80090006002200046
:1016000008004000808f50000600310000002400d8
:1016100018006000030032003180fb007104980064
:1016200013003700380890000000e000030032008b
:10163000500498000000eb00300c9800c8009000a7
:1016400058009000808f5000070039000800780093
:1016500023010700800078000080eb000100e0001b
:1016600003003400c80090003180fb004104980062
:101670004f04780000000600020037000304e00079
:10168000060032000001780002007800b0417800c6
:1016900081cf5100f9ff3a00010037000001eb0053
:1016a0000200780000000600e10f40001c0032003c
:1016b000710190004302200081814100830f51009d
:1016c000140036009101780014002a0004826100a1
:1016d000e10f520011003a00f4ef2a00848161000a
:1016e0000400250084887100b10990000300e00027
:1016f00004003a00d1019000b3089800a1019000c5
:10170000d30098000201e900f20098000049780037
:10171000000006000080eb00000006000080eb00e7
:10172000000006000108780000000600881f78000d
:10173000000478000040eb0000549800380090004e
:101740001040780071c4b300814f500008003c0085
:1017500081c0e900814f500011003d0051c2b3002b
:10176000814f500011003200fcc040000a003700d9
:1017700071c6b300814f50002b003c0081c0e900ce
:10178000814f500006003d00eac05000814f5000dc
:1017900021003200e6c04000814f500022003a0094
:1017a000080078003a020700200037004800900047
:1017b0000000e80040049800980178001200200022
:1017c0008000eb001800900003000100800078000a
:1017d0001000200052022000828f500013003200bf
:1017e00048009000e18f4000070032000000e9004f
:1017f00040049800980178000001eb001800900068
:1018000003000100080037000000e90040049800d0
:1018100001007800050037008080eb0008007800a8
:1018200024010700010037000000eb004f0478009e
:10183000000006000000e0002f003200c001780028
:10184000e38f51002c0036000308a3002a003a0061
:10185000214c80000100e00002003200810f5000a6
:101860000400310011009800204c88001600370059
:1018700082007800110190000200e00002003200b6
:10188000800f5100faff3900110278008482400075
:10189000850f500018003900808f520003003a0075
:1018a0008308420001007800070037000200e000d2
:1018b0000300320083014000830f51000e00390005
:1018c0001200980090009800900090000100e00045
:1018d0000900320010014000828f500006003a00db
:1018e000229820000009eb00100178001108410047
:1018f000910090001100980000000600889fbe0033
:1019000000047800114c80000100e0000200320069
:10191000010078000d003700214c80004098200025
:1019200004003700910f5400250036000180e800c4
:10193000910090000100e000faff3a00100037002b
:10194000920f54001e0036000280e800100178005b
:101950000200e000faff3a0011017800214c8000fb
:101960004098200004003700910f54001400360006
:101970000180e80091009000828f5000faff3a0049
:10198000694c8000888f5400010031008804780081
:1019900009007800a00007000000e00004003a0001
:1019a000888f5400050032008904d100f5ff37000c
:1019b000091878009fff0700d2ff37000000eb00f6
:1019c0004f04be0000000600881f7800630440003a
:1019d0000800a1008000eb00800f540021003600b9
:1019e000e30f540001003e0048002000080078008a
:1019f000c2ff07008000eb000000e0001900320089
:101a0000900078009101780064815100880f5100a6
:101a10000300310011019000020878000700370030
:101a2000088140000208780091019000130198009d
:101a3000100178001109140088087800100178005e
:101a40000000eb000200e000040032009201900070
:101a50000300e000010032000280e800104c880022
:101a60008180e800010078004f0478000000060043
:101a7000881f7800618820000004eb005100780086
:101a80000000e0000b003a0080022000ceff0700bb
:101a90000000e0001000320088004400828820002e
:101aa00000b1780001082000010878002840980063
:101ab000090037001000e00003003a00f1f72f00a2
:101ac00001087800040037000804e800e80f54001b
:101ad000eaff3a000000eb004f0478000000060027
:101ae000889fbe008a1f780000047800480190009b
:101af000d800900010002000810f510043003900f1
:101b0000980478000000eb000988a3003f003a0029
:101b100010002a0000806400e10f5000060032002f
:101b2000002020000900e000010035000020240012
:101b3000090c70002500370000c020000080640000
:101b400015003a00280590006002200008004000bf
:101b5000800f550010003a00002020009aff070077
:101b6000200498000000e00004003a002a049800d5
:101b70000a05e8003a049800070037000960a00051
:101b8000090c78000120200080804000310498007a
:101b9000400c9800500c9800a80090004104980058
:101ba000510498006104980038019000010151002f
:101bb000384090000000fb0008fb07000000e00038
:101bc00004003d0000202400180c70000080eb0091
:101bd0000e0037000000e00006003a00f1ef2a0096
:101be0009880600000102400008c70000000eb0062
:101bf0000600370001002500188c7000d800900006
:101c00000080400050049800100020004f0578002c
:101c10004f04be0000000600800078000000eb00ca
:101c20000100e000050034000100780098fb070087
:101c3000e10f400001003a000000eb000000060048
:101c4000110037008001780010427800d5c2b3003f
:101c5000d3cf120008003a00814f520003003e002b
:101c6000a041900083cf500010003600e3014000f7
:101c70006301510003003700814f52000b00320016
:101c80000201e90003007800e20f5100edff3e0081
:101c900003003700b0cf1000050032000201e90058
:101ca0000200e000fbff3a00000005001000050004
:101cb00010000500f0874700889fbe008a9fbe0085
:101cc0008c9fbe008e1f78000004be00f84d90006f
:101cd0000046eb000900e00025003d0038009000c0
:101ce0000000e8003004980090407800ccef9f009e
:101cf000e2c5b30082cf500003003a000000e800c4
:101d000030049800c1ef9f00b8069000d0c5b30022
:101d10009d4f100002003a000d00e800010037005e
:101d20000d007800d105200053fe0700c0b79f00ca
:101d30000000eb00cfb097000100e000ca003200c5
:101d40000d8550000046eb00e20f550008003400fe
:101d50000a81e9000d00e800d1022000d403070049
:101d60001cc0b3000000e00001003a000046eb0098
:101d7000680090000000e00004003c00100020001b
:101d80000900e00001003200f0ff2700cbc6b200de
:101d90008b85fb008b05e900cf5dde0050049800c9
:101da000684890000004e0000c003a002800900011
:101db0000b00e000050032000080e90020049800dc
:101dc00010007800b0b79f00040037000080e900e1
:101dd0002004980010007800d0b79f000047eb0067
:101de000fbb79f0089057800660037000b00e00014
:101df000030034000d007800f5fd07001f003700d8
:101e00000b00e0001f0032000c04e0000d003a005f
:101e10004fe997000204e00005003a000a0178004b
:101e20008d00780038009000a10307000c003700f7
:101e30000a0178008d007800380090009c030700ac
:101e40000e0037004fe897000004e00007003a005a
:101e50000a0178008d0078003800900078ff0700b4
:101e60000000e00007003a005d0037000a0178003a
:101e70008d0078003800900071ff07000000e0003e
:101e800057003a00ffb097000100e00009003a0057
:101e9000684890000004e00039003a005fb1970004
:101ea0000d597800d2b79f0010c0b30000549800bd
:101eb00033003700cde79f008d06fb008d047800ce
:101ec00009f0a7008904ea008904ea00cf4cde008b
:101ed00005003a000d00e00003003a007c80570046
:101ee0007d0307008004e8007b8257001e0020006d
:101ef0008b0278008a057800090578008404780050
:101f0000100037000e07e900c900fb0048009000f0
:101f1000e18f4000090032000000e9004004980011
:101f2000980178000001eb001800900085bf9f0029
:101f3000030001008fba9700020037000000e9009b
:101f4000400498008e0f5500eeff35000b05780019
:101f500085057800684890000004e00005003a001c
:101f60003fb097000d187800b0b79f0010c0b300c5
:101f700000549800680090000000e9006004980098
:101f80002ec0b300d80090008100e90051049800f1
:101f9000480090000d0033000000e8004004980065
:101fa00098017800120020008000eb0018009000db
:101fb0000300010080067800e18f46008bff3a00a5
:101fc0008b047800ffb597002d0037008b04780054
:101fd000ffb597000000e800400498002800370093
:101fe0008b047800ffb59700480090000000e900de
:101ff00040049800980178000001eb008d00780003
:1020000018009000030001000900e0000200320007
:10201000e24f5700050032000e07fb000080eb0086
:1020200011003200100020000f00370068489000b7
:102030000004e00007003a000b00e000030032005b
:10204000bfb097008008eb00020037005fb1970037
:102050000b497800100020000900e00002003d005c
:10206000cfb09700310498004f0778004f06be00ac
:102070004f05be004f04be000f01b1000000060076
:10208000480090000000e90040049800deff37009f
:102090006f04b000889fbe008a9fbe008c9fbe0068
:1020a0008e1f780000047800680090000000e000b7
:1020b00001003c00f0ff27000000e90050049800f8
:1020c000480090000000e800400498009801780063
:1020d000120020008000eb001800900003000100b7
:1020e00000057800b0022000800f55000300320088
:1020f0000080e800800f550017003a00ea779f0043
:10210000d80090008100e900510498004800900038
:102110000b0033000000e8004004980098017800ac
:10212000120020008000eb00180090000300010066
:10213000000578007bfb2f008f85450008003700e5
:102140000000e800400498007bfb2f008f854500cd
:102150000085eb00b20037006bfb2f008f85450038
:1021600000032000800f550033003a00d800900093
:102170008100e90051049800480090000c003300f1
:102180000000e80040049800980178001200200048
:102190008000eb00180090000300010000057800ab
:1021a00080072000800f55000a003200040037002d
:1021b0000000e80040049800ad00200065013700f1
:1021c000ad0020001cc0b30080052000800f55002a
:1021d00062013a0000c3b300805d780080c7b3009d
:1021e000805d7800d80090008100e90051049800db
:1021f000480090000a0033000000e8004004980006
:1022000098017800120020008000eb001800900078
:1022100003000100000578006d0120000400370074
:102220000000e800400498006d0120000085eb00ec
:102230000046eb0049013700e0062000800f550002
:1022400003003200e0042000800f550071003a00c6
:10225000e0c6b300805d7800d80090008100e900fe
:1022600051049800480090000f0133000000e8007e
:102270004004980098017800120020008000eb00d4
:1022800018009000030001000005780010062000ef
:10229000800f55000300320010042000800f55000d
:1022a00007013a0010c6b300805d7800d8009000a6
:1022b0008100e9005104980048009000fa003300c2
:1022c0000000e80040049800980178001200200007
:1022d0008000eb001800900003000100000578006a
:1022e00048009000e1062000810f550003003200f5
:1022f000e1042000810f550079003a00d8009000d9
:102300008100e900510498000c0033000000e8004f
:102310004004980098017800120020008000eb0033
:1023200018009000030001000005780080022000e2
:10233000800f550014003200030037000000e80051
:10234000400498000b003700e10f450009003200ff
:10235000480090000000e9004004980098017800cf
:102360000001eb008a0078001800900003000100d3
:1023700026003700480090000000e9004004980063
:102380000085eb0021003700d80090008100e900b3
:102390005104980048009000090033000000e80054
:1023a0004004980098017800120020008000eb00a3
:1023b00018009000030001000005780003003700ba
:1023c0000000e800400498000085eb000a00780057
:1023d000290207000000e000ebff3a00f0052000b2
:1023e000800f5500e8ff320090022000800f55005a
:1023f0000600320048009000e10f4500b3003a00ab
:102400000000e90040049800bc003700e0c6b300bb
:10241000bd00370090062000800f550005003200f7
:10242000ad0020000046eb0090042000800f550016
:10243000ca003a0090c6b300805d7800d8009000d2
:102440008100e90051049800480090009600330094
:102450000000e80040049800980178001200200075
:102460008000eb00180090000300010000057800d8
:10247000e0062000800f550003003200e004200039
:10248000800f55008e003a00e0c6b300805d7800f2
:10249000d80090008100e9005104980048009000a5
:1024a000810033000000e8004004980098017800a3
:1024b000120020008000eb001800900003000100d3
:1024c000000578004800900061062000810f55004b
:1024d0000600320061042000810f55000300320025
:1024e000e10f450079003a0080003700d8009000e5
:1024f0008100e900510498000d0033000000e8005d
:102500004004980098017800120020008000eb0041
:1025100018009000030001000005780048009000ba
:1025200091062000810f550016003200040037008c
:102530000000e800400498000085eb000d00370023
:1025400091042000810f55000e003200e10f45007c
:10255000080032000000e90040049800980178006b
:102560000001eb008a0078001800900003000100d1
:1025700064003700480090000000e9004004980023
:1025800060003700d80090008100e90051049800f5
:10259000450033000000e8004004980098017800ee
:1025a000120020008000eb001800900003000100e2
:1025b00000057800e0062000800f5500030032007f
:1025c000e0042000800f55003d003a00d800900044
:1025d0008100e90051049800480090003200330067
:1025e0000000e800400498009801780012002000e4
:1025f0008000eb0018009000030001000005780047
:1026000090062000800f5500030032009004200047
:10261000800f55002a003a00d80090008100e900a0
:1026200051049800480090001f0033000000e800ab
:102630004004980098017800120020008000eb0010
:1026400018009000030001000005780040072000fa
:10265000800f55000300320040052000800f550018
:1026600017003a00d80090008100e900510498005a
:10267000480090000c0033000000e800400498007f
:1026800098017800120020008000eb0018009000f4
:10269000030001000005780090072000800f55001e
:1026a00004003a00170037000000e80040049800da
:1026b0000e00370090052000800f550011003200f9
:1026c000e10f450009003200480090000000e900d9
:1026d00040049800980178000001eb008a0078001f
:1026e000180090000300010004003700480090002b
:1026f0000000e900400498000085eb000046eb0074
:102700005a01370060c6b300805d78001cc0b3007a
:1027100056013700d80090008100e900510498006c
:1027200048009000090033000000e80040049800d1
:1027300098017800120020008000eb001800900043
:102740000300010000057800030037000000e800e6
:10275000400498000085eb001cc0b300000320007b
:10276000800f5500ebff32000c04e0000100320046
:10277000805d78008004eb000907780019003700bd
:1027800030022000800f570003003c008a5d780073
:102790000e07e800010037008904e800d800900027
:1027a0008100e900510498004800900009003300be
:1027b0000000e80040049800980178001200200012
:1027c0008000eb0018009000030001000005780075
:1027d000030037000000e800400498000085eb008b
:1027e0001cc0b300e10f45001b0032000d01780052
:1027f0008a007800e09420002d0107000000e0002e
:10280000dfff3a00e0022000800f550012003a007e
:102810008a5d7800d80090008100e900510498009a
:1028200048009000090033000000e80040049800d0
:1028300098017800120020008000eb001800900042
:102840000300010000057800030037000000e800e5
:10285000400498000085eb000e00e00033003a00d1
:10286000130037008904e900d80090008100e900d6
:102870005104980048009000090033000000e8006f
:102880004004980098017800120020008000eb00be
:1028900018009000030001000005780003003700d5
:1028a0000000e800400498000085eb001cc0b30065
:1028b00000032000800f5500eaff32000900e0000d
:1028c0001a003d00805d78008904e8001700370099
:1028d00030022000800f570002003c008a5d780023
:1028e0000e07e800d80090008100e900510498002c
:1028f00048009000090033000000e8004004980000
:1029000098017800120020008000eb001800900071
:102910000300010000057800030037000000e80014
:10292000400498000085eb001cc0b300e10f450097
:10293000060032000d0178008a007800e094200043
:10294000db0007000000e000e1ff3a000c04e000bb
:102950006a003200ea8f560005003a005006200057
:10296000800f55000800320050042000040037009a
:1029700000072000800f55000300320000052000f2
:10298000800f55005d003a008a5d7800d800900005
:102990008100e90051049800480090001d003300b8
:1029a0000000e80040049800980178001200200020
:1029b0008000eb0018009000030001000005780083
:1029c000b0022000800f550003003200d00220002a
:1029d000800f550012003a008a5d7800d800900000
:1029e0008100e9005104980048009000090033007c
:1029f0000000e800400498009801780012002000d0
:102a00008000eb0018009000030001000005780032
:102a1000030037000000e800400498000085eb0048
:102a20000046eb0012003700d80090008100e9005a
:102a30005104980048009000090033000000e800ad
:102a40004004980098017800120020008000eb00fc
:102a50001800900003000100000578000300370013
:102a60000000e800400498000085eb001cc0b300a3
:102a700000032000800f5500ebff32000c04e00043
:102a800002003200805d78001cc0b3000007eb003c
:102a900016003700e70f570002003c008a5d7800ff
:102aa0000e07e800d80090008100e900510498006a
:102ab00048009000090033000000e800400498003e
:102ac00098017800120020008000eb0018009000b0
:102ad0000300010000057800030037000000e80053
:102ae000400498000085eb001cc0b30000fd2f00df
:102af0000a004000e90f5000e6ff36004800900051
:102b0000e10f4500080032000000e9004004980091
:102b1000980178000001eb008a007800180090000e
:102b200003000100020037000000e90040049800a3
:102b30000c04e00008003a000000eb0061fb2f00ed
:102b40008f804000818f550042003a00e10f450020
:102b500040003a003e003700804deb00e84890000e
:102b6000100020000104e0003a003a00ea8f56000d
:102b70000a003c006149b9008000eb0060fb2f00b7
:102b80000f004000d5000700f0979f00819f9f0035
:102b9000929f9f00a39f9f000e0037006011b80016
:102ba0008000eb0060fb2f000f004000cb0007000f
:102bb000f0979f00819f9f00929f9f00a39f9f007f
:102bc0004249dd00cf91de00e0fa2f000f00400007
:102bd0004700070010c0b30000549800f848900068
:102be00028009000c2c6b30082cf5000030032001c
:102bf000c2c4b30082cf50000a0032000080e90056
:102c000020049800100478007f9097008f98970018
:102c10001f999700af999700e9060700008cbe0046
:102c2000090037000080e9002004980010007800b7
:102c30007f9297008f9a97001f9b9700af9b9700fa
:102c40000498be000690be0010002000010037006e
:102c50000a0078004f0778004f06be004f05be00ff
:102c60004f04be006f04b100000006008006eb00b8
:102c70008d047800aeff37000003b1000b00350073
:102c80009000b100080034008000b100070035005a
:102c90009001b100040034007000b1000300350061
:102ca0009001b10001003c0010000500000005008b
:102cb00003003700b0cf1000050032000201e90028
:102cc000800178000200e000faff3a0000000500f1
:102cd0000300780000000600800078000101780001
:102ce0003104e000fdff3a00000051000000060042
:102cf0000400fa00889fbe0000047800e604440047
:102d0000190078008000d000c508de00f47f2000a4
:102d1000848f50000e003a00ef0060002000200079
:102d20006b003a00a80090000100e00068003a0043
:102d3000980090000100e00065003a0010002000bb
:102d40001800e00062003200200020006000370020
:102d50000100e0000a003a0008007800c2bf9f00ae
:102d6000d3bf9f00b5020700800078000000eb0091
:102d70004fb99700dfb997000100e00054003c0014
:102d80004f88de000281400083014800e07f200080
:102d9000800f5100e08f59000d0034001900e00051
:102da00004003d006000b8000200200003ff2f0077
:102db000030037006000b8000200200003ff270076
:102dc000009cbe000294be001000200040003700ae
:102dd000e00f5100e08f5900050034004411dd0080
:102de000f000280019006000800c710037003700e7
:102df0001900780004002800040260006f006000e1
:102e00000040a000800c7800d0fc2f00f1ff2f00c4
:102e1000800f5100818f590006003d00840c78001e
:102e20000000eb002004980010049800000ceb0058
:102e3000270037006f0141000600370008007800c6
:102e4000500c7800e40044001108780099087800dc
:102e5000800ceb00700051007001410001fe2f005a
:102e600082804000ef8f4000f4ff35000000ea0050
:102e7000150032008800780070011000d10278003f
:102e8000822add00980178008019de00038c720030
:102e90006404440098027800822add0091017800e1
:102ea0008019de0083887200990078000209dd0035
:102eb000980078008008de00010c7100990078000d
:102ec0000008de00800c7800990c72000080eb0096
:102ed0004f04be000080fa00000006004f02b00060
:102ee000889fbe008a9fbe008c9fbe008e1f780008
:102ef000a0b79f00010478000206be00000778001a
:102f0000880078007c805700c3000700e80060005c
:102f1000b1b79f00000278000430a100e10f520019
:102f200048003a002400200083fd2f008f814100db
:102f300008017800afb097000e0078004d0307003d
:102f4000000778000e00e00007003a006000b800bb
:102f50006011b80080af9f0091af9f00a2af9f00ab
:102f6000b3af9f00320037004272dd0082fd2f00b8
:102f70000f014100040241001400be00e4b79f00ad
:102f8000950507000004be000205be0088af9f0043
:102f900099af9f00aaaf9f00bbaf9f006fb2970091
:102fa000c4b79f00e4912000d4b79f00fcb79f00f6
:102fb0008dbf9f00150037004fb197004200be0043
:102fc000c2b79f00e00f5000e08f58000c003200a5
:102fd000810507005fb697003c02be002c03be00cf
:102fe000810507000002be000203be000800be000b
:102ff0000a01be00560407000004be000205be0020
:103000005fb0970068004000d0b79f000e07e9004e
:103010004240a900e8ff3c007fb697008fbe9700b2
:1030200088af9f0099af9f00aaaf9f00bbaf9f00e2
:103030004faa9700dfaa97000c0242008d824a0037
:103040004a003700e20f52004e003a0083fd2f0085
:103050008f81410008017800afb097000e00780022
:10306000fe000700000778000e00e00007003a00ad
:103070006000b8006011b80080af9f0091af9f0062
:10308000a2af9f00b3af9f00320037004272dd0055
:1030900081fd2f008f804000048240001400be009c
:1030a000e4b79f004c0507000004be000205be0007
:1030b00088af9f0099af9f00aaaf9f00bbaf9f0052
:1030c0006fb29700c4b79f00e2902000d2b79f0074
:1030d000fcb79f008dbf9f00150037004fb19700d0
:1030e0004200be00c2b79f00e00f5000e08f5800c2
:1030f0000c003200380507005fb697003c02be00a6
:103100002c03be00380507000002be000203be000b
:103110000800be000a01be000d0407000004be0046
:103120000205be005fb0970068004000d0b79f0066
:103130000e07e9004240a900e8ff3c007fb6970077
:103140008fbe970088af9f0099af9f00aaaf9f00e6
:10315000bbaf9f004fa99700dfa9970000fd2f008c
:103160000f004000e2fe07000c02be000fa897000f
:103170009fa897002fa99700bfa9970015020700e5
:1031800013003700e30f520004003a006000b8005b
:103190000200200003ff2700080037006000b8008d
:1031a0006011b800e40f520009003a00f0ff2f0050
:1031b000f1ff2f00f2ff2f00f3ff270080af9f00e9
:1031c00091af9f00a2af9f00b3af9f0004003700f4
:1031d00080af9f0091af9f00a2af9f00b3af9f0051
:1031e0000fa897009fa897002fa99700bfa9970045
:1031f0003fb297000400e0000100320003f0a2009b
:103200004f0778004f06be004f05be004f04be00ba
:103210004f02b10000000600889fbe008a9fbe00da
:103220008c9fbe00000478000106780098047800a6
:10323000890578000b0578008a057800bb46780080
:103240000d00fb00e2f807000000e000f9ff3a0083
:10325000d0c2b30080cf560003003a000b057800bf
:1032600081002000050037008000eb00b0c2b300f1
:1032700080cf560001003a000b0578001a40780014
:10328000e2c6b300824f500003003200e2c4b30034
:10329000824f500027003a008a00780051417800a0
:1032a00010c6b300804f5100040032000000eb0054
:1032b00013c4b300834f51005c003a0051417800c1
:1032c000e0c6b300804f5100040032000000eb0064
:1032d000e3c4b300834f510054003a0081047800e6
:1032e00080c2b300d94f10000b003a0064054500be
:1032f0008a057800ba4678000d00fb005efe0700e4
:103300000000e000faff3a00f0c5b30080cf56009d
:10331000f7ff3200010037008905780040002000e7
:1033200091c2b3009bcf100040003a008b04e8002c
:103330003e00370092c6b300824f500003003200b7
:1033400092c4b300824f50003c003a005a417800ca
:10335000e0c6b300804f5100040032000000eb00d3
:10336000e3c4b300834f510030003a005a41780063
:1033700060c6b300804f5100040032000000eb0033
:1033800063c4b300834f510028003a008a047800d8
:10339000010078003000b300d940780092c6b30035
:1033a00082cf50000300320092c4b30082cf50009d
:1033b0001e003a008900780051417800e3c6b3004e
:1033c000834f510003003200e3c4b300834f510028
:1033d00016003a005141780093c6b300834f510064
:1033e0000300320093c4b300834f51000f003a0032
:1033f0005141780043c7b300834f510003003200ae
:1034000043c5b300834f510008003a005141780092
:1034100093c7b300834f51000300320093c5b3003c
:10342000834f510001003a008104e8000c00e000e5
:1034300005003200090e7800030037000100780013
:103440000000a0008a047800090c78004f06be0036
:103450004f05be004f04be0000000600e88747008d
:10346000889fbe008a9fbe008c9fbe008e1f780082
:10347000e0b79f0082047800030478006722b90057
:103480000006eb00010037001c00200081017800dd
:1034900000c3b300b14f1000fbff3200000ceb0083
:1034a00038147800880578000005eb002a00370002
:1034b000840f550016003d00720020001100090025
:1034c0000205d8000100e00003003a00e485450051
:1034d000801deb008015eb001b06be00446bdd0079
:1034e000cc63de00870373004463dd00618f20003e
:1034f00001805200018e2000614078000000fb0036
:10350000cf80de00801d430081954b001000370006
:103510001000200001002000180c400058944800c2
:10352000840f55000b003a00618f2000018052008b
:10353000018e200061407800e74f50000500340004
:1035400010002000010020009b0d4000db9548008a
:103550000a05e8001c002000830678008d01780031
:10356000334778008e00fb0062012000608f20004e
:10357000f3b79f0084bf9f00cdfd07008002780055
:10358000ffb197000fba97000500e000c8ff3a00ae
:10359000840f55000100340004057800e0c2b30038
:1035a000804f570001003a008d06e8000a00e00055
:1035b00029003a000d007800050037000081eb007b
:1035c0008081eb00180c4100589449001c00200039
:1035d0008006780001c3b300b0cf1000f7ff3200bf
:1035e0001d003700840f55001a003d0072002000b6
:1035f000110009000205d8000100e00003003a00b4
:10360000e4854500801deb008015eb001b03be0028
:103610004439dd00cc31de00830171004431dd002e
:10362000618f200001805200018e200061407800ef
:103630000000fb00cf80de00801d41008195490025
:103640000a05e8000081eb008081eb00180c4100c6
:10365000589449001c0020000d0778008e06780061
:10366000bd00fb0062012000608f200084bf9f002e
:103670008ffd0700800278000fba97000500e00078
:10368000d8ff3a000c0178007300200011000900f7
:103690000305d8000100e000130032000180510052
:1036a000c200dd001b02be008100e9000300330000
:1036b0000402420085824a00fbff3700848dbe0071
:1036c0000a054000cf80de00181c10001894180076
:1036d000050037006705550070002000010020003c
:1036e000180c400058944800e60f550004003400c0
:1036f0002b00be00e00f5000e08f5800f5ff3200b5
:103700001800be00420add00ce02de008502720013
:103710004202dd00048cbe000c00e00038003200e4
:103720001e40780001c7b300814f500003003200f3
:1037300001c5b300814f500030003a000e067800fa
:10374000dc457800b0c2b30080cf550003003200e2
:10375000d1c2b30081cf550002003a000c06e80048
:1037600001003700804578006000b8000001eb00e0
:1037700013003700f20f2e00535f2000820f50001d
:10378000838f58000d003c00a200200003002000a1
:1037900084bf9f00f5b79f00340407000d01fb00b4
:1037a000cf91de000203b1000380b10002004000af
:1037b00083804800ffb297000fba970012002000e4
:1037c0000c0778000e067800bc4678008d01fb00df
:1037d0000303b100e98f5100e6ff3600d3c2b30006
:1037e00083cf550002003a0060001000e08018000e
:1037f000041c400005944800010037000c017800cb
:103800000900e000040032000200e00001003a007c
:103810006fb797008e0c780072002000110009002d
:103820000205d8004f0778004f06be004f05be00c6
:103830004f04be008f00b10000000600e60040000b
:103840001101780005002800850261006f01610008
:1038500082087800020032001200200011003700b8
:10386000a0019000120020000300e0000d003a00cb
:10387000900190000300e0000a003a001000e00010
:1038800008003a00360037006403400096087800cc
:1038900080017800530b78009009780004087800c4
:1038a00070015100110278000400e000f6ff3200c0
:1038b0001300370064024000140378004f33de0029
:1038c000838141008308730080017800d30378006e
:1038d000cf3bde001403780006034300068a730022
:1038e0001302780004024200100378004f33de0018
:1038f0008609720090017800038841000201e90006
:1039000091017800ef8f5100eaff36001000370078
:1039100080017800530378004f33dd001002d1009e
:10392000040873006402400094037800cf3bdd007c
:103930001303d10086897300110378004f33dd0033
:103940009401d100030a73009108d1000201e8003c
:1039500091017800ff8f5100edff3e00ef8861007c
:103960009188720002007800000006000a00fa0048
:10397000881f780000047800880078006c80570069
:10398000b4bf9f00c5bf9f00d6bf9f00e7bf9f0089
:103990008e0007003fba9700cfba97005fbb970031
:1039a000efbb97003800be002801be000e030700e1
:1039b000009cbe000294be002fb99700cf91de009c
:1039c00008007800cafc07004f0478000080fa0065
:1039d000000006000800fa00889fbe008a1f7800d9
:1039e00090bf9f00a1bf9f00b2bf9f00c3bf9f00b9
:1039f0000404be00e00f5200e08f5a006b0032005a
:103a00006022b8006033b8004f0207000000e000f9
:103a100066003200e00f5400e08f5c0031003d0092
:103a200060041400e0841c000005eb006000b80096
:103a30000200200003ff23000808a3000600320054
:103a4000c352dd0084892000048242005403be007a
:103a50004402be00e40207008904d1000884d300b8
:103a6000e00f5400e08f5c00030032000a05e8001c
:103a7000e80f5500f0ff3a000002be000203be004e
:103a80006000b8000200200003ff2300330207009b
:103a90000002be000203be006e805700b3ff0700a5
:103aa0000000e00039003d00e00f5400e08f5c00b2
:103ab0003e00320034f42600c54a2600866220000b
:103ac00087ac20006e805700a8ff07000000e000d0
:103ad0002e003d0061045400e0845c00f5ff3a00d4
:103ae0002e0037000005eb006000b8000200200047
:103af00003ff23000808a30006003200c352dd00c4
:103b000084892000048242005403be004402be00a7
:103b1000b50207008984d1000884d300e00f540067
:103b2000e08f5c00030032000a05e800e80f550052
:103b3000f0ff3a000002be000203be006e80570094
:103b40008aff07000000e00010003d00e00f540075
:103b5000e08f5c0015003200c4f32b0035f727001e
:103b6000d6fd2400575127006e8057007fff0700c5
:103b70000000e00005003d0061045400e0845c00aa
:103b80004240a900f4ff3c00040037000000e000c0
:103b900002003a000001200003003700e10f50004e
:103ba00002003a00800020004f0107001fb8970074
:103bb000afb897003fb99700cfb997004f0578008d
:103bc0004f04be000080fa0000000600889fbe007f
:103bd00000047800e68440001900d0004500de00b3
:103be000f27f2000820f500010003a00000ceb0022
:103bf000990478006f816400200020001b003a00c7
:103c0000210190000200e00018003a00110190002c
:103c10000200e00015003a00100020001100e00052
:103c20001200320020002000100037000000e000e9
:103c300004003a000100780000ff07000000e000e7
:103c400008003c00f20028001901610001fe230079
:103c5000810c710021c02f00010c40000080eb009e
:103c600002003700000ceb000000eb004f04be0028
:103c700000000600f4874700889fbe008a9fbe00b0
:103c80008c9fbe008e1f780080b79f00c2b79f0038
:103c9000030478006726b9000000eb008005780077
:103ca000010037001b002000610ab8006101b80064
:103cb0000403410096b79f000000e800e44179004a
:103cc00002c3b30082cf5100f6ff3200000ceb00bc
:103cd00038147800080578000007eb008e0478009f
:103ce0002c0037008c8f54001b003d007400200016
:103cf000110009008404d800010278000400e000eb
:103d000003003a0064054500001deb000015eb00c0
:103d10007fb097008fb89700604279000402fb00e3
:103d2000cfa2de000403b1000580b100a200200094
:103d3000030020001a00be00e4b79f00d5b79f0023
:103d4000ca0207006fb29700dfb29700001d420061
:103d500001954a000c0037001200200003002000eb
:103d6000180c4100589449008c8f540007003a0009
:103d7000e6c07a0040c3b30080cf50000300340097
:103d80001a0d41005a9549008904e8000e07e80021
:103d90001b0020009fb097006108b800f0b79f009b
:103da00081bf9f006171b80002004000838048001d
:103db000a0b79f00b1b79f0080067800020378008b
:103dc000ffb2970062c27a008403fb000703b100d0
:103dd000e98f5300c3ff36002fb097008c8f54003b
:103de000010034008c047800e1c2b300814f52001e
:103df00001003a008006e8000000eb000900e00046
:103e0000070032000007eb00330037000081eb00b1
:103e10008081eb00180c4100589449001b002000e1
:103e2000616ab8006101b8000203420083834a005e
:103e30000000e8006441790001c3b300814f5100e4
:103e4000f2ff320086067800eeff37008c8f5400b8
:103e50001f003d0074002000110009008404d800f8
:103e6000010278000400e00003003a006405450008
:103e7000001deb000015eb002fb09700bfb09700be
:103e8000624278000402fb00cfa2de000403b1000e
:103e90000580b100a2002000030020001a00be002f
:103ea000e4b79f00d5b79f00700207006fb297007c
:103eb000dfb29700001d420001954a008904e80026
:103ec0000081eb008081eb00180c41005894490000
:103ed0000e07e8001b0020006169b8006170b8009f
:103ee000a0b79f00b1b79f00000341008183490044
:103ef00006027800e24278008502fb000503b1006b
:103f0000e98f5200d1ff36000b06780006077800d3
:103f10007d002000110009008d04d8000100e000a0
:103f200012003200818656001a01be00e00f5100d7
:103f3000e08f5900090032000d00e9004200dd0069
:103f4000e1922000010040001000be00e6b79f0093
:103f500046020700008dbe006fb2970089844600bc
:103f60006168b900181c1000189418008006eb0056
:103f700005003700e7845400720020000300200091
:103f8000180c410058944900e68f54000c0034008e
:103f90006168b800c2ff2f00f3ff2f00e4b79f0055
:103fa00032020700800045001100be008d06e800c7
:103fb0006fb29700e00f5000e08f5800edff320025
:103fc0000b00e000370032001e40780051c6b300fd
:103fd000814f50000300320051c4b300814f5000a4
:103fe0002f003a000e057800da457800b0c2b30021
:103ff00080cf550003003200d1c2b30081cf5500fd
:1040000002003a000a05e800010037008045780008
:104010008006eb006000b8000d0678001000370045
:10402000f20f2e00535f2000820f5000838f580044
:1040300009003c00a2002000030020000b02070042
:104040000e01fb00cf91de000203b1000380b1003e
:1040500002004000838048008d06e8001c0020001c
:104060006153b8006169b8000602410066477900f3
:104070000e01fb000203b100e90f5100e8ff36001a
:10408000d2c2b30082cf550002003a006000100097
:10409000e0801800180c40005894480001003700d8
:1040a0000b067800cfb197000300e0000500320056
:1040b0000c00e00001003a000fb297004fb39700e8
:1040c000040b780072002000110009008204d8005f
:1040d0004f0778004f06be004f05be004f04be00dc
:1040e0004f01b10000000600e5006000030032004f
:1040f00010022000304c88000000060078006000ac
:104100000200320020022000304c8800000006002f
:10411000404c80000000e00001003200000001007f
:10412000609820000000060000c0da0000000600d1
:1041300000c0da000000060000c0da00000006003f
:1041400000c0da000000060000c0da00000006002f
:104150002800fa00889fbe008a9fbe008c9fbe0088
:1041600007067800878669000c003b00030478008e
:104170008704780008f0a10009f0a100840f500026
:10418000858f5800860f5900890f5c0003003300ab
:104190000cf0a20001003a000cf0a100f5000700ad
:1041a0006400e1005f003200780147006408e1002c
:1041b000610032006c014700748557003200be0078
:1041c0001201be003a04be001a05be001e03900094
:1041d000be0a90008503530006003d000004fd0068
:1041e0008104fd000205fd008305fd008703ea0050
:1041f000050378000df8a3000400320060041400e9
:10420000e0841c0060051d00e0851d006022b800f0
:104210007d0320000d38e1008006eb000b00390023
:104220004433dd00f300b20083017300390037002e
:10423000848272000d027800e10664008b85d10053
:104240000a85d3008984d3000884d3008703e9005a
:10425000f7ff3b0008004000898048000a01490040
:104260008b81490004003b0060001000e0801800d2
:1042700060011900e08119000358a3000900320011
:104280008d82720084827200610260008301d1001d
:104290000281d3008180d3000080d3000603e800b0
:1042a0001b0037000348a30017003a000600e00097
:1042b000170034000603e9000d00a30000004800c9
:1042c0008180480002014900838149000348a3001e
:1042d0000f003a000600e000090034000603e90080
:1042e00000004000818048000201490083814900ac
:1042f00001003a000003eb000348a300f5ff320081
:104300006022b80002003700848272006182660079
:104310006c00070003f0a1000cf0a70003f0a00060
:10432000a8003700640147006408e10002003a0079
:104330000df8a300a0003a003200be001201be003a
:10434000a0003700000000008f1fd1004d010700c2
:104350008f87e9000000e000000006002800fa0056
:10436000889fbe008a9fbe008c9fbe0003866b00a4
:10437000800007006400e100440032006408e100ae
:104380004a0032006100e100460032006108e100ad
:1043900049003200ec0647006000b8003d02be0054
:1043a0003d03be00f48657006011b8003d04be0016
:1043b0003d05be007d0320000b0037000000a0007b
:1043c0008d06e900130032000402420085824a0093
:1043d00006034b0087834b000000400081804800ab
:1043e00002014900838149000802520089825a0073
:1043f0000a035b008b835b00f0ff3b000802420076
:1044000089824a000a034b008b834b008d06e9002a
:10441000edff3a008482720086827200f707b200d4
:104420008782720001003200150020001e049000f7
:104430003e0b900006035400e63fb0000368a30063
:10444000070032000000a7000500a0008301d10092
:104450000281d3008180d3000080d3000603e800ee
:104460008301d1000281d3008180d3000080d3007a
:104470000002eb000482d2001200070003f0a1004a
:104480000cf0a70003f0a0004e00370064024700c4
:104490006408e100480032003400be003401be0070
:1044a000f6ff37006108e100430032006011b800f8
:1044b0006000b800f1ff370003ff27000200200072
:1044c000fbff3700180020005700200008045300ad
:1044d0000d003d000600200097fc2f000740e10082
:1044e0001e00340084827200610260008301d100ea
:1044f0000281d3008180d3000080d3000804e8004b
:10450000f8ff3a00470020006104600005047400d1
:10451000040464000d00320061004000e0804800a7
:1045200060014900e081490003b8a500070032009e
:104530000603e8006538e10004003a008301d10079
:104540000281d3008180d3000080d300f87f200057
:104550000830e10003003500080378006000b8006f
:104560006011b8004433dd00f300b2008301730032
:1045700000000600680447000294be000094be00dc
:10458000fc0447008694be008494be0009007800b5
:104590000501070008007800030107009900780072
:1045a000814f70000b003b000800be00de000700da
:1045b0004f00b10003003700f3ff2700f2ff2f0088
:1045c0006110b9004f06be004f05be004f04be008b
:1045d0000080fa00000006004f89de0082017800aa
:1045e00018013700000000002800fa00889fbe0074
:1045f0008a9fbe008c9fbe0003866b00ddff070014
:104600000028a30064003a000128a30067003a00d4
:104610000008a30062003a000108a30065003a0008
:104620001e009000be08900081064000ed3fb100e2
:10463000f4805700ee019000111ab8008e09900026
:10464000311bb8009e099000311cb800511db80004
:10465000f485570046000700fe0190003a0007006d
:104660008b85e8003e0007008e099000400007009f
:10467000ee019000340007008b85e8003800070049
:104680008e099000400007009e0990001b18b8009a
:10469000890440000a854800fe01900034000700ac
:1046a0008b85e80038000700ee019000300007001d
:1046b0008e0990001b18b800890440000a85480044
:1046c0000a98a30008003a000402420085824a00ca
:1046d00006034b0087834b0008044c0089844c0080
:1046e0000a054d008d06e900848272008502730080
:1046f0004c3add00850272000100320015002000f6
:10470000443ade001400b2004538de00cb45dd003f
:104710000b007000c540de00cb4ddd008b807000cb
:104720004549de00cb55dd000b017100c551de00af
:104730000d03780063ff070003f0a1000cf0a70051
:1047400003f0a0009fff37001b18b800850240004f
:1047500006834800e0834b0060044c0007003700ec
:104760001b18b8000603400087834800faff370093
:104770001b18b8008703400008844800e0844c0000
:1047800060054d00000006001b18b800080440003a
:1047900089844800faff37000108a30086ff3a0029
:1047a0005800be005801be00e3ff37000008a30018
:1047b00081ff3a0009047800f9ff3700000000008b
:1047c0001400fa00889fbe008a9fbe008c9fbe0026
:1047d0000005be000206be00680047000c90be0047
:1047e0000a90be00700007006400e1001a00320069
:1047f00016003e006100e1001a0032006e049000d5
:10480000fe0490000e0b90009e0b90006011b8000b
:104810009e0590000b38b100d50120008281710007
:10482000610164008703d1000683d3008984d3002b
:104830000884d3008502e900f8ff3a002cf1070054
:104840000df0a70001f0a0005eff3700f1ff270088
:10485000f0ff2f005bff370001f827000000200069
:10486000f7ff37006000b800f5ff3700020ab90013
:10487000001bb9000200b800810042008100430023
:1048800000000600889fbe008a9fbe008c9fbe006d
:104890000404be000605be00809fbe00829fbe00cd
:1048a0002f000700040678000800be000a01be00c1
:1048b0002b000700840678004f03be004f02be00a5
:1048c0008d4f76007fb0970013003300f0ff2f006c
:1048d0008b8f6b0006003b000d0666000c00a700e6
:1048e0000a00370007f0a600100020000a00370079
:1048f000880f5200898f5a008a0f5b008b8f5b00f4
:10490000030039001000200001003e0000002000dc
:1049100007f0a7000000ea004f06be004f05be00ea
:104920004f04be0000000600e48240001078a3009f
:1049300007003200640240001178a3003400be007a
:104940001401be00040032000330a700000006007e
:104950003500be001501be000330a00000000600b7
:1049600005ff270005826100070032000428e100ee
:1049700001003200240005000600070001003a0093
:10498000440005000408050002000700f9ff3a0092
:10499000140005006f8261008102700085027100c1
:1049a0008502720000000600800078005002be0000
:1049b0005003be004439de00f700b200f37f200050
:1049c00003016100090032000218e10016003a00fc
:1049d0008501720083017300838173000008200049
:1049e00015003a00400020001300370085017200d6
:1049f000830173008381730005003a0004a8be00a0
:104a000006a8be00100020000b0037000201e900dc
:104a10000402420085824a0006034b0087834b0054
:104a20000748a300f9ff32000740a00004a8be0019
:104a300006a8be0020002000800098009200980088
:104a400000000600881f7800030478000300e000df
:104a500007003d0060001000e080180060011900b0
:104a6000e081190002003b0001f02d000300370037
:104a70000400070008f0a70003f0a0004f0478002e
:104a800000000600889fbe000082700004027100d2
:104a9000048271002400320036432000c50020004b
:104aa0008383cf000a0039000541b1008283cf0023
:104ab000070039000541b1008183cf0004003900af
:104ac0000541b1008083cf00010039000541b100ec
:104ad00085c353006022b800120032000a003b0078
:104ae00084827200610260008301d1000281d300e0
:104af0008180d3000080d3000603e8008743e800ec
:104b0000f7ff3a00070037000000400081804800ae
:104b100002014900838149000603e9008743e90057
:104b2000f9ff3a0067fe07004f04be0000000600d0
:020000040000fa
:104b30007200000045450000475f0000465000003d
:104b4000315f0000463300005f3600003053000044
:104b50005f4600004c4f0000415400002e740000de
:0c4b6000787400000025000066000000d2
:020000040000fa
:104b6c002200fa00889fbe008a1f7800700f980000
:104b7c00011798000010200020079800c0032000a7
:104b8c00300798002e0290003e0390000400e900cc
:104b9c0040079800040078004205dd000600e9009b
:104bac0050079800040078006101b80006007800f6
:104bbc008000eb00009cb90088027800028cb900e0
:104bcc0088037800878242000010b800818242007e
:104bdc0085007800040078006101b80006007800b8
:104bec008000eb00009cb90088027800028cb900b0
:104bfc0088037800878242000010b800818242004e
:104c0c008500780084007800060078000088b900e0
:104c1c00000078004200dd000000e8000000e80021
:104c2c000000d100800040000f0078008187470011
:104c3c000000e8000000d100000040006007980070
:104c4c002e0390003e009000000040008002e9001e
:104c5c000600e900700798000500e900000f9800b5
:104c6c00060078006101b800050078008000eb00b8
:104c7c00009cb90008027800028cb9008803780007
:104c8c00070242000010b8000102420084007800c4
:104c9c00060078006101b800050078008000eb0088
:104cac00009cb90008027800028cb90088037800d7
:104cbc00070242000010b800010242008400780094
:104ccc0086007800050078000088b90000007800a4
:104cdc004200dd000000e8000000e8000000d10008
:104cec00800040000f007800818747000000e8003a
:104cfc000000d10000004000100f98002e00900022
:104d0c008000e900210f98004200dd000000e8005f
:104d1c000000e8000000d100800040000f00780087
:104d2c00818747000000e8000000d100000040002f
:104d3c00300f9800213a800000fe2f0000806000a8
:104d4c00203a8800213a8000f0f32f0000806000a8
:104d5c00203a8800313a800000e02f00008060008b
:104d6c000010a000303a8800a1010700b001070034
:104d7c00e7010700a5010700d1010700dd010700cd
:104d8c00100020000016880020002000401688002b
:104d9c001000200050168800113a8000f00b200003
:104dac000081600060042000710520002374200045
:104dbc00804978008149780082497800013680006a
:104dcc0000fe2f00008060003000b3000036880029
:104ddc00103a8000000178000260a00060042000fe
:104dec0071052000237420008049780081497800e7
:104dfc008249780081592a00a0592a00a2f00700a4
:104e0c00400f98000000eb00000f78000000eb0052
:104e1c00100798001e0037007a004700801f7800aa
:104e2c00305b2a00801f78004e08900015f10700b7
:104e3c00e48757009e0090002e009000808f500059
:104e4c0003003a000000eb00100798001e0fe8006a
:104e5c008a01d1005e089000ee089000ee029000ee
:104e6c001e0290001e0178000299b9000201780020
:104e7c008401420002814100020141000281420092
:104e8c000089be001e0090000000e800100798008a
:104e9c004e0890003ef007000000e000deff3200fc
:104eac004e089000edef070040408000e20f5000ec
:104ebc0008003a000040eb00d100070010c0b3001e
:104ecc00cf0007009780a80095a0a9009500a90025
:0c4edc000828ef0000000000f3ff370082
:020000040000fa
:104ee800001500001c040000000000000040000045
:104ef8000004000000000000080800000400000092
:104f08000000000000440000000200000000000053
:104f180000460000000200000000000072090000c6
:104f28000800000000000000000800000800000061
:104f380000000000000c0000000900000000000054
:104f4800000a000000020000000000000c08000039
:104f580004000000000000008a09000002000000b0
:104f68000000000010080000880000000200000097
:104f7800010000000036080037083600083608002f
:104f8800360836000826080000000000000000006f
:104f98000000000000000000000000000000000009
:104fa800000000000002080001015e00085f080020
:104fb8005e085e00085e08005e084e0008000000fb
:104fc80000000000000000000000000000000000d9
:104fd80000000000000000000000020008020200bb
:104fe8008608870008860800860886000886080064
:104ff800760800000000000000000000000000002b
:105008000000000000000000000000000000000098
:1050180010083800086008000000000000000000c8
:1050280000000000000000007a09000008000000ed
:105038000200000000000000000100000200000063
:10504800660900000c00000002000000686a6c009d
:10505800747a4c00006343006e5b00008c0900000a
:1050680002000000020000000400000082090000a5
:1050780004000000000000004e09000018000000b5
:105088000200000030313200333435003637380042
:10509800396162006364650066414200434445002b
:1050a800460000000e090000200000000200000079
:1050b8000000000000000000b041000000000000f7
:1050c80000007000430000000000d000126341009f
:1050d800000090001ec4bc00d6420000e00800009a
:1050e8002e00000002000000000102000304050079
:1050f80006070800090a0b000c0d0e000f0a0b002a
:105108000c0d0e000f3031003233340035363700c5
:1051180038396100626364006566410042434400b7
:105128004546000000000000980800004800000004
:105138000200000000000000000000002440000001
:1051480000000000000059004000000000000000be
:1051580088c34000000000000084d7009741000089
:1051680080e0370079c3410043176e0005b5b500ec
:10517800b8934600f5f93f00e9034f00384d320077
:105188001d30f900487782005a3cbf00737fdd006c
:105198004f1575002e0900002000000002000000d5
:1051a8000a000000006400000000e800030000009e
:1051b8001027000000a0860001004000420f0000f8
:1051c800809698000000e100f505000086090000bf
:1051d80004000000000000008e090000020000002a
:1051e8000200000001000000900900000200000019
:0851f8000000000000000000af
:020000040000fa
:105200000000fa000080fa00000006000400fa0026
:10521000204798000000eb00000f78000000eb0032
:10522000000f78006f0037002e4090000004e0006f
:1052300036003a001e007800800040000050210037
:1052400000804000100078000000e0001a003d00df
:105250001e007800800040000050210000804000c7
:105260001000780000f0a1000080ea00c680de0097
:10527000f01f200000806000cf80de0026ee0700d7
:10528000604088007140880060408000714080006c
:1052900001f0a2003233230033b5230021ee0700d2
:1052a0001e017800c211dd0002c020000281410011
:1052b0000089be004a0037001e00780080004000d0
:1052c0000050210000804000100078004680de0081
:1052d000cf80de0010ee070060408800714088003b
:1052e00060408000714080003233230033b52300da
:1052f0000cee07001e017800c211dd0002c0200084
:10530000028141000089be00350037001e00780090
:1053100080004000007021000080400010007800f4
:105320000000e0001a003d001e00780080004000f0
:1053300000702100008040001000780000f0a10003
:105340000080ea00c680de00f01f200000806000c0
:10535000cf80de00f0ed07006040880071408800db
:10536000604080007140800001f0a20032332300d1
:1053700033b52300ebed07001e017800c211dd00fc
:1053800002002100028141000089be0014003700a4
:105390001e00780080004000007021000080400066
:1053a000100078004680de00cf80de00daed0700d6
:1053b000604088007140880060408000714080003b
:1053c0003233230033b52300d6ed07001e017800e9
:1053d000c211dd0002002100028141000089be00ef
:1053e0001e0fe800f00f20009e007800808f500014
:1053f0008dff34000080fa00000006000000fa0073
:105400000a21ef001221ef00a0832300700888001a
:105410000080fa00000006000000fa001821ef00ea
:105420002021ef0050072700e00888008780a900ae
:1054300021e1a8000080fa00000006000000fa0048
:105440002823ef002603a8002703a80060ff2f00f1
:10545000601988002143a9002063a8002043a90007
:1054600011198000f0ff21000080600010198800f1
:1054700030c0b30024e3b70011198000f0cf2f0033
:10548000008060000080a0001019880001198000d1
:10549000f0f12f00008060000060a000001988007b
:1054a00021198000f00f2e000080600000b0a000e5
:1054b00020198800011980000030200001007000d0
:1054c000001988000080fa00000006000000fa00c1
:1054d00085a0a9008500a9008580a900510580004c
:1054e00000072000010070005005880095a0a8006a
:1054f0009500a8009580a8000080fa000000060032
:105500000000fa0021e3a80013e1a80021e2a800ae
:105510002342a8000080fa00000006000000fa0004
:1055200020a2a80050002000401188000080fa004e
:045530000000060071
:020000040000fa
:0200000401f009
:04000000ffffff00ff
:020000040000fa
:0200000401f009
:04000400ffffff00fb
:020000040000fa
:0200000401f009
:04000800fbffff00fb
:020000040000fa
:0200000401f009
:04000c00810000006f
:020000040000fa
:0200000401f009
:04001000a300000049
:020000040000fa
:0200000401f009
:040014005f00000089
:020000040000fa
:0200000401f009
