:020000040000fa
:080000000002040000000000f2
:020000040000fa
:04000800da03000017
:020000040000fa
:04000c00da03000013
:020000040000fa
:04001000da0300000f
:020000040000fa
:04001400da0300000b
:020000040000fa
:04001800da03000007
:020000040000fa
:04001c00da03000003
:020000040000fa
:04002000da030000ff
:020000040000fa
:04002400da030000fb
:020000040000fa
:04002800da030000f7
:020000040000fa
:04002c00da030000f3
:020000040000fa
:04003000da030000ef
:020000040000fa
:04003400da030000eb
:020000040000fa
:04003800da030000e7
:020000040000fa
:04003c00da030000e3
:020000040000fa
:04004000da030000df
:020000040000fa
:04004400da030000db
:020000040000fa
:04004800560300005b
:020000040000fa
:04004c00da030000d3
:020000040000fa
:04005000da030000cf
:020000040000fa
:04005400da030000cb
:020000040000fa
:04005800b6030000eb
:020000040000fa
:04005c00c8020000d6
:020000040000fa
:04006000da030000bf
:020000040000fa
:04006400da030000bb
:020000040000fa
:04006800da030000b7
:020000040000fa
:04006c00da030000b3
:020000040000fa
:04007000da030000af
:020000040000fa
:04007400da030000ab
:020000040000fa
:04007800da030000a7
:020000040000fa
:04007c00da030000a3
:020000040000fa
:04008000da0300009f
:020000040000fa
:04008400da0300009b
:020000040000fa
:04008800da03000097
:020000040000fa
:04008c00da03000093
:020000040000fa
:04009000da0300008f
:020000040000fa
:04009400da0300008b
:020000040000fa
:040098006003000001
:020000040000fa
:04009c00da03000083
:020000040000fa
:0400a000da0300007f
:020000040000fa
:0400a400da0300007b
:020000040000fa
:0400a800da03000077
:020000040000fa
:0400ac00da03000073
:020000040000fa
:0400b000da0300006f
:020000040000fa
:0400b400da0300006b
:020000040000fa
:0400b800da03000067
:020000040000fa
:0400bc00da03000063
:020000040000fa
:0400c000da0300005f
:020000040000fa
:0400c400da0300005b
:020000040000fa
:0400c800da03000057
:020000040000fa
:0400cc00da03000053
:020000040000fa
:0400d000da0300004f
:020000040000fa
:0400d400da0300004b
:020000040000fa
:0400d800da03000047
:020000040000fa
:0400dc00da03000043
:020000040000fa
:0400e000da0300003f
:020000040000fa
:0400e400da0300003b
:020000040000fa
:0400e800da03000037
:020000040000fa
:0400ec00da03000033
:020000040000fa
:0400f000da0300002f
:020000040000fa
:0400f400da0300002b
:020000040000fa
:0400f800da03000027
:020000040000fa
:0400fc00da03000023
:020000040000fa
:04010000da0300001e
:020000040000fa
:04010400da0300001a
:020000040000fa
:04010800da03000016
:020000040000fa
:04010c00da03000012
:020000040000fa
:04011000da0300000e
:020000040000fa
:04011400da0300000a
:020000040000fa
:04011800da03000006
:020000040000fa
:04011c00da03000002
:020000040000fa
:04012000da030000fe
:020000040000fa
:04012400da030000fa
:020000040000fa
:04012800da030000f6
:020000040000fa
:04012c00da030000f2
:020000040000fa
:04013000da030000ee
:020000040000fa
:04013400da030000ea
:020000040000fa
:04013800da030000e6
:020000040000fa
:04013c00da030000e2
:020000040000fa
:04014000da030000de
:020000040000fa
:04014400da030000da
:020000040000fa
:04014800da030000d6
:020000040000fa
:04014c00da030000d2
:020000040000fa
:04015000da030000ce
:020000040000fa
:04015400da030000ca
:020000040000fa
:04015800da030000c6
:020000040000fa
:04015c00da030000c2
:020000040000fa
:04016000da030000be
:020000040000fa
:04016400da030000ba
:020000040000fa
:04020800da03000015
:020000040000fa
:04020c00da03000011
:020000040000fa
:04021000da0300000d
:020000040000fa
:04021400da03000009
:020000040000fa
:04021800da03000005
:020000040000fa
:04021c00da03000001
:020000040000fa
:04022000da030000fd
:020000040000fa
:04022400da030000f9
:020000040000fa
:04022800da030000f5
:020000040000fa
:04022c00da030000f1
:020000040000fa
:04023000da030000ed
:020000040000fa
:04023400da030000e9
:020000040000fa
:04023800da030000e5
:020000040000fa
:04023c00da030000e1
:020000040000fa
:04024000da030000dd
:020000040000fa
:04024400da030000d9
:020000040000fa
:040248005603000059
:020000040000fa
:04024c00da030000d1
:020000040000fa
:04025000da030000cd
:020000040000fa
:04025400da030000c9
:020000040000fa
:04025800b6030000e9
:020000040000fa
:04025c00c8020000d4
:020000040000fa
:04026000da030000bd
:020000040000fa
:04026400da030000b9
:020000040000fa
:04026800da030000b5
:020000040000fa
:04026c00da030000b1
:020000040000fa
:04027000da030000ad
:020000040000fa
:04027400da030000a9
:020000040000fa
:04027800da030000a5
:020000040000fa
:04027c00da030000a1
:020000040000fa
:04028000da0300009d
:020000040000fa
:04028400da03000099
:020000040000fa
:04028800da03000095
:020000040000fa
:04028c00da03000091
:020000040000fa
:04029000da0300008d
:020000040000fa
:04029400da03000089
:020000040000fa
:0402980060030000ff
:020000040000fa
:04029c00da03000081
:020000040000fa
:0402a000da0300007d
:020000040000fa
:0402a400da03000079
:020000040000fa
:0402a800da03000075
:020000040000fa
:0402ac00da03000071
:020000040000fa
:0402b000da0300006d
:020000040000fa
:0402b400da03000069
:020000040000fa
:0402b800da03000065
:020000040000fa
:0402bc00da03000061
:020000040000fa
:0402c000da0300005d
:020000040000fa
:0402c400da03000059
:020000040000fa
:0402c800da03000055
:020000040000fa
:0402cc00da03000051
:020000040000fa
:0402d000da0300004d
:020000040000fa
:0402d400da03000049
:020000040000fa
:0402d800da03000045
:020000040000fa
:0402dc00da03000041
:020000040000fa
:0402e000da0300003d
:020000040000fa
:0402e400da03000039
:020000040000fa
:0402e800da03000035
:020000040000fa
:0402ec00da03000031
:020000040000fa
:0402f000da0300002d
:020000040000fa
:0402f400da03000029
:020000040000fa
:0402f800da03000025
:020000040000fa
:0402fc00da03000021
:020000040000fa
:04030000da0300001c
:020000040000fa
:04030400da03000018
:020000040000fa
:04030800da03000014
:020000040000fa
:04030c00da03000010
:020000040000fa
:04031000da0300000c
:020000040000fa
:04031400da03000008
:020000040000fa
:04031800da03000004
:020000040000fa
:04031c00da03000000
:020000040000fa
:04032000da030000fc
:020000040000fa
:04032400da030000f8
:020000040000fa
:04032800da030000f4
:020000040000fa
:04032c00da030000f0
:020000040000fa
:04033000da030000ec
:020000040000fa
:04033400da030000e8
:020000040000fa
:04033800da030000e4
:020000040000fa
:04033c00da030000e0
:020000040000fa
:04034000da030000dc
:020000040000fa
:04034400da030000d8
:020000040000fa
:04034800da030000d4
:020000040000fa
:04034c00da030000d0
:020000040000fa
:04035000da030000cc
:020000040000fa
:04035400da030000c8
:020000040000fa
:04035800da030000c4
:020000040000fa
:04035c00da030000c0
:020000040000fa
:04036000da030000bc
:020000040000fa
:04036400da030000b8
:020000040000fa
:100400008f4121000eff23000e0188000000000034
:10041000000020000000e000020032000001200087
:100420002002880014000700630107000000e000bc
:1004300003003a0080b520000100200002003700d0
:100440000000200001002000810f70000100320038
:1004500014000700000020000000e000020032004d
:100460000000020000000000120a0200000000006c
:100470000040da000000fe004440a90000a0200077
:100480000000e0000300320000002000a00188000e
:100490004440a800000006008a1f78008b1f7800e7
:1004a0000000060091018800800478000000eb0045
:1004b0001a003700e284440032a0b4009905ba0063
:1004c000e284440032a0b4009906ba00e2844400f9
:1004d00032a0b4000006eb00476fde00fd07b2005b
:1004e000636ce10003003a00ebff07000000eb0043
:1004f0000a003700606ce10004003a00005deb0088
:100500008b05e900fdff3e00040037006168e10053
:10051000010032000086eb000b00070019c7ba008b
:100520001905ba000e04e00003003a000a00e000da
:10053000e0ff3a0000000600fe07b2009e018800be
:100540008a047800f5ff3700395dba008b05e900b1
:100550000c003200295dba008b05e900080032006a
:100560000c00e00003003a00e284440032a0b40032
:10057000f5ff370019ddba008b05e900faff3a00f4
:100580008904e800e184440032a0b40000000600c1
:10059000809fbe00829fbe000000fa000ec8bf0010
:1005a0000000fb000000e00003003200e10f5000fb
:1005b0001a0032003200370051408000f00f200056
:1005c000808f50000b003a005040800001188000de
:1005d0004201dd0000002400000041000108780015
:1005e000904080000000e800904088000a28ef005a
:1005f000230037005040800001188000010178007e
:10060000c201dd00010024008180410082087800e1
:100610000000e80050408800190037006140800069
:10062000f00f2000808f50000b003a0060408000e7
:10063000011880000001400000402400000041003b
:1006400001087800904080000000e8009040880099
:100650000c28ef000a00370060408000011880007d
:1006600001017800800140000140240081804100a8
:10067000820878000000e800604088000000000068
:100680000ec8bf000040e8000ee8b7000ec8bf006b
:10069000614060000ee8b70085a0a9000080fa0064
:1006a0004f01be004f00be00004006000000fa00ef
:1006b0002023a8008500a9000080fa000040060061
:1006c000809fbe000000fa00a140800000102000c2
:1006d000808f500003003a009780a9001428ef0093
:1006e0001e00370081012100a04080004200dd0093
:1006f000008040008040880080408000904078006a
:100700008180fb00211188000000e8008040880003
:1007100080408000904078008180fb00211188009b
:100720000000e80080408800804080009040780011
:100730008180fb00211188000000e80080408800d3
:1007400080408000104078000080fb00201188006d
:10075000a04080000000e800a04088008780a90039
:100760000080fa004f00be0000400600809fbe00df
:100770000000fa008580a900601680004500de00b8
:100780006140600000c0ea00614060000080fb0042
:10079000610060004500dd00611680000150a1008d
:1007a00001007000601688000080fa004f00be0053
:1007b000004006000040da000000fe00b1027800b0
:1007c0000009eb000002e90007003400b1017800e5
:1007d0000328e10002003c00830278000409500075
:1007e0000402e900f9ff3c00050078000000060063
:1007f000889fbe008a9fbe008c9fbe008e1f78001f
:100800004400f800070f2000270288003400f80099
:10081000811f78000f07780007f02f000338e100f0
:1008200004003200270280004700b300270288003e
:10083000a301880019002000804cdd001300200077
:1008400002047800800678008904d100424edd0061
:10085000010578000302e900048008001700000089
:100860008a0546004218dd000902e90004800800fc
:1008700010000000000000004620c3003b025200b0
:10088000df35c100080440001381c200ab82520072
:10089000264dc5003e85c400bb00cd00bb80cd0009
:1008a0003a00ca002a80ca000700c9000580c900b2
:1008b000ba00cd00ba80cd000a05460002047800d7
:1008c0008301d0008d06e900dfff3c008e07780031
:1008d0004f0078003400f9004400f9004f07780019
:1008e0004f06be004f05be004f04be0000000600cc
:1008f0004600f8005000f800022020003202880074
:1009000002002800130020008019dd000281710020
:100910008202880001007800010178002600200092
:10092000470020008301e900038008000700000061
:100930000110e100040034001102be0092087800aa
:10094000e2307b000489be008780400012197800e5
:100950005000f9004600f90000000600821f7800f0
:10096000849fbe008a1f78004400f800040f200016
:1009700024028800010578000601c3000080e90018
:100980000080080003000000000000000505f000e2
:100990000401f1003200cd000505f0001001f10066
:1009a0003200cd004400f9004f0578004f02be0030
:1009b0004f007800000006000000050003f0a200d0
:1009c000889fbe008a9fbe008c1f7800c60007006b
:1009d000cd0033006450e1004f0032006420e1009c
:1009e0005200320003826c0007003b000905d00072
:1009f0000306d000820f54000c065d00020039008f
:100a000002003200890178000306780085825500d3
:100a100004003d000003fd008103fd008502ea00a3
:100a20008b854200840f720002003b0060001000c2
:100a3000e08018006011b8000005eb007a28e100a2
:100a40000a00390006007800c75ddd00f707b20034
:100a5000878075002d003700828171000a017800bf
:100a6000610560008180d1000080d3008502e9002b
:100a7000f9ff3b00060440008784480002003b0069
:100a800060041400e0841c000988a3000700320001
:100a90008a81710082817100610164008904d10042
:100aa0000884d3008b05e800170037000978a300fd
:100ab00013003a000b00e000130034008b05e9003e
:100ac0000804440089844c000a4474000978a30097
:100ad0000d003a000b00e000070034008b05e90030
:100ae0000804440089844c0001003a000b002000f7
:100af0000978a300f7ff32000001eb000200370085
:100b0000828171000a017800510007000cf0a700f3
:100b100001f0a000850037006420e10002003a00e7
:100b2000838f6c00850033000801be000200be0008
:100b30007e0037000081eb00b7003700889fbe00c1
:100b40008a9fbe008c1f7800670007006e0033008c
:100b500003866c006450e1002e0032006420e10046
:100b6000330032006150e1002f0032006120e100cb
:100b70003100320085855500eb07b00009002000e8
:100b800008042000050037000804440089844c0054
:100b90000a0031000603430087834b000001530025
:100ba00081815b00f8ff33000203be000800a00053
:100bb0000804440089844c00f6ff3900c639dd0082
:100bc0008301730001003200130020008904d1006a
:100bd0000884d3000998a300050032000800a7008c
:100be0000300a0008904d1000884d3008b05e8002d
:100bf0008904d1000884d3000001eb000281d200f7
:100c00001300070001f0a1000cf0a70001f0a00004
:100c1000460037006420e100480032000801be00b1
:100c20000200be00f7ff37006120e1004300320000
:100c30006000b800f3ff37000000200001f8270033
:100c4000f0ff37004f89de00820178003501370060
:100c500081002000618055000b003d000b0020004a
:100c600061fe2f000100e1001d003400828171004f
:100c7000610164008904d1000884d3000000e80009
:100c8000faff3a0071002000610064000300700068
:100c9000020060000900320061044400e0844c005e
:100ca0000988a500050032008b05e8006808e1000e
:100cb00002003a008904d1000884d300f20f20001a
:100cc0000258e10005003d00c75ddd00f907b200f4
:100cd0008980750008007800000006000bf82700e6
:100ce0008b007800000005000004be009d01070095
:100cf0000003be000405be000200be00990107000b
:100d0000844f7500000006000200be006450e10040
:100d1000050036006420e100020036000968a300e7
:100d200001003a000800be000160a0004f067800f4
:100d30004f05be004f04be0000000600f0ff2f006c
:100d4000f1ff2700f9ff3700889fbe008a9fbe0091
:100d50008c1f7800e4ff0700ebff330003866c0074
:100d60006450e100240032006420e10027003200da
:100d70006150e100220032006120e10021003200d8
:100d80008b854200eb07b1000134b800003ab8008f
:100d90000804420089844a00013ab8000030b800d3
:100da0008880400009014a00040033000000400030
:100db00081804800020149008b05e900c909dd0076
:100dc000830170000100320013002000c814de000f
:100dd0004814dd004709de001200b200c808de003a
:100de000088470009aff070001f0a1000cf0a70032
:100df00001f0a000cdff37006120e100cfff3200fd
:100e00000801be000200be00f7ff37006150e1009c
:100e1000fcff3a00c9ff3700889fbe008a9fbe00d2
:100e20008c9fbe00820578000004be004d010700c3
:100e30000800be006420e1000700390002003a000b
:100e4000f1ff2700f0ff2f000160a0001202200038
:100e5000b2408800550037006120e10003003a00ed
:100e60000b00a70001f823005000370001f0a1009b
:100e70000200210093642400870007000800be00e0
:100e800004003500b2fd2000930c2400e4000700ac
:100e90000004be000005eb000b00a6004f0dde00b5
:100ea00001f0a1000004be0032982f0023ea2300c5
:100eb000a5ff07000001eb0003f023000b00a700d3
:100ec00003f82300befe0700750007000000a7001e
:100ed0000a00a2005bff07000b00e00003003200e5
:100ee0000200200003f02300b4fe070001f0a2007e
:100ef0000006be00020020009304240092ff0700b9
:100f00000801be00aefe0700809fbe000c00be00c0
:100f100022a22a00d3a723008bff07004f01be00a7
:100f2000a7fe07000004be0001f0a100020020009f
:100f300003982300580007000800be001900350080
:100f40000001be0080ff07000006be00b2c52900f8
:100f5000e36223007cff070022222b00f3942b0086
:100f600097fe07000c01be0077ff0700e273280020
:100f700083c0230092fe07000c01be0072ff070031
:100f800042aa2a00a3e22b008dfe07000c01be003e
:100f90006dff07000801be006bff07000801be00df
:100fa00087fe07000a00a70001f0a2004f06be005e
:100fb0004f05be004f04be00000006000001eb001c
:100fc00095ff3700889fbe008a9fbe008c1f780067
:100fd0000004be00e30007000478a30026003a00e6
:100fe0006120e1002500320009f8a30025003a0045
:100ff0006420e10021003200f507b1000508a300dc
:101000000200320000004000818048006044b800c7
:1010100003102000020020000000400081804800f2
:101020000805440089854c000a0541008b8549006c
:101030000a0550008b855800030033000a00be00eb
:1010400002047400838474008301d1000281d30000
:10105000830f7100f0ff3a008904d1000884d300a7
:101060006001490082017800c1adde00fb07b000dd
:10107000f7fe07002dff37000960a0000800be0042
:101080002aff370012022000b2408800f0ff2f0034
:10109000f1ff270025ff370014002000c6003700ad
:1010a0000001be00af0007000470a70003f0a1001c
:1010b0006509b100160032000d0035006828e10016
:1010c00006003500f0ff2f00f1ff27000300e000cd
:1010d00013003b0001002800000005000000400054
:1010e000818048008502e900fcff3a0008003700d3
:1010f000f88f420002003c008000eb000000050079
:101100008100d1000080d3008502e800fcff3a0096
:101110000300e00002003b0060001000e0801800c7
:1011200000000600881f7800030478000300e00038
:1011300007003d0060001000e08018006001190009
:10114000e081190002003b0001f02d000300370090
:101150000400070008f0a70001f0a0004f04780089
:1011600000000600889fbe008a9fbe0000827000bb
:101170000402710004827100260032000004be00e7
:101180000200be006011b8006b092000950220002b
:101190000182cf000a0039000541b1000082cf0072
:1011a000070039000541b1000982cf000400390071
:1011b0000541b1000882cf00010039000541b100ae
:1011c00005425200120032000a003b008281710089
:1011d000610164008100d1000080d3008984d300c4
:1011e0000884d3008b05e8000442e800f7ff3a00ca
:1011f000070037000804440089844c0000004800c0
:10120000818048008b05e9000442e900f9ff3a00bb
:101210008ffe07004f05be004f04be000000060011
:101220000400200000003700889fbe008a9fbe0097
:101230008c1f78004f26dd00abfe0700b2fe3300a6
:101240006120e100430032006250e10041003e00b5
:101250003e0039006420e1003c0032000582550068
:101260000f003b000402e80038003a00800f5300f2
:10127000818f5b00350034000800be0003f0a10040
:1012800001f0a60003f0a0000cf0a700ccfd0700c1
:10129000a6fe37000603430087834b000c4646003a
:1012a0000005530081855b00020033000a03be0085
:1012b0000c00a0000402e900f6ff3b008505780061
:1012c0000602430087824b0004003a006000b80029
:1012d00009f0a70001f0a00094fe370000025200c0
:1012e00081825a000704e000040033000603430033
:1012f00087834b008b05e900faff3700090578006a
:101300000604be000203be006011b80050fe0700d4
:10131000e00f5200e08f5a000700350002003c0049
:101320000c08a300040032000601be0003f0a00078
:101330000cf0a700a2fd07000a85680001f0a100db
:101340000af0a70001f0a00078fe37000800be00f8
:1013500076fe3700100220000cf0a600b040880096
:1013600076fe3700c70ade00f107b200f50fb200c3
:1013700008003200e1cf4200020032000170a000fc
:1013800024000500810f70000100320004080500f0
:1013900044000500810f700002003a0014000500af
:1013a0008502e9000000400081c04800fcff3b00ce
:1013b0000170a00024000500889fbe008a9fbe0027
:1013c000841f780048fe07004f00780011003300aa
:1013d000f0ff2f00838f6c0006003b0004056500c2
:1013e0000a00a7000800370009f0a600100020003e
:1013f00008003700820f5400838f5c00030039001f
:101400001000200001003e000000200009f0a700ad
:101410000000ea004f05be004f04be000000e000df
:0414200000000600c2
:020000040000fa
:101424000400fa00000f780011079800213a8000a8
:1014340000fe2f0000806000203a8800213a8000de
:10144400f0f32f0000806000203a8800313a8000d9
:1014540000e02f00008060006000b300303a880094
:1014640044000700530007008a00070048000700f3
:101474007400070080000700100020000016880098
:10148400200020004016880010002000501688001c
:10149400113a8000f00b20000081600060042000fd
:1014a4007105200023742000804978008149780068
:1014b400824978000136800000fe2f000080600021
:1014c4003000b30000368800103a80000001780034
:1014d4000260a00060042000710520002374200035
:1014e40080497800814978008249780001003700fa
:1014f4000000000090408000e20f5000fcff3a0022
:1015040095a0a9009500a900601680004700de00a0
:101514006140600000c0ea00614060000080fb00a0
:10152400610060004700dd00611680000170a100c9
:101534000100700060168800b00507006016800086
:101544004700de006140600000c0ea0061406000c6
:101554000080fb00610060004700dd006116800030
:101564000170a100010070006016880000000000f6
:10157400feff37000000fa000a21ef001221ef00fd
:10158400a0832300700888000080fa000000060091
:101594000000fa001821ef002021ef00a00e2e0019
:1015a400e00888008780a90021e1a8000080fa00f3
:1015b400000006000000fa002823ef002603a8001c
:1015c4002703a80060ff2f00601988002143a900a9
:1015d4002063a8002043a90011198000f0ff210016
:1015e400008060001019880030c0b30024e3b70005
:1015f40011198000f0cf2f00008060000080a0004f
:101604001019880001198000f0f12f00008060009b
:101614000060a0000019880021198000f00f2e003e
:101624000080600000b0a00020198800011980002b
:101634000030200001007000001988000080fa00ca
:10164400000006000000fa0085a0a9008500a9009a
:101654008580a9005105800000072000010070006a
:101664005005880095a0a8009500a8009580a800c2
:101674000080fa00000006000000fa0021e3a80040
:1016840013e1a80021e2a8002342a8000080fa0088
:10169400000006000000fa0020a2a800b00020000c
:0c16a400401188000080fa0000000600e1
:020000040000fa
:1016b00000440000000200000000000000400000a4
:1016c00000040000000000001208000004000000f8
:1016d000000000000a0800000800000000000000f0
:1016e00018080000000c00000000000000080000c6
:1016f0000a000000000000001608000002000000c0
:081700000000000000000000e1
:020000040000fa
:101800002063000031420000f0160000483e000056
:10181000f0160000483e0000f0160000483e0000b0
:10182000f0160000483e0000f0160000483e0000a0
:10183000b30c0000e13f0000910f00007a3f000070
:101840003789000009c00000728a000022c0000031
:10185000b30c0000e13f0000f54a0000b540000075
:10186000166a00001f410000014d0000ce4000003c
:10187000ac8b00003bc00000986e00006ac1000005
:10188000e17a0000adc1000057db0000b6c10000e6
:1018900030bb0000b3c10000ac9c0000c9c1000017
:1018a000ba5a0000aac10000f46c000051c1000047
:1018b000166a00001fc10000014d0000cec00000ec
:1018c000910f00007a3f0000ba4900009c400000e0
:1018d000d9ce0000f34000002428000000410000a1
:1018e0005f29000019410000b3ea00002b4100000d
:1018f000ba6b000038410000a52c00004b410000ed
:1019000065aa000025410000014d0000ce40000006
:101910009fcd0000da400000e78c0000544000003a
:10192000910f00007abf0000a60a0000163f0000d9
:1019300080480000834000003d0a0000af3f0000e7
:101940003d0a0000af3f0000378900000940000059
:10195000f0160000483e0000228e00006dc000001e
:101960001dc900008fc00000f54a0000b5c000008e
:10197000014d0000cec00000ac8b00003bc0000059
:10198000728a000022c000008048000083c000006e
:101990003789000009c00000ac8b00003b4000000c
:1019a000804800008340000064cc0000c14000007b
:1019b000b3ea00002b41000045d80000844100003c
:1019c000e6ae000070410000faed00005d4100004d
:1019d0001db800008141000065990000974100009a
:1019e0005e3a0000a7410000ba5a0000aa41000078
:1019f000ef3800008e41000057ec00004441000029
:101a0000166a00001f410000d9ce0000f34000001c
:101a1000728a000022400000b30c0000e1bf000009
:101a20001dc900008fc000005f29000019c100001f
:101a3000faed00005dc1000010e9000012c10000d5
:101a4000228e00006dc000003d0a0000afbf000004
:101a5000228e00006d40000065aa000025410000b4
:101a6000e6ae00007041000010fa0000a041000046
:101a7000023c0000c0410000ba5a0000aa41000028
:101a80005e3a0000a741000030bb0000b3410000f7
:101a9000c1b900009a410000e6ae000070410000ac
:101aa000986e00006a410000492e00006441000069
:101ab00065aa00002541000064cc0000c140000080
:101ac000ac8b00003b4000003d0a0000afbf0000af
:101ad000d9ce0000f3c00000166a00001fc100004c
:101ae0002428000000c100001dc900008fc00000b4
:101af000f0160000483e0000378900000940000051
:101b0000f0160000483e0000378900000940000040
:101b10003c4e0000e7400000022b00003241000074
:101b200057ec0000444100001db800008141000056
:101b3000ef3800008e410000f46c000051410000bd
:101b400010e900001241000064cc0000c140000018
:101b50003789000009400000a60a000016bf0000f7
:101b6000ac8b00003bc000001dc900008fc000000e
:101b70007368000006c10000ba6b000038c10000a5
:101b8000492e000064c100005e3a0000a7c10000b9
:101b900057db0000b6c10000c1b900009ac10000c7
:101ba000ba5a0000aac10000371a0000a4c1000000
:101bb000986e00006ac1000010e9000012c1000028
:101bc00065aa000025c1000008ac00003ec100006d
:101bd000faed00005dc10000ec2f00007dc10000a7
:101be000e6ae000070c10000f46c000051c10000be
:101bf000acad000057c10000e6ae000070c10000af
:101c00001db8000081c10000ba5a0000aac100003e
:101c1000ac9c0000c9c10000b3fb0000b9c10000ca
:101c2000c81800008bc100001db8000081c1000071
:101c3000c81800008bc10000c1b900009ac10000a3
:101c4000099b0000b0c10000c5fe0000ebc1000010
:101c50006f30000007c200005ca0000005c2000059
:101c60006f30000007c20000ed1e0000efc1000051
:101c7000ac9c0000c9c10000b3fb0000b9c100006a
:101c8000e8d900009dc10000986e00006ac1000004
:101c90006cf8000087c1000030bb0000b3c1000039
:101ca000da1b0000bdc10000099b0000b0c10000ac
:101cb00030bb0000b3c10000099b0000b0c10000b0
:101cc000099b0000b0c10000507c0000c6c10000ac
:101cd000be9f0000fbc100005541000015c200007e
:101ce000a392000029c20000d7e300003dc200001b
:101cf000bcf400004bc200003266000063c200006a
:101d00006d27000076c20000088c000080c2000031
:101d1000e9f700007dc2000033e4000082c2000049
:101d2000855c000088c200007b94000087c2000030
:101d3000e9f700007dc200003f97000074c2000078
:101d40001ed6000061c200007ae5000056c2000005
:101d5000bcf400004bc20000a20500005ac2000003
:101d6000ae3600006bc20000a8d700007ac20000a7
:101d7000fd8700007fc20000a8d700007ac20000e3
:101d8000e9f700007dc20000fd8700007fc200006f
:101d90004674000084c200005a04000086c200009d
:101da000012d000090c20000b21d00009bc2000087
:101db000f00500009fc20000b21d00009bc20000a1
:101dc000bce500009bc20000a85500009ac20000bc
:101dd00022bd000091c20000c34400008cc200007c
:101de0001c1c000082c200008716000068c20000b0
:101df000fe1400004fc20000b0c300003ac2000051
:101e00004ee2000024c200003a52000023c200004b
:101e1000cab200002cc20000a392000029c2000038
:101e20002d21000012c20000aaf1000019c200001a
:101e3000b72200002bc200009c33000039c2000012
:101e40004d55000055c20000bb6700007cc2000079
:101e5000c34400008cc2000060a5000095c20000d1
:101e60001b5e0000a1c20000630e0000a6c20000bd
:101e7000abbe0000aac2000066770000b6c2000038
:101e800052e70000b4c20000e0de0000adc2000076
:101e90001ec70000b1c2000032570000b3c20000ec
:101ea000e9a60000aec20000630e0000a6c200005a
:101eb0001b5e0000a1c20000dd7500009dc2000095
:101ec0003f15000094c20000f76400008fc20000bc
:101ed000364d000093c200000bf5000090c20000d8
:101ee00022bd000091c200003f15000094c2000016
:101ef00060a5000095c20000f00500009fc2000030
:101f000014ff0000b0c20000ec0f0000bfc20000d0
:101f100080a80000c7c2000058b90000d5c2000068
:101f20003dca0000e3c20000b0d20000eac20000d7
:101f3000a60a0000eac20000ce2a0000edc200009e
:101f40007cb20000e7c20000a0690000dac2000015
:101f5000a7c80000cac2000021300000c2c20000b1
:101f600066770000b6c20000bf4e0000acc20000a1
:101f700025260000a2c2000060a5000095c2000056
:101f8000364d000093c2000088c5000098c20000d2
:101f9000dd7500009dc20000c6ad00009cc20000bf
:101fa00039b60000a3c20000bf4e0000acc2000062
:101fb000f36e0000afc200005caf0000b5c20000cd
:101fc00042c00000c3c20000be900000cbc20000af
:101fd0003b610000d3c20000d5890000ddc20000d3
:101fe00034020000e3c20000867a0000e8c200006c
:101ff00023db0000f1c200002da30000f2c20000ac
:102000000ad70000a33d000071200000a43d00009d
:1020100098fb0000a43d00008c690000a63d000074
:1020200040690000a83d00003bfb0000aa3d000005
:10203000eb1d0000ae3d00004ed10000b13d0000a0
:1020400066150000b63d00009fe80000ba3d0000a4
:10205000f94a0000c03d0000693b0000c63d000099
:10206000e1b80000cc3d000055c20000d33d0000a7
:10207000b8560000db3d000000750000e33d0000a5
:10208000971b0000ec3d000073490000f53d000087
:1020900000fd0000fe3d0000999a0000043e000093
:1020a000b6f70000093e0000929500000f3e0000c8
:1020b000de720000153e0000158f00001b3e000080
:1020c000e6e80000213e0000887f0000283e000076
:1020d000f05100002f3e00000f5f0000363e000070
:1020e000dba500003d3e000003250000453e00004a
:1020f0007bdb00004c3e0000f3c70000543e0000b4
:1021000060e900005c3e0000703e0000653e00009b
:10211000d6c500006d3e0000417e0000763e000006
:102120001f6600007f3e0000323e0000843e00003b
:10213000bddf0000883e0000ea9600008d3e0000f2
:102140000f630000923e000085430000973e0000b0
:10215000613700009c3e0000d93d0000a13e000018
:1021600069560000a63e0000e17f0000ab3e000083
:10217000dcb90000b03e00002e030000b63e0000b7
:102180004f5b0000bb3e000033c10000c03e0000ba
:1021900033340000c63e000042b30000cb3e0000d6
:1021a000b83d0000d13e000089d20000d63e0000bc
:1021b0000d710000dc3e000037180000e23e000018
:1021c0001dc70000e73e0000187d0000ed3e000046
:1021d00019390000f33e000059fa0000f83e0000f3
:1021e000cbbf0000fe3e000041440000023f000063
:1021f000ed290000053f000062100000083f0000cc
:102200002bf700000a3f0000d3dd00000d3f000067
:10221000e3c30000103f0000f8a80000133f0000d7
:102220009c8c0000163f0000596e0000193f000012
:10223000a94d00001c3f0000392a00001f3f00008c
:1022400082030000223f00001fd90000243f00004d
:102250008baa0000273f0000707700002a3f000093
:102260004b3f00002d3f0000c5010000303f000043
:1022700049be0000323f000092740000353f00006c
:102280002d240000383f000092cc00003a3f0000af
:102290006e6d00003d3f00005b060000403f000007
:1022a000e6960000423f0000b81e0000453f0000d7
:1022b0005e9d0000473f0000841200004a3f00007e
:1022c000b37d00004c3f000098de00004e3f000050
:1022d000ce340000513f000002800000533f000058
:1022e000cfbf0000553f0000e0f30000573f000063
:1022f000e31b00005a3f0000823700005c3f0000f3
:102300005a4600005e3f000017480000603f000092
:10231000863c0000623f000042230000643f000052
:1023200009fc0000653f000086c60000673f000012
:1023300088820000693f0000a92f00006b3f000069
:10234000c8cd00006c3f0000925c00006e3f0000b2
:10235000c2db00006f3f0000384b0000713f0000ff
:102360009faa0000723f0000c6f90000733f000002
:102370008b380000753f0000aa660000763f000021
:10238000f1830000773f00004f900000783f00008d
:10239000828b0000793f0000587500007a3f0000f2
:1023a000cf4d00007b3f0000a51400007c3f0000e3
:1023b000dac900007c3f00003b6d00007d3f00005b
:1023c000b9fe00007d3f0000317e00007e3f00002e
:1023d00092eb00007e3f0000dc4600007f3f0000e3
:1023e000ef8f00007f3f0000dac600007f3f000053
:1023f0006ceb00007f3f0000b5fd00007f3f000058
:10240000b5fd00007f3f00006ceb00007f3f000047
:10241000dac600007f3f0000ef8f00007f3f000022
:10242000dc4600007f3f000092eb00007e3f000092
:10243000317e00007e3f0000b9fe00007d3f0000bd
:102440003b6d00007d3f0000dac900007c3f0000ca
:10245000a51400007c3f0000cf4d00007b3f000032
:10246000587500007a3f0000828b0000793f000021
:102470004f900000783f0000f1830000773f00009c
:10248000aa660000763f00008b380000753f000010
:10249000c6f90000733f00009faa0000723f0000d1
:1024a000384b0000713f0000c2db00006f3f0000ae
:1024b000925c00006e3f0000c8cd00006c3f000041
:1024c000a92f00006b3f000088820000693f0000d8
:1024d00086c60000673f000009fc0000653f000061
:1024e00042230000643f0000863c0000623f000081
:1024f00017480000603f00005a4600005e3f0000a1
:10250000823700005c3f0000e31b00005a3f0000e0
:10251000e0f30000573f0000cfbf0000553f000030
:1025200002800000533f0000ce340000513f000005
:1025300098de00004e3f0000b37d00004c3f0000dd
:10254000841200004a3f00005e9d0000473f0000eb
:10255000b81e0000453f0000e6960000423f000024
:102560005b060000403f00006e6d00003d3f000034
:1025700092cc00003a3f00002d240000383f0000bc
:1025800092740000353f000049be0000323f000059
:10259000c5010000303f00004b3f00002d3f000010
:1025a000707700002a3f00008baa0000273f000040
:1025b0001fd90000243f000082030000223f0000da
:1025c000392a00001f3f0000a94d00001c3f0000f9
:1025d000596e0000193f00009c8c0000163f00005f
:1025e000f8a80000133f0000e3c30000103f000004
:1025f000d3dd00000d3f00002bf700000a3f000074
:1026000062100000083f0000ed290000053f0000b7
:1026100041440000023f0000cbbf0000fe3e00002e
:1026200059fa0000f83e000019390000f33e00009e
:10263000187d0000ed3e00001dc70000e73e0000d1
:1026400037180000e23e00000d710000dc3e000083
:1026500089d20000d63e0000b83d0000d13e000007
:1026600042b30000cb3e000033340000c63e000001
:1026700033c10000c03e00004f5b0000bb3e0000c5
:102680002e030000b63e0000dcb90000b03e0000a2
:10269000e17f0000ab3e000069560000a63e00004e
:1026a000d93d0000a13e0000613700009c3e0000c3
:1026b00085430000973e00000f630000923e00003b
:1026c000ea9600008d3e0000bddf0000883e00005d
:1026d000323e0000843e00001f6600007f3e000086
:1026e000417e0000763e0000d6c500006d3e000031
:1026f000703e0000653e000060e900005c3e0000a6
:10270000f3c70000543e00007bdb00004c3e00009d
:1027100003250000453e0000dba500003d3e000013
:102720000f5f0000363e0000f05100002f3e000019
:10273000887f0000283e0000e6e80000213e0000ff
:10274000158f00001b3e0000de720000153e0000e9
:10275000929500000f3e0000b6f70000093e000011
:10276000999a0000043e000000fd0000fe3d0000bc
:1027700073490000f53d0000971b0000ec3d000090
:1027800000750000e33d0000b8560000db3d00008e
:1027900055c20000d33d0000e1b80000cc3d000070
:1027a000693b0000c63d0000f94a0000c03d000042
:1027b0009fe80000ba3d000066150000b63d00002d
:1027c0004ed10000b13d0000eb1d0000ae3d000009
:1027d0003bfb0000aa3d000040690000a83d00004e
:1027e0008c690000a63d000098fb0000a43d00009d
:1027f00071200000a43d00000ad70000a33d0000a6
:10280000ff7f000000000000f67f0000dcfc0000fd
:10281000d97f0000b8f90000a77f000095f60000fe
:10282000627f000074f300000a7f000055f0000092
:102830009d7e000038ed00001e7e00001eea0000b4
:102840008a7d000007e70000e47c0000f4e300005c
:102850002a7c0000e6e000005d7b0000dcdd00007b
:102860007d7a0000d8da00008a790000d9d700000c
:1028700084780000e1d400006c770000efd1000004
:102880004276000004cf00000575000021cc000056
:10289000b673000046c900005572000073c6000000
:1028a000e3700000a9c300005f6f0000e9c00000f2
:1028b000ca6d000032be0000246c000085bb000021
:1028c0006e6a0000e3b80000a76800004cb6000084
:1028d000cf660000c0b30000e864000040b1000013
:1028e000f2620000ccae0000ec60000065ac0000bd
:1028f000d75e00000aaa0000b45c0000bda700007b
:10290000825a00007ea50000435800004ca300003e
:10291000f655000029a100009b530000149f000001
:10292000345100000e9d0000c04e0000189b0000b6
:10293000404c000031990000b44900005997000054
:102940001d470000929500007b440000dc930000ce
:10295000ce41000036920000173f0000a190000019
:10296000573c00001d8f00008d390000ab8d00002a
:10297000ba3600004a8c0000df330000fb8a0000fa
:10298000fc300000be890000112e00009488000079
:102990001f2b00007c87000027280000768600009f
:1029a000282500008385000024220000a384000065
:1029b0001a1f0000d68300000b1c00001c830000bf
:1029c000f918000076820000e2150000e3810000a3
:1029d000c812000063810000ab0f0000f780000008
:1029e0008c0c00009e8000006b09000059800000e4
:1029f0004806000028800000240300000a80000030
:102a00000000000000800000dcfc00000a800000e4
:102a1000b8f900002880000095f6000059800000f9
:102a200074f300009e80000055f00000f780000065
:102a300038ed0000638100001eea0000e381000021
:102a400007e7000076820000f5e300001c83000029
:102a5000e6e00000d6830000dcdd0000a384000077
:102a6000d8da000083850000d9d700007686000000
:102a7000e1d400007c870000efd1000094880000c2
:102a800004cf0000be89000021cc0000fb8a0000ba
:102a900046c900004a8c000073c60000ab8d0000e0
:102aa000a9c300001d8f0000e9c00000a190000034
:102ab00032be00003692000085bb0000dc930000af
:102ac000e3b80000939500004cb600005a97000050
:102ad000c0b300003199000040b10000189b000015
:102ae000ccae00000e9d000065ac0000149f0000fd
:102af0000aaa000029a10000bda700004ca3000005
:102b00007ea500007ea500004ca30000bda700002c
:102b100029a100000aaa0000149f000065ac000073
:102b20000e9d0000ccae0000189b000040b10000dc
:102b300031990000c0b300005a9700004cb6000065
:102b400093950000e3b80000dc93000085bb000013
:102b50003692000032be0000a1900000e9c00000e3
:102b60001d8f0000a9c30000ab8d000073c60000dc
:102b70004a8c000046c90000fb8a000021cc0000fe
:102b8000bf89000004cf000094880000efd100004e
:102b90007c870000e1d4000076860000d9d70000d1
:102ba00083850000d8da0000a3840000dcdd00008b
:102bb000d6830000e6e000001c830000f5e300007f
:102bc0007682000007e70000e38100001eea0000b3
:102bd0006381000038ed0000f780000055f0000030
:102be0009e80000074f300005980000095f60000fc
:102bf00028800000b8f900000a800000dcfc00001a
:020000040000fa
:102c00000600fa000000eb00000f7800000024002e
:102c10001007980000002400200798000000eb0037
:102c2000000f7800090037001e00900010007800a7
:102c30008080d1001e009000010878001e009000e6
:102c40000080e800100798001e0fe800f00f200039
:102c50009e007800808f5000f3ff3400c01f2400d6
:102c600010079800c03f24002007980000102000a3
:102c7000000f78000e0037001e00900090007800d2
:102c80002e009000010878001e0090000080e900ee
:102c9000100798002e0090008000eb0011009800b3
:102ca0002e00900064005000200798001e0fe900dd
:102cb0001e0078000000e000efff3c000000200054
:102cc0008000780000402900810178000001780030
:102cd0000100240080002000c5f607000100240048
:102ce0008000200002f707000200240001002400f9
:102cf0000010200019f70700428020000100240086
:102d000000082000adf6070020408000cf80de00e4
:102d100030408800414088000080fa000000060032
:102d20001808fa00889fbe000000eb00000f780032
:102d3000130037001e007800c200dd0000c028002c
:102d4000008040001002be001e007800c200dd00be
:102d500000002900008040001000be000001be00fd
:102d60000400be00f8f707001e017800c211dd0064
:102d700082012100028141000089be001e0fe8008f
:102d8000f00f20009e007800808f5000e9ff340093
:102d90000000eb00000f78000d0037001e007800e7
:102da0004300dd0000004700780140006000b800eb
:102db0000089be001e0078004300dd0000004700cf
:102dc0007c0140006000b8000089be001e0fe800d2
:102dd000f00f20009e007800808f5000efff34003d
:102de0000000eb00000f7800520037000000eb00fd
:102df000100798004a0037001e007800cf80de00e0
:102e000090f70700b2fd2000930c2400cef70700d6
:102e10000004be001e009000cf80de0089f707008e
:102e20000001be000800be00c7f707000200200036
:102e30000338240041f70700200798003107980065
:102e40002e009000be0090003af70700400798005f
:102e5000510798002e009000be00900057f8070020
:102e600060079800710798001e0078004300dd009d
:102e7000f8004700008040001004be001e009000d3
:102e8000c200dd0080012100008040001000be0073
:102e90004e019000de019000abf707000001be007c
:102ea0000800be00c6f607001e0178004311dd00d1
:102eb00002014700780141000089be001e00780031
:102ec0004300dd0064004000f8004700008040003f
:102ed0001004be001e009000c200dd008001210031
:102ee000008040001000be006e019000fe019000c6
:102ef00095f707000001be000800be00b0f607000d
:102f00001e0178004311dd00020147007c014100f1
:102f10000089be001e0090000000e8001007980025
:102f20009e009000f00f2000808f5000b2ff340010
:102f30001e0fe800f00f20009e007800808f5000e8
:102f4000aaff34000000eb00000f780028003700d3
:102f50001e0078004300dd00f800470000804000bc
:102f60001000be000200200003382400f3f6070022
:102f7000000f9800110f98001e0078004300dd003c
:102f800064004000f8004700008040001000be00d0
:102f90000200200003382400e8f60700200f980004
:102fa000310f98000e0890009e0890000001be00ae
:102fb00065f707000004be002e089000be089000d0
:102fc0000001be0060f707000001be000800be005f
:102fd0007bf60700fbf707001e017800c211dd0039
:102fe00082012100028141000089be001e0fe8001d
:102ff000f00f20009e007800808f5000d4ff340036
:0c3000004f04be000080fa000000060033
:020000040000fa
:0200000401f009
:04000000ffffff00ff
:020000040000fa
:0200000401f009
:04000400ffffff00fb
:020000040000fa
:0200000401f009
:04000800fbffff00fb
:020000040000fa
:0200000401f009
:04000c00810000006f
:020000040000fa
:0200000401f009
:04001000a300000049
:020000040000fa
:0200000401f009
:040014005f00000089
:020000040000fa
:0200000401f009
:04001800f7000000ed
:020000040000fa
:0200000401f009
:04001c00deff000003
:00000001FF
