:020000040000fa
:080000000002040000000000f2
:020000040000fa
:0400080026050000c9
:020000040000fa
:04000c0026050000c5
:020000040000fa
:0400100026050000c1
:020000040000fa
:0400140026050000bd
:020000040000fa
:0400180026050000b9
:020000040000fa
:04001c0026050000b5
:020000040000fa
:0400200026050000b1
:020000040000fa
:0400240026050000ad
:020000040000fa
:0400280026050000a9
:020000040000fa
:04002c0026050000a5
:020000040000fa
:0400300026050000a1
:020000040000fa
:040034004c04000078
:020000040000fa
:040038002605000099
:020000040000fa
:04003c002605000095
:020000040000fa
:040040002605000091
:020000040000fa
:040044004404000070
:020000040000fa
:040048007a03000037
:020000040000fa
:04004c002605000085
:020000040000fa
:040050002605000081
:020000040000fa
:04005400260500007d
:020000040000fa
:040058002004000080
:020000040000fa
:04005c00c8020000d6
:020000040000fa
:040060002605000071
:020000040000fa
:04006400260500006d
:020000040000fa
:040068002605000069
:020000040000fa
:04006c002605000065
:020000040000fa
:040070002605000061
:020000040000fa
:04007400260500005d
:020000040000fa
:040078002605000059
:020000040000fa
:04007c002605000055
:020000040000fa
:040080002605000051
:020000040000fa
:04008400260500004d
:020000040000fa
:040088002605000049
:020000040000fa
:04008c002605000045
:020000040000fa
:040090002605000041
:020000040000fa
:04009400260500003d
:020000040000fa
:0400980084030000dd
:020000040000fa
:04009c002605000035
:020000040000fa
:0400a0002605000031
:020000040000fa
:0400a400260500002d
:020000040000fa
:0400a8002605000029
:020000040000fa
:0400ac002605000025
:020000040000fa
:0400b0002605000021
:020000040000fa
:0400b400260500001d
:020000040000fa
:0400b8002605000019
:020000040000fa
:0400bc002605000015
:020000040000fa
:0400c0002605000011
:020000040000fa
:0400c400260500000d
:020000040000fa
:0400c8002605000009
:020000040000fa
:0400cc002605000005
:020000040000fa
:0400d0002605000001
:020000040000fa
:0400d40026050000fd
:020000040000fa
:0400d80026050000f9
:020000040000fa
:0400dc0026050000f5
:020000040000fa
:0400e00026050000f1
:020000040000fa
:0400e40026050000ed
:020000040000fa
:0400e80026050000e9
:020000040000fa
:0400ec0026050000e5
:020000040000fa
:0400f00026050000e1
:020000040000fa
:0400f40026050000dd
:020000040000fa
:0400f80026050000d9
:020000040000fa
:0400fc0026050000d5
:020000040000fa
:0401000026050000d0
:020000040000fa
:0401040026050000cc
:020000040000fa
:0401080026050000c8
:020000040000fa
:04010c0026050000c4
:020000040000fa
:0401100026050000c0
:020000040000fa
:0401140026050000bc
:020000040000fa
:0401180026050000b8
:020000040000fa
:04011c0026050000b4
:020000040000fa
:0401200026050000b0
:020000040000fa
:0401240026050000ac
:020000040000fa
:0401280026050000a8
:020000040000fa
:04012c0026050000a4
:020000040000fa
:0401300026050000a0
:020000040000fa
:04013400260500009c
:020000040000fa
:040138002605000098
:020000040000fa
:04013c002605000094
:020000040000fa
:040140002605000090
:020000040000fa
:04014400260500008c
:020000040000fa
:040148002605000088
:020000040000fa
:04014c002605000084
:020000040000fa
:040150002605000080
:020000040000fa
:04015400260500007c
:020000040000fa
:040158002605000078
:020000040000fa
:04015c002605000074
:020000040000fa
:040160002605000070
:020000040000fa
:04016400260500006c
:020000040000fa
:0402080026050000c7
:020000040000fa
:04020c0026050000c3
:020000040000fa
:0402100026050000bf
:020000040000fa
:0402140026050000bb
:020000040000fa
:0402180026050000b7
:020000040000fa
:04021c0026050000b3
:020000040000fa
:0402200026050000af
:020000040000fa
:0402240026050000ab
:020000040000fa
:0402280026050000a7
:020000040000fa
:04022c0026050000a3
:020000040000fa
:04023000260500009f
:020000040000fa
:040234004c04000076
:020000040000fa
:040238002605000097
:020000040000fa
:04023c002605000093
:020000040000fa
:04024000260500008f
:020000040000fa
:04024400440400006e
:020000040000fa
:040248007a03000035
:020000040000fa
:04024c002605000083
:020000040000fa
:04025000260500007f
:020000040000fa
:04025400260500007b
:020000040000fa
:04025800200400007e
:020000040000fa
:04025c00c8020000d4
:020000040000fa
:04026000260500006f
:020000040000fa
:04026400260500006b
:020000040000fa
:040268002605000067
:020000040000fa
:04026c002605000063
:020000040000fa
:04027000260500005f
:020000040000fa
:04027400260500005b
:020000040000fa
:040278002605000057
:020000040000fa
:04027c002605000053
:020000040000fa
:04028000260500004f
:020000040000fa
:04028400260500004b
:020000040000fa
:040288002605000047
:020000040000fa
:04028c002605000043
:020000040000fa
:04029000260500003f
:020000040000fa
:04029400260500003b
:020000040000fa
:0402980084030000db
:020000040000fa
:04029c002605000033
:020000040000fa
:0402a000260500002f
:020000040000fa
:0402a400260500002b
:020000040000fa
:0402a8002605000027
:020000040000fa
:0402ac002605000023
:020000040000fa
:0402b000260500001f
:020000040000fa
:0402b400260500001b
:020000040000fa
:0402b8002605000017
:020000040000fa
:0402bc002605000013
:020000040000fa
:0402c000260500000f
:020000040000fa
:0402c400260500000b
:020000040000fa
:0402c8002605000007
:020000040000fa
:0402cc002605000003
:020000040000fa
:0402d00026050000ff
:020000040000fa
:0402d40026050000fb
:020000040000fa
:0402d80026050000f7
:020000040000fa
:0402dc0026050000f3
:020000040000fa
:0402e00026050000ef
:020000040000fa
:0402e40026050000eb
:020000040000fa
:0402e80026050000e7
:020000040000fa
:0402ec0026050000e3
:020000040000fa
:0402f00026050000df
:020000040000fa
:0402f40026050000db
:020000040000fa
:0402f80026050000d7
:020000040000fa
:0402fc0026050000d3
:020000040000fa
:0403000026050000ce
:020000040000fa
:0403040026050000ca
:020000040000fa
:0403080026050000c6
:020000040000fa
:04030c0026050000c2
:020000040000fa
:0403100026050000be
:020000040000fa
:0403140026050000ba
:020000040000fa
:0403180026050000b6
:020000040000fa
:04031c0026050000b2
:020000040000fa
:0403200026050000ae
:020000040000fa
:0403240026050000aa
:020000040000fa
:0403280026050000a6
:020000040000fa
:04032c0026050000a2
:020000040000fa
:04033000260500009e
:020000040000fa
:04033400260500009a
:020000040000fa
:040338002605000096
:020000040000fa
:04033c002605000092
:020000040000fa
:04034000260500008e
:020000040000fa
:04034400260500008a
:020000040000fa
:040348002605000086
:020000040000fa
:04034c002605000082
:020000040000fa
:04035000260500007e
:020000040000fa
:04035400260500007a
:020000040000fa
:040358002605000076
:020000040000fa
:04035c002605000072
:020000040000fa
:04036000260500006e
:020000040000fa
:04036400260500006a
:020000040000fa
:100400000f0021000eff23000e01880000000000f5
:10041000000020000000e000020032000001200087
:1004200020028800140007000b0307000000e00012
:1004300003003a00008b2100010020000200370079
:100440000000200001002000810f70000100320038
:1004500014000700000020000000e000020032004d
:1004600000000200000000006e1202000000000008
:100470000040da000000fe004440a900e026200011
:100480000000e0000300320000002000a00188000e
:100490004440a800000006008a1f78008b1f7800e7
:1004a0000000060091018800800478000000eb0045
:1004b0001a003700e284440032a0b4009905ba0063
:1004c000e284440032a0b4009906ba00e2844400f9
:1004d00032a0b4000006eb00476fde00fd07b2005b
:1004e000636ce10003003a00ebff07000000eb0043
:1004f0000a003700606ce10004003a00005deb0088
:100500008b05e900fdff3e00040037006168e10053
:10051000010032000086eb000b00070019c7ba008b
:100520001905ba000e04e00003003a000a00e000da
:10053000e0ff3a0000000600fe07b2009e018800be
:100540008a047800f5ff3700395dba008b05e900b1
:100550000c003200295dba008b05e900080032006a
:100560000c00e00003003a00e284440032a0b40032
:10057000f5ff370019ddba008b05e900faff3a00f4
:100580008904e800e184440032a0b40000000600c1
:100590003600f800809fbe00829fbe00849fbe0090
:1005a000869fbe000000fa0040408000e10f50002e
:1005b00009003a00001880008000eb00a00307004b
:1005c0003233230033b52300530407007041880001
:1005d000814188003f0037002cc8bf000000fb00ad
:1005e0000000e00003003200e10f50001a0032006a
:1005f0003200370041418000f00f2000808f500012
:100600000b003a0040418000011880004201dd00eb
:100610000000240000004100010878000040800034
:100620000000e800004088002828ef002300370081
:10063000404180000118800001017800c201dd0006
:100640000100240081804100820878000000e80059
:10065000404188001900370051418000f00f200010
:10066000808f50000b003a0050418000011880003c
:100670004201dd0000402400000041000108780034
:10068000004080000000e800004088002a28ef00b9
:100690000a003700504180000118800001017800f5
:1006a000c201dd0001402400818041008208780001
:1006b0000000e80050418800000000002cc8bf0086
:1006c0000040e8002ce8b7002cc8bf006140600083
:1006d0002ce8b70085a0a9000080fa004f03be00f7
:1006e0004f02be004f01be004f00be003600f900b1
:1006f000004006000000fa002023a8008500a900a1
:100700000080fa00004006003600f800809fbe001e
:10071000829fbe00849fbe00869fbe000000fa003c
:1007200020408000e20f500003003a00f00507006f
:100730000428ef003a003700204080000000e0006d
:100740001c003a00a0802000904188009041800069
:10075000904078008180fb00211188000000e800b3
:100760009041880090418000904078008180fb009b
:10077000211188000000e80090418800904180002d
:10078000904078008180fb00211188000000e80083
:100790009041880090418000104078000080fb006c
:1007a00020118800204080000000e80020408800e0
:1007b0001b003700e08020009041880090418000bd
:1007c000904078008180fb00211188000000e80043
:1007d0009041880090418000904078008180fb002b
:1007e000211188000000e8009041880090418000bd
:1007f000904078008180fb00211188000000e80013
:100800009041880090418000104078000080fb00fb
:1008100020118800204080000000e800204088006f
:100820008780a9000080fa004f03be004f02be007f
:100830004f01be004f00be003600f9000040060028
:10084000809fbe000000fa008580a900601680002d
:100850004500de006140600000c0ea0061406000c9
:100860000080fb00610060004500dd006116800033
:100870000150a10001007000601688000080fa009d
:100880004f00be00004006000000fa0084e0a9000e
:100890000080fa00004006003600f800809fbe008d
:1008a000829fbe00849fbe00869fbe000000fa00ab
:1008b000601680004f00de000040780000c0ea00b3
:1008c000614060000080fb004f00dd006116800089
:1008d00001f0a10001007000601688003141800025
:1008e000d0032000808f500007003200304180008c
:1008f0000000e80030418800000c80005004b00087
:10090000000c88000e00370020c8bf000004e00083
:100910000b003a0021c8bf00e14f500008003a0028
:1009200022c8bf000004e00005003a0023c8bf0051
:100930000004e00002003a0010c0b30025e8b70050
:1009400025c8bf000004e00003003200000c800056
:100950005004b100000c880023c8bf000004e00070
:100960000400320023c8bf000040e90023e8b700bc
:100970002c00370022c8bf000004e000060032004f
:1009800022c8bf000040e90022e8b70090c0b300d1
:1009900023e8b7002300370021c8bf000004e000af
:1009a0000800320021c8bf000040e90021e8b7007c
:1009b00050c0b30022e8b70090c0b30023e8b700ee
:1009c0001800370020c8bf000004e0000a00320011
:1009d00020c8bf000040e90020e8b70090c0b30085
:1009e00021e8b70050c0b30022e8b70090c0b300c0
:1009f00023e8b7000b0037008021ef0005e1a900d4
:100a00009460a9008460a9002628ef002568ef0003
:100a1000ce090700000820007509070000262900fc
:100a2000b609070010c0b30024e8b7008460a9002d
:100a30000080fa004f03be004f02be004f01be000f
:100a40004f00be003600f900004006000040da000a
:100a50000000fe00889fbe008a9fbe008c9fbe00e3
:100a600000057800810678000a00e900cf80de00ea
:100a7000700207000001be00b0fd2000910c2400b0
:100a8000de01070080057800010678000a00e0001a
:100a9000130034008d0478000004eb006140b900bd
:100aa000640207000b0178008c0178001a0307002c
:100ab000d001070042c12500c3ee2b00160307003a
:100ac000621f2d0093f02300650107008b000700d3
:100ad000801c78000804e800880f5500efff3c00f8
:100ae0000d0078004f06be004f05be004f04be004b
:100af00000000600b10278000009eb000002e900e6
:100b000007003400b10178000328e10002003c0036
:100b100083027800040950000402e900f9ff3c0058
:100b20000500780000000600100802000000000028
:100b300000000600889fbe008a9fbe008c9fbe00fa
:100b40008e1f78004400f800070f2000270288005d
:100b50003400f800811f78000f07780007f02f009d
:100b60000338e10004003200270280004700b30090
:100b700027028800a301880019002000804cdd00b6
:100b80001300200002047800800678008904d10058
:100b9000424edd00010578000302e90004800800f0
:100ba000170000008a0546004218dd000902e9002e
:100bb0000480080010000000000000004620c30070
:100bc0003b025200df35c100080440001381c2001f
:100bd000ab825200264dc5003e85c400bb00cd004f
:100be000bb80cd003a00ca002a80ca000700c900b5
:100bf0000580c900ba00cd00ba80cd000a054600c4
:100c0000020478008301d0008d06e900dfff3c007c
:100c10008e0778004f0078003400f9004400f90096
:100c20004f0778004f06be004f05be004f04be00c0
:100c3000000006004600f8005000f80002202000e6
:100c40003202880002002800130020008019dd0015
:100c500002817100820288000100780001017800a1
:100c600026002000470020008301e90003800800df
:100c7000070000000110e100040034001102be0072
:100c800092087800e2307b000489be008780400033
:100c9000121978005000f9004600f9000000060023
:100ca000821f7800849fbe008a1f78004400f800ed
:100cb000040f200024028800010578000601c3000b
:100cc0000080e90000800800030000000000000030
:100cd0000505f0000401f1003200cd000505f0002b
:100ce0001001f1003200cd004400f9004f057800fa
:100cf0004f02be004f00780000000600e887470062
:100d0000889fbe008a9fbe008c9fbe008e1f780009
:100d10000005be0002002000037024007e020700d0
:100d200080047800010478006011b8000a00be0059
:100d30009d0107000000e000370035000900780041
:100d400088007800c0010700990107000005be0077
:100d50000a00be00b70107000006be000200200026
:100d600003f023006c0207000007780081bf9f009a
:100d7000010178000e00780082007800b2010700bf
:100d8000e0b79f00f1b79f000c01be000902780098
:100d90008800780004037800810378000600be0014
:100da000ae0007000004be000200200003f0230094
:100db0000800be007c0107000000e0007b0034005a
:100dc0000200200003f823000c00be00a40007006e
:100dd000770107000005be008a0178000b0178004a
:100de0000300780082007800f3ff2700830f500093
:100df000e08f580002003400f0ff270001002000bf
:100e00004f0778004f06be004f05be004f04be00de
:100e10008f00b1000000060009007800880078000b
:100e2000ec000700620107000006be000c00be00d7
:100e3000800107000005be000901780088017800e4
:100e40000a00be00880107000000e000090032002f
:100e50000200200003f823000a00be007f00070004
:100e6000530107000006be000c00be007101070020
:100e70000005be000200200003f023000a00be00af
:100e8000250207000007780081bf9f00010178005c
:100e90000e007800820078006b010700e0b79f0029
:100ea000f1b79f000a01be000902780088007800af
:100eb00004037800810378000600be006700070085
:100ec0000004be000200200003f023000800be0062
:100ed000350107000000e000170034000200200088
:100ee00003f823000a00be005d0007003001070080
:100ef0000006be008c0178000d0178000300780028
:100f00008200780002002800f3ff2f00820f5000bb
:100f1000838f5800baff3d000200be004f077800e3
:100f20004f06be004f05be004f04be008f00b1004b
:100f300000000600b8ff37000200200003f0230085
:100f400088007800090078000102780080027800ab
:100f50000400be00120107000000e000e5ff3a00b7
:100f60006fb19700ffb197008e0278000fba97001b
:100f70000500780084007800380007000001be00fa
:100f8000370007000a0107000000e000d9ff320027
:100f90000200200003f823000a00be003000070012
:100fa000030107000006be00d2ff37000200200048
:100fb00003f023008800780009007800010278001f
:100fc000800278000400be00f50007000000e00089
:100fd00081ff3a006fb19700ffb197008e02780051
:100fe0000fba970005007800840078001b00070006
:100ff0000001be001a000700ed0007000000e0003d
:1010000075ff32000200200003f823000c00be0030
:1010100013000700e60007000005be006eff370062
:101020004400f800040f200024028800811f78008b
:101030000000e90000800800030000003202780090
:10104000b30278001301c0003100cd004f007800da
:101050004400f900000006000000050003f0a200b3
:10106000889fbe008a9fbe008c1f78003b0107004e
:10107000420133006450e1004f0032006420e1007f
:101080005200320003826c0007003b000905d000cb
:101090000306d000820f54000c065d0002003900e8
:1010a000020032008901780003067800858255002d
:1010b00004003d000003fd008103fd008502ea00fd
:1010c0008b854200840f720002003b00600010001c
:1010d000e08018006011b8000005eb007a28e100fc
:1010e0000a00390006007800c75ddd00f707b2008e
:1010f000878075002d003700828171000a01780019
:10110000610560008180d1000080d3008502e90084
:10111000f9ff3b00060440008784480002003b00c2
:1011200060041400e0841c000988a300070032005a
:101130008a81710082817100610164008904d1009b
:101140000884d3008b05e800170037000978a30056
:1011500013003a000b00e000130034008b05e90097
:101160000804440089844c000a4474000978a300f0
:101170000d003a000b00e000070034008b05e90089
:101180000804440089844c0001003a000b00200050
:101190000978a300f7ff32000001eb0002003700de
:1011a000828171000a017800b10007000cf0a700ed
:1011b00001f0a000fa0037006420e10002003a00cc
:1011c000838f6c00fa0033000801be000200be00ed
:1011d000f30037000001eb004a0007000400320072
:1011e0000200200003f8230001f0a6009cff070086
:1011f000000006000081eb007b013700889fbe00e5
:101200008a9fbe008c1f7800d4000700db003300eb
:1012100003866c006450e1002e0032006420e1007f
:10122000330032006150e1002f0032006120e10004
:101230003100320085855500eb07b0000900200021
:1012400008042000050037000804440089844c008d
:101250000a0031000603430087834b00000153005e
:1012600081815b00f8ff33000203be000800a0008c
:101270000804440089844c00f6ff3900c639dd00bb
:101280008301730001003200130020008904d100a3
:101290000884d3000998a300050032000800a700c5
:1012a0000300a0008904d1000884d3008b05e80066
:1012b0008904d1000884d3000001eb000281d20030
:1012c0006b00070001f0a1000cf0a70001f0a000e6
:1012d000b30037006420e100b50032000801be0011
:1012e0000200be00f7ff37006120e100b0003200cd
:1012f0006000b800f3ff37000000200001f827006d
:10130000f0ff3700889fbe008a9fbe000003be002a
:101310007d000700850578008281520002002000d0
:101320006220e10004003a00f307b1000400350038
:101330007718e100040035000600be0014003700f5
:101340006000b8000f003700f50f2000faff2f00f3
:101350008502d1000a85d3008301e900fcff3b0030
:101360008184620000046500890f7400f2ff32007e
:101370008582ea000a85ea00818462000004650033
:101380003b00070007f0a70001f0a0000081eb0080
:101390000200e0004f05be004f04be000000060042
:1013a0001400200086013700f4ff2f00840137006d
:1013b0000001be00540007000470a70003f0a10064
:1013c0006509b100160032000d0035006828e10003
:1013d00006003500f0ff2f00f1ff27000300e000ba
:1013e00013003b0001002800000005000000400041
:1013f000818048008502e900fcff3a0008003700c0
:10140000f88f420002003c008000eb000000050065
:101410008100d1000080d3008502e800fcff3a0083
:101420000300e00002003b0060001000e0801800b4
:10143000000006004f89de00820178007b01370042
:101440006011b800890137000001eb00adff070013
:10145000040032000200200003f8230001f0a7007e
:10146000fefe0700000006000400200054013700c3
:1014700081002000618055000b003d000b00200022
:1014800061fe2f000100e1001d0034008281710027
:10149000610164008904d1000884d3000000e800e1
:1014a000faff3a0071002000610064000300700040
:1014b000020060000900320061044400e0844c0036
:1014c0000988a500050032008b05e8006808e100e6
:1014d00002003a008904d1000884d300f20f2000f2
:1014e0000258e10005003d00c75ddd00f907b200cc
:1014f0008980750008007800000006000bf82700be
:101500008b00780000000500c70ade00f107b2007a
:10151000f50fb20008003200e1cf420002003200b5
:101520000170a00024000500810f7000010032004e
:101530000408050044000500810f700002003a0015
:10154000140005008502e9000000400081c0480049
:10155000fcff3b000170a000240005000004be0059
:10156000e9ff07000003be000405be000200be0044
:10157000e5ff0700844f7500000006000200be0072
:101580006450e100050036006420e10002003600ee
:101590000968a30001003a000800be000160a00035
:1015a0004f0678004f05be004f04be000000060045
:1015b000f0ff2f00f1ff2700f9ff3700889fbe00e2
:1015c0008a9fbe008c9fbe00f00007008504780053
:1015d0000005be006420e10049003e006220e100f9
:1015e00003003200090035000bf8a300440032006c
:1015f0000bf8a3000800320010022000d041880040
:10160000f0ff2f00f1ff27003d00370001f82f0009
:10161000000020003a0037003d0007008ffe070061
:101620000006be000a00be00324f200053f3230024
:101630005dff0700060034000c00be003400070008
:1016400086fe07000006be000a00be00020037004a
:101650008904e9000c00be002d0007002e000700e1
:101660002b0007007efe07000001be000c00be003c
:10167000e2fe07000005be000001be0026000700d4
:101680000006be00a2f32300430d2c0074fe0700e9
:10169000809fbe000c00be00d2e32700d3f02b00d9
:1016a0001d0007004f01be00d4fe07000006be006b
:1016b0000a01be00180007000a01be0068fe07000c
:1016c0000006be006148b9005aff07000005be00d1
:1016d00032082800e3952b000f0007000c01be0024
:1016e0005ffe07000006be000a00be0002002800e0
:1016f00013f32300080007000c01be0058fe07008a
:101700004f06be004f05be004f04be00000006009d
:1017100003f0230002000500889fbe008a9fbe00e0
:101720008c1f78008dff070094ff330003866c0048
:101730006450e100240032006420e1002700320000
:101740006150e100220032006120e10021003200fe
:101750008b854200eb07b1000134b800003ab800b5
:101760000804420089844a00013ab8000030b800f9
:101770008880400009014a00040033000000400056
:1017800081804800020149008b05e900c909dd009c
:10179000830170000100320013002000c814de0035
:1017a0004814dd004709de001200b200c808de0060
:1017b000088470002eff070001f0a1000cf0a700c4
:1017c00001f0a00076ff37006120e10078ff3200d1
:1017d0000801be000200be00f7ff37006150e100c3
:1017e000fcff3a0072ff3700889fbe008a9fbe0050
:1017f0008c9fbe00820578000004be0042ff0700f7
:101800000800be006420e1000700390002003a0031
:10181000f1ff2700f0ff2f000160a000120220005e
:10182000d2418800550037006120e10003003a00f2
:101830000b00a70001f823005000370001f0a100c1
:101840000200210093642400d5fe07000800be00ba
:1018500004003500b2fd2000930c2400b200070004
:101860000004be000005eb000b00a6004f0dde00db
:1018700001f0a1000004be0032982f0023ea2300eb
:10188000a5ff07000001eb0003f023000b00a700f9
:1018900003f82300f2fd0700c5fe07000000a700c3
:1018a0000a00a200e3fe07000b00e0000300320084
:1018b0000200200003f02300e8fd070001f0a20071
:1018c0000006be00020020009304240092ff0700df
:1018d0000801be00e2fd0700809fbe000c00be00b4
:1018e00022a22a00d3a723008bff07004f01be00ce
:1018f000dbfd07000004be0001f0a1000200200093
:1019000003982300a6fe07000800be00190035005a
:101910000001be0080ff07000006be00b2c529001e
:10192000e36223007cff070022222b00f3942b00ac
:10193000cbfd07000c01be0077ff0700e273280013
:1019400083c02300c6fd07000c01be0072ff070024
:1019500042aa2a00a3e22b00c1fd07000c01be0031
:101960006dff07000801be006bff07000801be0005
:10197000bbfd07000a00a70001f0a2004f06be0051
:101980004f05be004f04be00000006000003be006d
:10199000ddfe07006220e100020032000600be000a
:1019a00005000500e507b100f107b20004f02300cf
:1019b0008480700007f0a70001f0a000240005005b
:1019c000889fbe008a9fbe00841f7800e3fe070048
:1019d0004f00780011003300f0ff2f00838f6c0060
:1019e00006003b00040565000a00a7000800370058
:1019f00009f0a6001000200008003700820f5400f4
:101a0000838f5c00030039001000200001003e00bd
:101a10000000200009f0a7000000ea004f05be000a
:101a20004f04be000000e00000000600881f7800a0
:101a3000030478000300e00007003d006000100090
:101a4000e080180060011900e081190002003b00ed
:101a500001f02d00030037000400070008f0a70084
:101a600001f0a0004f04780000000600889fbe002f
:101a70008a9fbe000082700004027100048271001f
:101a8000260032000004be000200be006011b80053
:101a90006b092000950220000182cf000a00390066
:101aa0000541b1000082cf00070039000541b100b7
:101ab0000982cf00040039000541b1000882cf003f
:101ac000010039000541b100054252001200320008
:101ad0000a003b0082817100610164008100d10035
:101ae0000080d3008984d3000884d3008b05e800ec
:101af0000442e800f7ff3a000700370008044400fa
:101b000089844c0000004800818048008b05e90072
:101b10000442e900f9ff3a0055fe07004f05be00f8
:101b20004f04be0000000600040020000000370043
:101b3000889fbe008a9fbe008c1f78004f26dd0064
:101b400086fe07008dfe33006120e1004300320075
:101b50006250e10041003e003e0039006420e10097
:101b60003c003200058255000f003b000402e800f3
:101b700038003a00800f5300818f5b00350034003d
:101b80000800be0003f0a10001f0a60003f0a000d1
:101b90000cf0a70032fd070081fe3700060343006a
:101ba00087834b000c4646000005530081855b008f
:101bb000020033000a03be000c00a0000402e9008a
:101bc000f6ff3b00850578000602430087824b0044
:101bd00004003a006000b80009f0a70001f0a0007e
:101be0006ffe37000002520081825a000704e000b5
:101bf000040033000603430087834b008b05e90094
:101c0000faff3700090578000604be000203be0093
:101c10006011b80016fe0700e00f5200e08f5a0076
:101c20000700350002003c000c08a300040032004d
:101c30000601be0003f0a0000cf0a70008fd07009d
:101c40000a85680001f0a1000af0a70001f0a000d9
:101c500053fe37000800be0051fe3700100220007e
:0c1c60000cf0a600d041880051fe3700b7
:020000040000fa
:101c6c000000fa00ca22ef0000000000cc22ef00b6
:101c7c0000000000c822ef00000000000080eb0014
:101c8c0060198800c222ef0000000000c422ef009f
:101c9c0000000000c022ef00000000000080fa00ed
:101cac00000006000000fa00c882a800c082a8004c
:101cbc00000000000421ef0000002800100888003c
:101ccc000421a8003f0507000080fa000000060070
:101cdc000000fa000a21ef001221ef00a08323007c
:101cec00700888000080fa00000006000000fa006e
:101cfc001821ef002021ef0050072700e008880092
:101d0c008780a90021e1a8000080fa0000000600ed
:101d1c000000fa002823ef002603a8002703a800e0
:101d2c0060ff2f00601988002143a9002063a800e0
:101d3c002043a90011198000f0ff210000806000f1
:101d4c001019880030c0b30024e3b70011198000cb
:101d5c00f0cf2f00008060000080a00010198800d8
:101d6c0001198000f0f12f00008060000060a000dd
:101d7c000019880021198000f00f2e0000806000ef
:101d8c0000b0a0002019880001198000003020004c
:101d9c0001007000001988000080fa0000000600a5
:101dac000000fa002823ef00e0ff2f0060198800e4
:101dbc002143a9002063a9002043a9001119800028
:101dcc00f0ff2100008060001019880030c0b300c3
:101ddc0024e3b70011198000f0cf2f0000806000c1
:101dec001019880001198000f0f12f0000806000ac
:101dfc000060a0000019880021198000f00f2e004f
:101e0c000080600000b0a00020198800011980003b
:101e1c00f0cf2f0000806000001988000080fa00cd
:101e2c00000006000000fa0020a2a80050002000cc
:101e3c00401188000080fa00000006000000fa0043
:101e4c008460a9009460a8000080fa0000000600dd
:101e5c000000fa0085a0a9008500a9008580a900d2
:101e6c0095a0a8009500a8009580a8000080fa0015
:101e7c00000006000000fa008580a9009580a800eb
:101e8c008780a9009780a8000080fa000000060057
:101e9c000000fa000021ef0005e1a8000080fa0024
:101eac00000006000000fa0021e3a80013e1a800de
:101ebc000080fa00000006000000fa0021e3a900ef
:101ecc0013e1a9000080fa00000006000000fa00ef
:101edc0021e2a8002342a80021e1a8000080fa001a
:101eec00000006000000fa0021e1a9000080fa00c1
:041efc0000000600dc
:020000040000fa
:101f00000000fa00113a8000f00b20000081600010
:101f100060042000710520002374200080497800af
:101f200081497800824978007136800000fe2f00d8
:101f3000008060002001b30070368800103a8000f5
:101f4000000178000260a0006004200071052000fc
:101f50002374200080497800814978008249780004
:101f60008421ef008221ef008021ef00600020003b
:101f7000200c8800f0ff2000600888001021ef008e
:101f80000621ef000080fa00000006000000fa00c1
:101f900084e0a90094e0a80011e1a8000080fa0004
:041fa0000000060037
:020000040000fa
:101fa400f03fb1000180b10006003500ee030900e6
:101fb40000000000403fb1000180b100fbff3d0084
:101fc4001000b000203fb00002003500008009007e
:081fd4000000000000000600ff
:020000040000fa
:101fdc00801f7800a0c126000000e900feff3a0037
:081fec004f0078000000060020
:020000040000fa
:10200000ff7f000000000000f67f0000dcfc000005
:10201000d97f0000b8f90000a77f000095f6000006
:10202000627f000074f300000a7f000055f000009a
:102030009d7e000038ed00001e7e00001eea0000bc
:102040008a7d000007e70000e47c0000f4e3000064
:102050002a7c0000e6e000005d7b0000dcdd000083
:102060007d7a0000d8da00008a790000d9d7000014
:1020700084780000e1d400006c770000efd100000c
:102080004276000004cf00000575000021cc00005e
:10209000b673000046c900005572000073c6000008
:1020a000e3700000a9c300005f6f0000e9c00000fa
:1020b000ca6d000032be0000246c000085bb000029
:1020c0006e6a0000e3b80000a76800004cb600008c
:1020d000cf660000c0b30000e864000040b100001b
:1020e000f2620000ccae0000ec60000065ac0000c5
:1020f000d75e00000aaa0000b45c0000bda7000083
:10210000825a00007ea50000435800004ca3000046
:10211000f655000029a100009b530000149f000009
:10212000345100000e9d0000c04e0000189b0000be
:10213000404c000031990000b4490000599700005c
:102140001d470000929500007b440000dc930000d6
:10215000ce41000036920000173f0000a190000021
:10216000573c00001d8f00008d390000ab8d000032
:10217000ba3600004a8c0000df330000fb8a000002
:10218000fc300000be890000112e00009488000081
:102190001f2b00007c8700002728000076860000a7
:1021a000282500008385000024220000a38400006d
:1021b0001a1f0000d68300000b1c00001c830000c7
:1021c000f918000076820000e2150000e3810000ab
:1021d000c812000063810000ab0f0000f780000010
:1021e0008c0c00009e8000006b09000059800000ec
:1021f0004806000028800000240300000a80000038
:102200000000000000800000dcfc00000a800000ec
:10221000b8f900002880000095f600005980000001
:1022200074f300009e80000055f00000f78000006d
:1022300038ed0000638100001eea0000e381000029
:1022400007e7000076820000f5e300001c83000031
:10225000e6e00000d6830000dcdd0000a38400007f
:10226000d8da000083850000d9d700007686000008
:10227000e1d400007c870000efd1000094880000ca
:1022800004cf0000be89000021cc0000fb8a0000c2
:1022900046c900004a8c000073c60000ab8d0000e8
:1022a000a9c300001d8f0000e9c00000a19000003c
:1022b00032be00003692000085bb0000dc930000b7
:1022c000e3b80000939500004cb600005a97000058
:1022d000c0b300003199000040b10000189b00001d
:1022e000ccae00000e9d000065ac0000149f000005
:1022f0000aaa000029a10000bda700004ca300000d
:102300007ea500007ea500004ca30000bda7000034
:1023100029a100000aaa0000149f000065ac00007b
:102320000e9d0000ccae0000189b000040b10000e4
:1023300031990000c0b300005a9700004cb600006d
:1023400093950000e3b80000dc93000085bb00001b
:102350003692000032be0000a1900000e9c00000eb
:102360001d8f0000a9c30000ab8d000073c60000e4
:102370004a8c000046c90000fb8a000021cc000006
:10238000bf89000004cf000094880000efd1000056
:102390007c870000e1d4000076860000d9d70000d9
:1023a00083850000d8da0000a3840000dcdd000093
:1023b000d6830000e6e000001c830000f5e3000087
:1023c0007682000007e70000e38100001eea0000bb
:1023d0006381000038ed0000f780000055f0000038
:1023e0009e80000074f300005980000095f6000004
:1023f00028800000b8f900000a800000dcfc000022
:10240000204900006e69000063690000652000003b
:102410006c650000637400007572000061200000ac
:10242000004c000065790000656e0000646f0000dc
:102430002e2e00002e000000746400006373000064
:10244000312e00002e2e000000560000616c0000ae
:102450006f72000020460000414100003a00000079
:10246000507200006570000061720000616e000033
:10247000646f00002074000044430000530000001b
:1024800054690000656d0000706f0000207200004c
:1024900065730000746100006e740000653a00000e
:1024a000004e00006f2000004163000074690000ce
:1024b00076610000207400004443000053000000d7
:1024c000466900006e6100006c6900007a610000de
:0c24d000646f00002e2e00002e000000a3
:020000040000fa
:1024dc000a00fa00889fbe00300798004107980058
:1024ec00dffd070092020700f9fd070008fe070058
:1024fc0057fe070010002000001688002000200066
:10250c0040168800c022a80001c020000010200046
:10251c004df9070000082000b20207000020290036
:10252c00f30207000000eb00100798000000eb001e
:10253c0020079800010037000000000010168000f2
:10254c00620060000000e0000b00320030408000b0
:10255c000000e00008003a00f90207000008200023
:10256c00a002070010212900e10207004dfe070020
:10257c0010002000304088001016800062006000bf
:10258c000000e0001000320030408000e10f5000ed
:10259c000d003a00ea020700000820009102070033
:1025ac00c0212900d2020700100020004040880002
:1025bc002000200000408800c0032000104088004c
:1025cc00300020001007980000408000e20f5000ff
:1025dc004a013a0038fe07001e28ef0018020700d7
:1025ec00f0408000e10f500004003a002e009000f3
:1025fc000000e80020079800040037000040eb00c2
:10260c005f01070010c0b3005d010700104080009f
:10261c000000e8001040880011408000c00320003a
:10262c00808f500027013a00b8408000c9408000dc
:10263c00ae009000b0ff2f000088b90000007800b9
:10264c00c012b000cf80de0077fb07000001be0097
:10265c000800be00e6fa0700b0408800c1408800c0
:10266c00d8408000e9408000ae009000b0ff2f0001
:10267c000088b90000007800c012b000cf80de00e6
:10268c0069fb07000001be000800be00d8fa070075
:10269c00d0408800e1408800b0408000c1408000fc
:1026ac00c3fb07005040880061408800d040800088
:1026bc00e1408000befb070070408800814088002c
:1026cc0070408000814080000002be0005f0a10037
:1026dc00504080006140800001f0a1000001be006c
:1026ec000400be005afa070090408800a140880000
:1026fc0090408000a140800018c0b3006011b80069
:10270c0024fb07000000e000010035000044eb0052
:10271c000804e0000b00320090408000a1408000d3
:10272c0001f0a20090408800a1408800c0a32000c6
:10273c00d1c2b3000148780010002000404088004e
:10274c0003003700c0a3200001c2b3000148780089
:10275c0090408000a140800018c0b300020020000f
:10276c00031224000dfb07000000e00001003d00f7
:10277c000044eb000804e000300032009040800080
:10278c00a140800018c0b30002002000832c24005c
:10279c0000fb07000000e000010035000044eb00e6
:1027ac000804e0002500320090408000a140800029
:1027bc0002002000031224008dfa070090408800cc
:1027cc00a140880090408000a1408000f5fa0700ed
:1027dc0000007800004078000043b0008040780092
:1027ec00d0a320000148780098408000a9408000c8
:1027fc0090408000a1408000eafa070000007800b9
:10280c00cf80de0008fb07000001be000800be0000
:10281c000ffa070090408800a1408800904080008b
:10282c00a14080000200200003122400b7fb070027
:10283c0090408800a140880003003700d0a32000fe
:10284c0001c3b3000148780090408000a140800093
:10285c00d4fa070000007800004078000043b00074
:10286c0080407800e0a32000014878009840800068
:10287c00a940800090408000a1408000c9fa070068
:10288c0000007800cf80de00e7fa07000001be00f0
:10289c000800be00eef9070090408800a1408800b7
:1028ac00f0a32000e1c2b300014878000000eb0067
:1028bc00000f78002000370090408000a14080007d
:1028cc00020020000312240090fb070090408800b7
:1028dc00a14088009e0078006484400090408000f5
:1028ec00a1408000affa070000007800004078009b
:1028fc000043b00080407800c0a3200001707c0031
:10290c0098408000a940800090408000a140800049
:10291c00a4fa070000007800cf80de00c2fa07009e
:10292c000001be000800be00c9f9070090408800f5
:10293c00a14088001e0fe8001e007800e20f500036
:10294c00ddff340030a420008040eb00014878000b
:10295c00fb01070000082000a201070050222900fb
:10296c00e3010700000c20009e010700c0a320001b
:10297c00df010700804a22009111200086fd07002c
:10298c001e0090000000e8001007980040408000f6
:10299c00e10f500030003a001e009000e20f500092
:1029ac002d003400bffc070024fd070051fd07007b
:1029bc00e3010700000820008a010700002329001a
:1029cc00cb010700cde2a80000bf2d0061692000fb
:1029dc0071fd0700cde2a9002628ef002568ef0065
:1029ec0020c0b30020e8b7002168ef002268ef0098
:1029fc002368ef0060a42000d1c6b3000148780022
:102a0c0090a4200031c7b30001487800a0a4200096
:102a1c008040eb0001487800c90107000008200045
:102a2c007001070000242900b1010700500c2000a0
:102a3c006c01070040a42000ad01070080a8230012
:102a4c008103200054fd07004dfd070010fd070019
:102a5c002468ef00110037001e009000e20f5000b8
:102a6c0008003400b6010700000820005d010700d3
:102a7c00102529009e01070080a823008103200057
:102a8c0045fd070007fd0700ad0107000008200009
:102a9c005401070010212900950107000228ef00be
:102aac000000eb00200798006000b800b0408800e0
:102abc00c14088006000b800d0408800e140880028
:102acc000d003700f7fc0700601680004500de00a3
:102adc006140600000c0ea00614060000080fb00c3
:102aec00610060004500dd00611680000150a1000e
:102afc0001007000601688000028ef004040800044
:102b0c00e10f50008cfe3a0024c8bf000004e00026
:102b1c0019003200500c20003201070020c8bf0001
:102b2c000043b0008040780040a4200001487800a9
:102b3c0021c8bf000043b0008040780050a42000a2
:102b4c000148780022c8bf000043b00080407800e4
:102b5c0070a420000148780023c8bf000043b000d7
:102b6c008040780080a420000148780040a4200018
:102b7c005f0107002468ef00000000006ffe3700c3
:102b8c000600fa00404798000000eb00000f7800a8
:102b9c004e4090000004e00006003a0003c0200004
:102bac00020024000100240000102000dbf70700c5
:102bbc00080037004e409000e14f500005003a00ed
:102bcc0003c020000240240001402400001020001b
:102bdc00d2f707000000eb00000f78002a00370046
:102bec004e4090000004e00012003a001e007800f5
:102bfc00c200dd00000024000080400010007800be
:102c0c008080d1001e0078004201dd00000024000d
:102c1c0000004100010878001e007800c200dd00b1
:102c2c0020002400008040008000eb0001087800a8
:102c3c00140037004e409000e14f500011003a0054
:102c4c001e007800c200dd0000402400008040001f
:102c5c00100078008080d1001e0078004201dd0059
:102c6c000040240000004100010878001e0078009c
:102c7c00c200dd0020402400008040008000eb00fa
:102c8c00010878001e0fe800f00f20009e0078006d
:102c9c00808f5000d2ff34004e4090000004e000c2
:102cac0009003a0000002000800078000000290094
:102cbc0081017800000178000100240080002000d0
:102ccc0099f707000b0037004e409000e14f500081
:102cdc0008003a0000002000800078000000290065
:102cec008101780000017800014024008000200060
:102cfc008df707004e4090000004e00004003a00fd
:102d0c000100240080002000c7f7070006003700f0
:102d1c004e409000e14f500003003a000140240067
:102d2c0080002000c0f707004e4090000004e00037
:102d3c0005003a00c283200001002400001020008e
:102d4c00d4f70700070037004e409000e14f5000c9
:102d5c0004003a00c283200001402400001020002f
:102d6c00ccf7070042832000c1832000000820001c
:102d7c005df70700a0418000cf80de00b0418800e5
:102d8c00c141880061428000704280008080400018
:102d9c008042800080804000904280008080400013
:102dac00a042800000804000100798004e40900028
:102dbc000004e0000f003a001e009000cf80de00ff
:102dcc0099f90700020020000370240008f907009d
:102ddc000002be00b0408000c14080000001be0077
:102dec000400be009bf80700b0408800c14088007a
:102dfc00110037004e409000e14f50000e003a0099
:102e0c001e009000cf80de0087f907000200200032
:102e1c0003702400f6f807000002be00d0408000ca
:102e2c00e14080000001be000400be0089f80700ec
:102e3c00d0408800e14088000080fa0000000600c5
:102e4c000400fa000000eb00000f78000000eb001b
:102e5c00100798000c0037001e009000c200dd0027
:102e6c0000002400008040009000780000fc270047
:102e7c00808f500001003a001e0fe8001e009000e9
:102e8c000000e800100798009e009000f00f200052
:102e9c00808f5000f0ff3400f00720009e00780077
:102eac00808f50000300340010002000f040880098
:102ebc001d0037000000eb00000f78000000eb0055
:102ecc00100798000c0037001e009000c200dd00b7
:102edc0000402400008040009000780000fc270097
:102eec00808f500001003a001e0fe8001e00900079
:102efc000000e800100798009e009000f00f2000e2
:102f0c00808f5000f0ff3400f00720009e00780006
:102f1c00808f50000300340010002000f040880027
:102f2c0001003700000000000080fa0000000600dd
:020000040000fa
:102f3c000000fa0026fc0700000320001200070026
:102f4c0023fc0700000320000f00070020fc0700f3
:102f5c00000320000c000700800320002100070064
:102f6c00800020001f000700100020001d0007003b
:102f7c00600020001b000700c000200019000700a3
:102f8c000080fa00000006000200fa00000f780032
:102f9c00cc42a90000000000cc02a90000000000f7
:102fac00cc62a800000000001e0078004600dd0086
:102fbc00000f780061168000f0032c000080600088
:102fcc0060168800611680001e00780001007000f9
:102fdc006016880000000000cc62a9000080fa0096
:102fec00000006000200fa00000f78002d00070018
:102ffc00cc42a90000000000cc02a9000000000097
:10300c00cc62a800000000001e0078004600dd0025
:10301c00000f780061168000f0032c000080600027
:10302c0060168800611680001e0078000100700098
:10303c006016880000000000cc62a9000080fa0035
:10304c00000006000200fa00000f780015000700cf
:10305c00cc42a80000000000cc02a9000000000037
:10306c00cc62a800000000001e0078004600dd00c5
:10307c00000f780061168000f0032c0000806000c7
:10308c0060168800611680001e0078000100700038
:10309c006016880000000000cc62a9000080fa00d5
:1030ac00000006000000fa00c9a2a800cc42a9004a
:1030bc0000000000cc02a80000000000cc62a800b8
:1030cc0000000000000000005116800000002200eb
:1030dc00008060000000e000fbff3a00cc62a90019
:1030ec0000000000c9a2a9000080fa000000060040
:1030fc000400fa00100798000000eb00000f7800a5
:10310c00070037001e0078009e00900000804000f1
:10311c00104078000000fb00caff07001e0fe800fb
:10312c001e0078009e009000008040001040780047
:10313c000004e000f3ff3a000080fa0000000600f3
:10314c000000fa0010002000a6ff07000080fa0023
:04315c000000060069
:020000040000fa
:103160003c0a0000100000000000000000400000c9
:103170000004000000000000004400000004000003
:1031800000000000000c000000040000000000002f
:1031900000080000280000000000000028080000cf
:1031a0000c000000000000003c08000000020000cd
:1031b00000000000340800000600000000000000cd
:1031c0003a080000020000000000000000000000bb
:020000040000fa
:1031d000801f7800811f7800821f78006004200023
:1031e0007105200022742000004978000149780010
:1031f0004227a8004f017800cf0078004f007800e8
:0432000000000600c4
:020000040000fa
:0200000401f009
:04000000ffffff00ff
:020000040000fa
:0200000401f009
:04000400ffffff00fb
:020000040000fa
:0200000401f009
:04000800fbffff00fb
:020000040000fa
:0200000401f009
:04000c008000000070
:020000040000fa
:0200000401f009
:04001000a300000049
:020000040000fa
:0200000401f009
:040014005f00000089
:020000040000fa
:0200000401f009
:04001800f7000000ed
:020000040000fa
:0200000401f009
:04001c00deff000003
:00000001FF
