:020000040000fa
:080000000002040000000000f2
:020000040000fa
:0400080020040000d0
:020000040000fa
:04000c0020040000cc
:020000040000fa
:0400100020040000c8
:020000040000fa
:0400140020040000c4
:020000040000fa
:0400180020040000c0
:020000040000fa
:04001c0020040000bc
:020000040000fa
:0400200020040000b8
:020000040000fa
:0400240020040000b4
:020000040000fa
:0400280020040000b0
:020000040000fa
:04002c0020040000ac
:020000040000fa
:0400300020040000a8
:020000040000fa
:0400340020040000a4
:020000040000fa
:0400380020040000a0
:020000040000fa
:04003c00200400009c
:020000040000fa
:040040002004000098
:020000040000fa
:040044002004000094
:020000040000fa
:04004800560300005b
:020000040000fa
:04004c00200400008c
:020000040000fa
:040050002004000088
:020000040000fa
:040054002004000084
:020000040000fa
:04005800fc030000a5
:020000040000fa
:04005c00c8020000d6
:020000040000fa
:040060002004000078
:020000040000fa
:040064002004000074
:020000040000fa
:040068002004000070
:020000040000fa
:04006c00200400006c
:020000040000fa
:040070002004000068
:020000040000fa
:040074002004000064
:020000040000fa
:040078002004000060
:020000040000fa
:04007c00200400005c
:020000040000fa
:040080002004000058
:020000040000fa
:040084002004000054
:020000040000fa
:040088002004000050
:020000040000fa
:04008c00200400004c
:020000040000fa
:040090002004000048
:020000040000fa
:040094002004000044
:020000040000fa
:040098006003000001
:020000040000fa
:04009c00200400003c
:020000040000fa
:0400a0002004000038
:020000040000fa
:0400a4002004000034
:020000040000fa
:0400a8002004000030
:020000040000fa
:0400ac00200400002c
:020000040000fa
:0400b0002004000028
:020000040000fa
:0400b4002004000024
:020000040000fa
:0400b8002004000020
:020000040000fa
:0400bc00200400001c
:020000040000fa
:0400c0002004000018
:020000040000fa
:0400c4002004000014
:020000040000fa
:0400c8002004000010
:020000040000fa
:0400cc00200400000c
:020000040000fa
:0400d0002004000008
:020000040000fa
:0400d4002004000004
:020000040000fa
:0400d8002004000000
:020000040000fa
:0400dc0020040000fc
:020000040000fa
:0400e00020040000f8
:020000040000fa
:0400e40020040000f4
:020000040000fa
:0400e80020040000f0
:020000040000fa
:0400ec0020040000ec
:020000040000fa
:0400f00020040000e8
:020000040000fa
:0400f40020040000e4
:020000040000fa
:0400f80020040000e0
:020000040000fa
:0400fc0020040000dc
:020000040000fa
:0401000020040000d7
:020000040000fa
:0401040020040000d3
:020000040000fa
:0401080020040000cf
:020000040000fa
:04010c0020040000cb
:020000040000fa
:0401100020040000c7
:020000040000fa
:0401140020040000c3
:020000040000fa
:0401180020040000bf
:020000040000fa
:04011c0020040000bb
:020000040000fa
:0401200020040000b7
:020000040000fa
:0401240020040000b3
:020000040000fa
:0401280020040000af
:020000040000fa
:04012c0020040000ab
:020000040000fa
:0401300020040000a7
:020000040000fa
:0401340020040000a3
:020000040000fa
:04013800200400009f
:020000040000fa
:04013c00200400009b
:020000040000fa
:040140002004000097
:020000040000fa
:040144002004000093
:020000040000fa
:04014800200400008f
:020000040000fa
:04014c00200400008b
:020000040000fa
:040150002004000087
:020000040000fa
:040154002004000083
:020000040000fa
:04015800200400007f
:020000040000fa
:04015c00200400007b
:020000040000fa
:040160002004000077
:020000040000fa
:040164002004000073
:020000040000fa
:0402080020040000ce
:020000040000fa
:04020c0020040000ca
:020000040000fa
:0402100020040000c6
:020000040000fa
:0402140020040000c2
:020000040000fa
:0402180020040000be
:020000040000fa
:04021c0020040000ba
:020000040000fa
:0402200020040000b6
:020000040000fa
:0402240020040000b2
:020000040000fa
:0402280020040000ae
:020000040000fa
:04022c0020040000aa
:020000040000fa
:0402300020040000a6
:020000040000fa
:0402340020040000a2
:020000040000fa
:04023800200400009e
:020000040000fa
:04023c00200400009a
:020000040000fa
:040240002004000096
:020000040000fa
:040244002004000092
:020000040000fa
:040248005603000059
:020000040000fa
:04024c00200400008a
:020000040000fa
:040250002004000086
:020000040000fa
:040254002004000082
:020000040000fa
:04025800fc030000a3
:020000040000fa
:04025c00c8020000d4
:020000040000fa
:040260002004000076
:020000040000fa
:040264002004000072
:020000040000fa
:04026800200400006e
:020000040000fa
:04026c00200400006a
:020000040000fa
:040270002004000066
:020000040000fa
:040274002004000062
:020000040000fa
:04027800200400005e
:020000040000fa
:04027c00200400005a
:020000040000fa
:040280002004000056
:020000040000fa
:040284002004000052
:020000040000fa
:04028800200400004e
:020000040000fa
:04028c00200400004a
:020000040000fa
:040290002004000046
:020000040000fa
:040294002004000042
:020000040000fa
:0402980060030000ff
:020000040000fa
:04029c00200400003a
:020000040000fa
:0402a0002004000036
:020000040000fa
:0402a4002004000032
:020000040000fa
:0402a800200400002e
:020000040000fa
:0402ac00200400002a
:020000040000fa
:0402b0002004000026
:020000040000fa
:0402b4002004000022
:020000040000fa
:0402b800200400001e
:020000040000fa
:0402bc00200400001a
:020000040000fa
:0402c0002004000016
:020000040000fa
:0402c4002004000012
:020000040000fa
:0402c800200400000e
:020000040000fa
:0402cc00200400000a
:020000040000fa
:0402d0002004000006
:020000040000fa
:0402d4002004000002
:020000040000fa
:0402d80020040000fe
:020000040000fa
:0402dc0020040000fa
:020000040000fa
:0402e00020040000f6
:020000040000fa
:0402e40020040000f2
:020000040000fa
:0402e80020040000ee
:020000040000fa
:0402ec0020040000ea
:020000040000fa
:0402f00020040000e6
:020000040000fa
:0402f40020040000e2
:020000040000fa
:0402f80020040000de
:020000040000fa
:0402fc0020040000da
:020000040000fa
:0403000020040000d5
:020000040000fa
:0403040020040000d1
:020000040000fa
:0403080020040000cd
:020000040000fa
:04030c0020040000c9
:020000040000fa
:0403100020040000c5
:020000040000fa
:0403140020040000c1
:020000040000fa
:0403180020040000bd
:020000040000fa
:04031c0020040000b9
:020000040000fa
:0403200020040000b5
:020000040000fa
:0403240020040000b1
:020000040000fa
:0403280020040000ad
:020000040000fa
:04032c0020040000a9
:020000040000fa
:0403300020040000a5
:020000040000fa
:0403340020040000a1
:020000040000fa
:04033800200400009d
:020000040000fa
:04033c002004000099
:020000040000fa
:040340002004000095
:020000040000fa
:040344002004000091
:020000040000fa
:04034800200400008d
:020000040000fa
:04034c002004000089
:020000040000fa
:040350002004000085
:020000040000fa
:040354002004000081
:020000040000fa
:04035800200400007d
:020000040000fa
:04035c002004000079
:020000040000fa
:040360002004000075
:020000040000fa
:040364002004000071
:020000040000fa
:100400000f0021000eff23000e01880000000000f5
:10041000000020000000e000020032000001200087
:100420002002880014000700880207000000e00096
:1004300003003a0020b9210001002000020037002b
:100440000000200001002000810f70000100320038
:1004500014000700000020000000e000020032004d
:100460000000020000000000001802000000000070
:100470000040da000000fe004440a90000a0200077
:100480000000e0000300320000002000a00188000e
:100490004440a800000006008a1f78008b1f7800e7
:1004a0000000060091018800800478000000eb0045
:1004b0001a003700e284440032a0b4009905ba0063
:1004c000e284440032a0b4009906ba00e2844400f9
:1004d00032a0b4000006eb00476fde00fd07b2005b
:1004e000636ce10003003a00ebff07000000eb0043
:1004f0000a003700606ce10004003a00005deb0088
:100500008b05e900fdff3e00040037006168e10053
:10051000010032000086eb000b00070019c7ba008b
:100520001905ba000e04e00003003a000a00e000da
:10053000e0ff3a0000000600fe07b2009e018800be
:100540008a047800f5ff3700395dba008b05e900b1
:100550000c003200295dba008b05e900080032006a
:100560000c00e00003003a00e284440032a0b40032
:10057000f5ff370019ddba008b05e900faff3a00f4
:100580008904e800e184440032a0b40000000600c1
:10059000809fbe00829fbe000000fa001ec8bf0000
:1005a0000000fb000000e00003003200e10f5000fb
:1005b0001a00320032003700d1408000f00f2000d6
:1005c000808f50000b003a00d0408000011880005e
:1005d0004201dd0000002400000041000108780015
:1005e000004080000000e800004088001a28ef006a
:1005f00023003700d04080000118800001017800fe
:10060000c201dd00010024008180410082087800e1
:100610000000e800d040880019003700e140800069
:10062000f00f2000808f50000b003a00e040800067
:10063000011880004201dd0000402400000041005c
:1006400001087800004080000000e80000408800b9
:100650001c28ef000a003700e040800001188000ed
:1006600001017800c201dd000140240081804100c9
:10067000820878000000e800e040880000000000e8
:100680001ec8bf000040e8001ee8b7001ec8bf003b
:10069000614060001ee8b70085a0a9000080fa0054
:1006a0004f01be004f00be00004006000000fa00ef
:1006b0002023a8008500a9000080fa000040060061
:1006c0003600f800809fbe00829fbe00849fbe005f
:1006d000869fbe000000fa0020408000e20f50001c
:1006e00003003a00360507000428ef003a003700ff
:1006f000204080000000e0001c003a00a0802000a4
:100700000041880000418000904078008180fb001b
:10071000211188000000e8000041880000418000ad
:10072000904078008180fb00211188000000e800e3
:100730000041880000418000904078008180fb00eb
:10074000211188000000e80000418800004180007d
:10075000104078000080fb002011880020408000bd
:100760000000e800204088001b003700e0802000e7
:100770000041880000418000904078008180fb00ab
:10078000211188000000e80000418800004180003d
:10079000904078008180fb00211188000000e80073
:1007a0000041880000418000904078008180fb007b
:1007b000211188000000e80000418800004180000d
:1007c000104078000080fb0020118800204080004d
:1007d0000000e800204088008780a9000080fa001f
:1007e0004f03be004f02be004f01be004f00be00cf
:1007f0003600f90000400600809fbe000000fa00ad
:100800008580a900601680004500de006140600020
:1008100000c0ea00614060000080fb0061006000f1
:100820004500dd00611680000150a100010070004c
:10083000601688000080fa004f00be0000400600ed
:100840000040da000000fe00889fbe008a9fbe00c4
:100850008c9fbe0000057800810678000a00e90040
:10086000cf80de00700207000001be00b0fd200056
:10087000910c2400de010700800578000106780055
:100880000a00e000130034008d0478000004eb003f
:100890006140b900640207000b0178008c01780008
:1008a00018030700d001070042c12500c3ee2b004a
:1008b00014030700621f2d0093f023006501070059
:1008c0008b000700801c78000804e800880f5500a2
:1008d000efff3c000d0078004f06be004f05be0044
:1008e0004f04be0000000600b10278000009eb00d2
:1008f0000002e90007003400b10178000328e1009c
:1009000002003c0083027800040950000402e90060
:10091000f9ff3c0005007800000006000a0702000d
:100920000000000000000600889fbe008a9fbe00f5
:100930008c9fbe008e1f78004400f800070f200037
:10094000270288003400f800811f78000f07780024
:1009500007f02f000338e100040032002702800076
:100960004700b30027028800a30188001900200077
:10097000804cdd001300200002047800800678001f
:100980008904d100424edd00010578000302e90030
:1009900004800800170000008a0546004218dd00a8
:1009a0000902e900048008001000000000000000b7
:1009b0004620c3003b025200df35c100080440005e
:1009c0001381c200ab825200264dc5003e85c40093
:1009d000bb00cd00bb80cd003a00ca002a80ca000f
:1009e0000700c9000580c900ba00cd00ba80cd005b
:1009f0000a054600020478008301d0008d06e90054
:100a0000dfff3c008e0778004f0078003400f900cb
:100a10004400f9004f0778004f06be004f05be00a6
:100a20004f04be00000006004600f8005000f80029
:100a3000022020003202880002002800130020005b
:100a40008019dd00028171008202880001007800b7
:100a50000101780026002000470020008301e90002
:100a600003800800070000000110e10004003400ca
:100a70001102be0092087800e2307b000489be00bb
:100a800087804000121978005000f9004600f900f4
:100a900000000600821f7800849fbe008a1f780035
:100aa0004400f800040f20002402880001057800ab
:100ab0000601c3000080e900008008000300000078
:100ac000000000000505f0000401f1003200cd0037
:100ad0000505f0001001f1003200cd004400f900de
:100ae0004f0578004f02be004f007800000006005e
:100af000e8874700889fbe008a9fbe008c9fbe008b
:100b00008e1f78000005be00020020000370240044
:100b10007c02070080047800010478006011b800ae
:100b20000a00be009d0107000000e000370035000c
:100b30000900780088007800be01070099010700cd
:100b40000005be000a00be00b70107000006be0097
:100b50000200200003f023006a020700000778006b
:100b600081bf9f00010178000e00780082007800ac
:100b7000b0010700e0b79f00f1b79f000c01be0075
:100b80000902780088007800040378008103780067
:100b90000600be00ae0007000004be0002002000f8
:100ba00003f023000800be007c0107000000e00005
:100bb0007b0034000200200003f823000c00be007c
:100bc000a4000700770107000005be008a01780035
:100bd0000b0178000300780082007800f3ff270003
:100be000830f5000e08f580002003400f0ff270010
:100bf000010020004f0778004f06be004f05be00e1
:100c00004f04be008f00b10000000600090078000c
:100c100088007800ec000700620107000006be00b3
:100c20000c00be00800107000005be00090178002d
:100c3000880178000a00be00860107000000e0007d
:100c4000090032000200200003f823000a00be0061
:100c50007f000700530107000006be000c00be0025
:100c6000710107000005be000200200003f0230010
:100c70000a00be00230207000007780081bf9f0022
:100c8000010178000e0078008200780069010700f9
:100c9000e0b79f00f1b79f000a01be00090278008b
:100ca0008800780004037800810378000600be0005
:100cb000670007000004be000200200003f02300cc
:100cc0000800be00350107000000e00017003400f6
:100cd0000200200003f823000a00be005d000700a8
:100ce000300107000006be008c0178000d0178007d
:100cf000030078008200780002002800f3ff2f0034
:100d0000820f5000838f5800baff3d000200be00e2
:100d10004f0778004f06be004f05be004f04be00cf
:100d20008f00b10000000600b8ff3700020020006d
:100d300003f02300880078000900780001027800a1
:100d4000800278000400be00120107000000e000ed
:100d5000e5ff3a006fb19700ffb197008e0278006f
:100d60000fba97000500780084007800380007006b
:100d70000001be00370007000a0107000000e00084
:100d8000d9ff32000200200003f823000a00be0051
:100d900030000700030107000006be00d2ff370045
:100da0000200200003f0230088007800090078008a
:100db00001027800800278000400be00f500070000
:100dc0000000e00081ff3a006fb19700ffb197008b
:100dd0008e0278000fba9700050078008400780032
:100de0001b0007000001be001a000700ed0007000d
:100df0000000e00075ff32000200200003f823002d
:100e00000c00be0013000700e60007000005be004e
:100e10006eff37004400f800040f20002402880011
:100e2000811f78000000e900008008000300000036
:100e300032027800b30278001301c0003100cd0007
:100e40004f0078004400f900000006000000050093
:100e500003f0a200889fbe008a9fbe008c1f78000e
:100e600039010700400133006450e1004f003200b7
:100e70006420e1005200320003826c0007003b0056
:100e80000905d0000306d000820f54000c065d0057
:100e90000200390002003200890178000306780060
:100ea0008582550004003d000003fd008103fd0024
:100eb0008502ea008b854200840f720002003b002d
:100ec00060001000e08018006011b8000005eb0021
:100ed0007a28e1000a00390006007800c75ddd00cd
:100ee000f707b200878075002d00370082817100fe
:100ef0000a017800610560008180d1000080d30084
:100f00008502e900f9ff3b000604400087844800a1
:100f100002003b0060041400e0841c000988a30068
:100f2000070032008a8171008281710061016400d2
:100f30008904d1000884d3008b05e800170037002e
:100f40000978a30013003a000b00e00013003400fe
:100f50008b05e9000804440089844c000a447400ad
:100f60000978a3000d003a000b00e00007003400f0
:100f70008b05e9000804440089844c0001003a0014
:100f80000b0020000978a300f7ff32000001eb00fe
:100f900002003700828171000a017800af0007006b
:100fa0000cf0a70001f0a000f80037006420e10079
:100fb00002003a00838f6c00f80033000801be0085
:100fc0000200be00f10037000001eb004a000700fc
:100fd000040032000200200003f8230001f0a60004
:100fe0009cff0700000006000081eb00790137003c
:100ff000889fbe008a9fbe008c1f7800d200070029
:10100000d900330003866c006450e1002e003200ea
:101010006420e100330032006150e1002f00320013
:101020006120e1003100320085855500eb07b000fa
:1010300009002000080420000500370008044400cf
:1010400089844c000a0031000603430087834b006b
:101050000001530081815b00f8ff33000203be00f2
:101060000800a0000804440089844c00f6ff390001
:10107000c639dd0083017300010032001300200037
:101080008904d1000884d3000998a3000500320028
:101090000800a7000300a0008904d1000884d30041
:1010a0008b05e8008904d1000884d3000001eb001f
:1010b0000281d2006900070001f0a1000cf0a70036
:1010c00001f0a000b10037006420e100b30032005d
:1010d0000801be000200be00f7ff37006120e100fa
:1010e000ae0032006000b800f3ff370000002000bf
:1010f00001f82700f0ff3700889fbe008a9fbe00de
:101100000003be007b000700850578008281520045
:10111000020020006220e10004003a00f307b10061
:10112000040035007718e100040035000600be0019
:10113000140037006000b8000f003700f50f2000e2
:10114000faff2f008502d1000a85d3008301e90050
:10115000fcff3b008184620000046500890f74007d
:10116000f2ff32008582ea000a85ea00818462008b
:10117000000465003900070007f0a70001f0a00097
:101180000081eb000200e0004f05be004f04be00ee
:10119000000006001400200084013700f4ff2f0037
:1011a000820137000001be00520007000470a70052
:1011b00003f0a1006509b100160032000d003500f2
:1011c0006828e10006003500f0ff2f00f1ff27003e
:1011d0000300e00013003b000100280000000500b0
:1011e00000004000818048008502e900fcff3a00d1
:1011f00008003700f88f420002003c008000eb003e
:10120000000005008100d1000080d3008502e800c5
:10121000fcff3a000300e00002003b006000100009
:10122000e0801800000006004f89de00820178008f
:10123000790137000001eb00afff07000400320026
:101240000200200003f8230001f0a70000ff0700c0
:101250000000060004002000540137008100200037
:10126000618055000b003d000b00200061fe2f0047
:101270000100e1001d003400828171006101640001
:101280008904d1000884d3000000e800faff3a0086
:101290007100200061006400030070000200600023
:1012a0000900320061044400e0844c000988a50074
:1012b000050032008b05e8006808e10002003a00f2
:1012c0008904d1000884d300f20f20000258e10005
:1012d00005003d00c75ddd00f907b200898075009b
:1012e00008007800000006000bf827008b0078004b
:1012f00000000500c70ade00f107b200f50fb200da
:1013000008003200e1cf4200020032000170a0006c
:1013100024000500810f7000010032000408050060
:1013200044000500810f700002003a00140005001f
:101330008502e9000000400081c04800fcff3b003e
:101340000170a000240005000004be00e9ff0700b2
:101350000003be000405be000200be00e5ff07005a
:10136000844f7500000006000200be006450e100da
:10137000050036006420e100020036000968a30081
:1013800001003a000800be000160a0004f0678008e
:101390004f05be004f04be0000000600f0ff2f0006
:1013a000f1ff2700f9ff3700889fbe008a9fbe002b
:1013b0008c9fbe00f0000700850478000005be0089
:1013c0006420e10049003e006220e1000300320099
:1013d000090035000bf8a300440032000bf8a3000d
:1013e000080032001002200040418800f0ff2f006a
:1013f000f1ff27003d00370001f82f00000020001a
:101400003a0037003d00070091fe07000006be00cd
:101410000a00be00324f200053f323005fff070095
:10142000060034000c00be003400070088fe0700f0
:101430000006be000a00be00020037008904e90071
:101440000c00be002d0007002e0007002b00070037
:1014500080fe07000001be000c00be00e4fe070095
:101460000005be000001be00260007000006be0009
:10147000a2f32300430d2c0076fe0700809fbe00e0
:101480000c00be00d2e32700d3f02b001d000700a4
:101490004f01be00d6fe07000006be000a01be00d6
:1014a000180007000a01be006afe07000006be0021
:1014b0006148b9005cff07000005be003208280043
:1014c000e3952b000f0007000c01be0061fe070032
:1014d0000006be000a00be000200280013f323002d
:1014e000080007000c01be005afe07004f06be00b0
:1014f0004f05be004f04be000000060003f02300ad
:1015000002000500889fbe008a9fbe008c1f7800e5
:101510008dff070094ff330003866c006450e100e8
:10152000240032006420e100270032006150e10015
:10153000220032006120e100210032008b85420050
:10154000eb07b1000134b800003ab80008044200cb
:1015500089844a00013ab8000030b8008880400011
:1015600009014a0004003300000040008180480067
:10157000020149008b05e900c909dd008301700003
:101580000100320013002000c814de004814dd0002
:101590004709de001200b200c808de0008847000af
:1015a0002eff070001f0a1000cf0a70001f0a00041
:1015b00076ff37006120e10078ff32000801be00ad
:1015c0000200be00f7ff37006150e100fcff3a0067
:1015d00072ff3700889fbe008a9fbe008c9fbe00ae
:1015e000820578000004be0042ff07000800be002c
:1015f0006420e1000700390002003a00f1ff2700f3
:10160000f0ff2f000160a00012022000424188007c
:10161000550037006120e10003003a000b00a700ed
:1016200001f823005000370001f0a1000200210062
:1016300093642400d7fe07000800be0004003500b4
:10164000b2fd2000930c2400b20007000004be008d
:101650000005eb000b00a6004f0dde0001f0a1001d
:101660000004be0032982f0023ea2300a5ff0700e4
:101670000001eb0003f023000b00a70003f8230098
:10168000f4fd0700c7fe07000000a7000a00a20043
:10169000e5fe07000b00e00003003200020020001e
:1016a00003f02300eafd070001f0a2000006be00df
:1016b000020020009304240092ff07000801be00ee
:1016c000e4fd0700809fbe000c00be0022a22a009d
:1016d000d3a723008bff07004f01be00ddfd0700ed
:1016e0000004be0001f0a1000200200003982300c6
:1016f000a8fe07000800be00190035000001be006a
:1017000080ff07000006be00b2c52900e362230087
:101710007cff070022222b00f3942b00cdfd070055
:101720000c01be0077ff0700e273280083c023008e
:10173000c8fd07000c01be0072ff070042aa2a0084
:10174000a3e22b00c3fd07000c01be006dff0700e4
:101750000801be006bff07000801be00bdfd0700c9
:101760000a00a70001f0a2004f06be004f05be0010
:101770004f04be00000006000003be00ddfe0700af
:101780006220e100020032000600be0005000500f4
:10179000e507b100f107b20004f023008480700077
:1017a00007f0a70001f0a00024000500889fbe00fc
:1017b0008a9fbe00841f7800e3fe07004f00780078
:1017c00011003300f0ff2f00838f6c0006003b00f8
:1017d000040565000a00a7000800370009f0a6000c
:1017e0001000200008003700820f5400838f5c0037
:1017f000030039001000200001003e00000020001e
:1018000009f0a7000000ea004f05be004f04be002b
:101810000000e00000000600881f78000304780044
:101820000300e00007003d0060001000e0801800a9
:1018300060011900e081190002003b0001f02d0059
:10184000030037000400070008f0a70001f0a00023
:101850004f04780000000600889fbe008a9fbe00eb
:1018600000827000040271000482710026003200c0
:101870000004be000200be006011b8006b09200029
:10188000950220000182cf000a0039000541b10015
:101890000082cf00070039000541b1000982cf0066
:1018a000040039000541b1000882cf000100390071
:1018b0000541b10005425200120032000a003b000f
:1018c00082817100610164008100d1000080d30039
:1018d0008984d3000884d3008b05e8000442e80023
:1018e000f7ff3a00070037000804440089844c00e1
:1018f00000004800818048008b05e9000442e900af
:10190000f9ff3a0055fe07004f05be004f04be0028
:10191000000006000400200000003700889fbe0081
:101920008a9fbe008c1f78004f26dd0086fe0700d0
:101930008dfe33006120e100430032006250e1007f
:1019400041003e003e0039006420e1003c003200ce
:10195000058255000f003b000402e80038003a0001
:10196000800f5300818f5b00350034000800be00fb
:1019700003f0a10001f0a60003f0a0000cf0a70006
:1019800034fd070081fe37000603430087834b00c8
:101990000c4646000005530081855b0002003300c1
:1019a0000a03be000c00a0000402e900f6ff3b00a1
:1019b000850578000602430087824b0004003a0048
:1019c0006000b80009f0a70001f0a0006ffe37002a
:1019d0000002520081825a000704e0000400330034
:1019e0000603430087834b008b05e900faff3700ad
:1019f000090578000604be000203be006011b800ad
:101a000016fe0700e00f5200e08f5a000700350075
:101a100002003c000c08a300040032000601be00d6
:101a200003f0a0000cf0a7000afd07000a8568007b
:101a300001f0a1000af0a70001f0a00053fe37005a
:101a40000800be0051fe3700100220000cf0a60076
:081a50004041880051fe3700ff
:020000040000fa
:101a58000000fa000a21ef001221ef00a083230002
:101a6800700888000080fa00000006000000fa00f4
:101a78001821ef002021ef0050072700e008880018
:101a88008780a90021e1a8000080fa000000060074
:101a98000000fa002823ef002603a8002703a80067
:101aa80060ff2f00601988002143a9002063a80067
:101ab8002043a90011198000f0ff21000080600078
:101ac8001019880030c0b30024e3b7001119800052
:101ad800f0cf2f00008060000080a000101988005f
:101ae80001198000f0f12f00008060000060a00064
:101af8000019880021198000f00f2e000080600076
:101b080000b0a000201988000119800000302000d2
:101b180001007000001988000080fa00000006002b
:101b28000000fa0020a2a800500020004011880000
:101b38000080fa00000006000000fa0085a0a90055
:101b48008500a9008580a90095a0a8009500a80097
:101b58009580a8000080fa00000006000000fa0046
:101b68008580a9009580a8008780a9009780a80093
:101b78000080fa00000006000000fa0021e3a80037
:101b880013e1a8000080fa00000006000000fa0037
:101b980021e3a90013e1a9000080fa000000060073
:101ba8000000fa0021e2a8002342a80021e1a800d1
:101bb8000080fa00000006000000fa0021e1a900f8
:081bc8000080fa000000060095
:020000040000fa
:101c0000246200000abe00008fc700006cbe000006
:101c1000234a00009bbe0000234a00009bbe000038
:101c2000b537000098be00000e840000a4be00007e
:101c3000234a00009bbe0000cafd00008ebe0000cb
:101c4000b1a2000066be0000234a00009bbe000057
:101c5000cf310000c0be00009dd7000088be00004c
:101c60009dd7000088be0000ab5a0000b2bd000046
:101c70001b810000383d00009c4d0000073d000026
:101c80006bf40000ca3d00007dae0000163e00006f
:101c90003b340000ac3c0000da1a0000513d00006b
:101ca0009c4d0000073d00006bf40000cabd000021
:101cb000da1a000051bd00005ce700001fbd000003
:101cc0009c4d000007bd0000ecc0000099bd000065
:101cd00006bb000041be0000cc970000a7be00007c
:101ce000f9bd0000adbe0000dc2e000054be0000b7
:101cf0008ba70000bebd00003b340000ac3c0000e0
:101d00005ce700001f3d00002d270000813d000022
:101d100057260000fc3d00008a9300003b3e000077
:101d200070b10000823e0000fb570000c63e00007c
:101d300055a40000d23e0000f6230000953e0000ae
:101d400082e20000473e000053220000293e0000ce
:101d5000a48d0000e33d00001b810000383d000021
:101d60006bf40000ca3d0000ab5a0000b23d000019
:101d7000e9430000d73d0000ba670000dd3c0000e9
:101d80007dae000016be0000dc2e000054be000038
:101d9000f9bd0000adbe0000e9430000d7bd000062
:101da00001870000103e0000b95300005a3e0000b9
:101db000b5370000983e000088110000923e0000f8
:101dc000246200000a3e00001b810000383d000034
:101dd0002d270000813d00005ce700001f3d000052
:101de000a48d0000e33d000006bb0000413e000062
:101df0008a9300003b3e00000e840000a43e0000d9
:101e0000cafd00008e3e000070b10000823e00005e
:101e1000ad6e0000353e0000a48d0000e33d0000e3
:101e2000e9430000d73d00000c7400008d3d000028
:101e30006bf40000ca3d000053220000293e000060
:101e4000246200000a3e0000e9430000d73d000084
:101e50003b340000ac3c00009c4d0000073d0000fe
:101e6000ba670000dd3c00001b810000383d000027
:101e7000fbcd0000443b000057260000fcbd0000e5
:101e8000357b000060be0000e15d00009ebe0000ea
:101e90003d440000c3be0000fb570000c6be00006a
:101ea000287e0000ccbe0000cc970000a7be00003a
:101eb000111e0000bdbe0000992a0000e8be00000f
:101ec0006a6a0000c9be0000520a0000babe0000e3
:101ed0006f9e0000fabe00006a6a0000c9be0000e2
:101ee0009dd7000088be000082e2000047be0000cf
:101ef000e9430000d7bd0000ab5a0000b2bd0000ae
:101f0000d7fa000022be0000e813000079be0000ee
:101f1000b537000098be00008811000092be000096
:101f2000e15d00009ebe0000dc2e000054be0000fb
:101f300057260000fcbd00008a9300003bbe000055
:101f40008fc700006cbe0000643b00007fbe000035
:101f5000111e0000bdbe0000b7d10000b0be0000e1
:101f6000b7d10000b0be0000111e0000bdbe0000d1
:101f70003baa0000aabe00008811000092be00002b
:101f8000b7d10000b0be0000e4f70000b6be00000c
:101f9000b7d10000b0be0000520a0000babe000077
:101fa0003d440000c3be0000111e0000bdbe000085
:101fb0000e840000a4be00000e840000a4be000039
:101fc000e6910000cfbe00006f9e0000fabe000048
:101fd00065c200000fbf0000444c000011bf0000ac
:101fe00065c200000fbf00002dec000001bf000023
:101ff0002289000006bf0000888500001abf00008b
:102000008a1f000033bf0000cea5000048bf0000bb
:10201000e605000058bf00008cb900004bbf00006f
:10202000da55000050bf0000f30200006cbf000052
:10203000ddef000068bf0000dba200005cbf000015
:10204000c44200004dbf0000f2b500005fbf0000b9
:1020500015c6000076bf00000b6300007bbf0000c8
:102060000000000080bf0000b892000045bf0000e3
:10207000740c000030bf0000971c000047bf000038
:10208000da55000050bf0000da55000050bf0000d4
:10209000c6dc000065bf0000c3f5000040bf0000c3
:1020a000444c000011bf0000a032000036bf000009
:1020b000a3cc00004ebf0000b892000045bf000056
:1020c000a032000036bf00007172000017bf000090
:1020d00065c200000fbf000043ff000004bf000006
:1020e000702500000bbf0000573e0000ebbe000053
:1020f000e4f70000b6be00009f710000a1be000022
:10210000e15d00009ebe00009f710000a1be0000c6
:102110003baa0000aabe0000992a0000e8be000009
:102120002289000006bf00006475000003bf0000a4
:102130006f9e0000fabe000015520000eebe0000c7
:102140002dec000001bf000015520000eebe0000a3
:102150002289000006bf00007d2200001fbf000092
:1021600050fc000018bf00005249000025bf0000cd
:10217000a032000036bf0000670f00001cbf000047
:102180005b5f000014bf00007172000017bf000009
:102190006c040000e2be0000e6910000cfbe00002b
:1021a0002dec000001bf000043ff000004bf000051
:1021b000fb570000c6be0000e4f70000b6be0000fa
:1021c0000e840000a4be0000643b00007fbe00003f
:1021d000b537000098be000026e40000b3be000042
:1021e000cc970000a7be0000b95300005abe000003
:1021f0008a9300003bbe0000d7fa000022be000018
:10220000ad6e000035be00000bef000072be000096
:10221000b537000098be0000cafd00008ebe000069
:102220009dd7000088be0000287e0000ccbe0000c4
:102230002b180000e5be0000fb570000c6be0000e2
:10224000cc970000a7be00008811000092be0000dd
:102250003d440000c3be0000e4f70000b6be00002d
:10226000520a0000babe0000cc970000a7be0000d2
:1022700070b1000082be0000dfc3000085be000018
:10228000dfc3000085be0000357b000060be00009b
:10229000246200000abe00002d27000081bd00005e
:1022a0002d270000813d000053220000293e000040
:1022b000246200000a3e0000e9430000d73d000010
:1022c000ab5a0000b23d00009c4d0000073d0000ed
:1022d000246200000abe00008a9300003bbe00009a
:1022e0005322000029be00002d27000081bd000000
:1022f0002d27000081bd00009c4d0000073d00001f
:102300009ab40000693d00009c4d0000073d0000ac
:102310007dae0000163e0000d7fa0000223e00000d
:102320000c7400008d3d0000246200000a3e000095
:1023300001870000103e00009c4d0000073d00009a
:10234000ba670000dd3c00007c9a0000133c0000ee
:102350005ce700001fbd00005ce700001fbd00003f
:1023600079010000763c00000c7400008d3d0000f7
:102370007dae0000163e00005f0700004e3e0000ec
:102380008a9300003b3e00009cdc0000ef3d000013
:10239000a83a0000043e0000a83a0000043e0000f5
:1023a00001870000103e00008a9300003b3e0000c1
:1023b00070b10000823e00008fc700006c3e00003c
:1023c000e9430000d73d0000da1a0000513d00004b
:1023d0001b810000383d00001b810000383d0000db
:1023e000d7fa0000223e0000234a00009b3e000076
:1023f0009f710000a13e00009dd70000883e0000b4
:10240000191c000095be0000dd980000cebe000043
:102410000ef80000dcbe00003f570000ebbe0000dd
:10242000fd300000d2be00003f570000ebbe0000b0
:10243000e0d6000005bf00000ef80000dcbe000082
:102440009b720000b5be0000ee5f0000d9be000028
:102450003f570000ebbe00005b420000aebe000034
:10246000bd000000cbbe0000191c000095be00009e
:102470008d9c000045be0000501900007fbe00008a
:102480002f8b000069be00000dfd000053be000050
:102490004d2d00005bbe00000dfd000053be00008e
:1024a00005a60000b3bd0000a794000057bd0000c2
:1024b000a794000057bd0000ebad000021be000056
:1024c0006b0e000030be00000dfd000053be00008a
:1024d0008ca10000bcbe00009d680000c7be0000cb
:1024e0007bda0000b1be00006a130000a7be000046
:1024f000d9eb00008dbe00004c6c00003ebe000019
:10250000cdcc00004cbe0000ab3e000037be00004a
:10251000ebad000021be00008d9c000045be000018
:10252000afeb000077be0000c91f00000cbe00002a
:10253000cec20000debd000017470000a5bd0000b0
:102540008352000074bd0000d71600001e3d00003d
:102550006fb800008f3c00006fb800008fbc000017
:10256000e5f3000065bb0000bfd500003a3d000068
:102570004e620000d03d000026340000c93c00003f
:10258000a7940000573d0000e5f3000065bb000084
:102590004e620000d0bd0000ebad0000213e000007
:1025a0006c090000b93e00003f570000eb3e000000
:1025b000dbc40000293f00002cb70000443f0000ae
:1025c000a45300003f3f0000948700003d3f0000ff
:1025d000b41f0000413f0000e6790000583f0000b2
:1025e0007dae0000563f00004d4a0000513f000004
:1025f000e6790000583f0000f64500005a3f000011
:10260000c5e600004b3f00003c830000463f000051
:10261000a45300003f3f000084bb00003b3f00008c
:10262000eb8b0000343f0000aa6500001b3f000058
:10263000d00a0000043f0000e0d60000053f000083
:1026400070b60000f93e0000bd000000cb3e000067
:102650006a130000a73e00008ca10000bc3e0000f1
:10266000bd000000cb3e00002e900000e03e0000c8
:10267000dd980000ce3e0000c8240000833e00002c
:1026800017470000a53d00006fb800008fbc000098
:102690004e620000d0bd0000c91f00000cbe00004b
:1026a0002bde000028be000005a60000b3bd000020
:1026b000498000001abe0000501900007fbe0000d3
:1026c0000950000013be000089ef000004be0000a6
:1026d000501900007fbe000005a60000b3bd000039
:1026e00026340000c93c0000cec20000de3d0000e0
:1026f0004d2d00005b3e00008d9c0000453e00001b
:1027000079050000c23d000089ef0000043e000092
:1027100089ef0000043e0000c91f00000c3e0000cd
:102720002bde0000283e00006fbb0000703e000062
:102730000dfd0000533e000083520000743d000078
:1027400017470000a5bd0000ebad000021be000052
:10275000c824000083be00004c6c00003ebe000098
:102760004f230000edbd000017470000a5bd00008d
:10277000e5f30000653b000017470000a53d0000a1
:10278000cec20000de3d0000ebad0000213e0000a7
:10279000ee5a0000623e0000c8240000833e0000a4
:1027a000ee5a0000623e0000501900007f3e00001b
:1027b0005b420000ae3e00009d680000c73e000086
:1027c0002ae300009f3e0000ab3e0000373e0000c1
:1027d00009500000133e0000cf830000fb3d0000c5
:1027e000498000001a3e0000ab3e0000373e00006a
:1027f000cf830000fb3d0000bfd500003a3d000044
:1028000026340000c9bc000079050000c2bd0000ec
:10281000cf830000fbbd0000ab3e000037be0000d0
:10282000afeb000077be00007bda0000b1be000015
:10283000d00a000004bf000049a2000007bf00004a
:102840008acd000017bf00003c83000046bf000097
:10285000f03300007ebf00000000000080bf0000d9
:10286000377100006abf00001ceb000042bf00008f
:1028700022fd00001ebf0000632800002fbf0000e3
:10288000d5b200004dbf0000d5b200004dbf000022
:1028900016de00005dbf000032c9000020bf00004e
:1028a000dd980000cebe0000e1d100000ebf0000a8
:1028b000632800002fbf00004c4f000048bf0000fd
:1028c000a45300003fbf0000ba3100001dbf00004c
:1028d00022fd00001ebf0000596e000009bf00006d
:1028e000904e0000fdbe00003baa0000aabe000002
:1028f0004d2d00005bbe0000ab3e000037be000067
:10290000085500008abe0000ccd10000c3be000004
:10291000fd300000d2be0000b072000000bf000019
:10292000904e0000fdbe0000fd300000d2be000051
:10293000ac390000c0be0000fd300000d2be000077
:10294000d00a000004bf0000b072000000bf000009
:10295000596e000009bf00009a99000019bf0000dd
:10296000596e000009bf0000904e0000fdbe00003f
:102970002e900000e0be00003baa0000aabe0000ae
:102980002ae300009fbe0000fd300000d2be000020
:102990003f570000ebbe0000b072000000bf000017
:1029a0001136000014bf0000aa6500001bbf000024
:1029b0003f570000ebbe000039b4000098be000095
:1029c0006a130000a7be000039b4000098be0000e2
:1029d00039b4000098be0000fd300000d2be0000f7
:1029e000fe260000e4be0000ccd10000c3be000003
:1029f000ccd10000c3be00006a130000a7be0000d7
:102a0000d9eb00008dbe0000085500008abe000012
:102a1000bd000000cbbe0000cec70000d5be000048
:102a20008ca10000bcbe000070b60000f9be000022
:102a3000ee5f0000d9be0000191c000095be00002a
:102a40003baa0000aabe00006c090000b9be00004d
:102a500049a2000007bf00001136000014bf0000ab
:102a6000f19d000010bf0000790600000dbf0000be
:102a7000b072000000bf000070b60000f9be000098
:102a8000cec70000d5be0000bd000000cbbe0000d8
:102a90008ca10000bcbe00003baa0000aabe000042
:102aa0002ae300009fbe00000dfd000053be0000a1
:102ab000cdcc00004cbe00002f8b000069be000092
:102ac0006fbb000070be00002ae300009fbe000044
:102ad000c03e000002bf00001136000014bf00001d
:102ae0004f1e0000f6be0000dd980000cebe0000c4
:102af0007bda0000b1be00000dfd000053be0000f7
:102b0000cf830000fbbd000005a60000b3bd0000a0
:102b10003e7500002cbc0000498000001abe000079
:102b20007bda0000b1be00007bda0000b1be00001d
:102b30006a130000a7be0000d9eb00008dbe0000a4
:102b4000ee5a000062be0000c91f00000cbe00006b
:102b50004e620000d0bd00004e620000d0bd0000fb
:102b600005a60000b3bd00004f230000edbd00002e
:102b7000498000001abe0000c91f00000cbe000002
:102b80004f230000edbd0000a794000057bd0000da
:102b90003e7500002c3c0000e5f30000653b0000a2
:102ba000e5f3000065bb000026340000c9bc00004e
:102bb000bfd500003a3d0000cdcc00004c3e0000e7
:102bc000ebad0000213e00006b0e0000303e000027
:102bd000cdcc00004c3e000009500000133e000028
:102be000c91f00000c3e0000cec20000de3d000008
:102bf00005a60000b33d000089ef0000043e000080
:102c0000ff7f000000000000f67f0000dcfc0000f9
:102c1000d97f0000b8f90000a77f000095f60000fa
:102c2000627f000074f300000a7f000055f000008e
:102c30009d7e000038ed00001e7e00001eea0000b0
:102c40008a7d000007e70000e47c0000f4e3000058
:102c50002a7c0000e6e000005d7b0000dcdd000077
:102c60007d7a0000d8da00008a790000d9d7000008
:102c700084780000e1d400006c770000efd1000000
:102c80004276000004cf00000575000021cc000052
:102c9000b673000046c900005572000073c60000fc
:102ca000e3700000a9c300005f6f0000e9c00000ee
:102cb000ca6d000032be0000246c000085bb00001d
:102cc0006e6a0000e3b80000a76800004cb6000080
:102cd000cf660000c0b30000e864000040b100000f
:102ce000f2620000ccae0000ec60000065ac0000b9
:102cf000d75e00000aaa0000b45c0000bda7000077
:102d0000825a00007ea50000435800004ca300003a
:102d1000f655000029a100009b530000149f0000fd
:102d2000345100000e9d0000c04e0000189b0000b2
:102d3000404c000031990000b44900005997000050
:102d40001d470000929500007b440000dc930000ca
:102d5000ce41000036920000173f0000a190000015
:102d6000573c00001d8f00008d390000ab8d000026
:102d7000ba3600004a8c0000df330000fb8a0000f6
:102d8000fc300000be890000112e00009488000075
:102d90001f2b00007c87000027280000768600009b
:102da000282500008385000024220000a384000061
:102db0001a1f0000d68300000b1c00001c830000bb
:102dc000f918000076820000e2150000e38100009f
:102dd000c812000063810000ab0f0000f780000004
:102de0008c0c00009e8000006b09000059800000e0
:102df0004806000028800000240300000a8000002c
:102e00000000000000800000dcfc00000a800000e0
:102e1000b8f900002880000095f6000059800000f5
:102e200074f300009e80000055f00000f780000061
:102e300038ed0000638100001eea0000e38100001d
:102e400007e7000076820000f5e300001c83000025
:102e5000e6e00000d6830000dcdd0000a384000073
:102e6000d8da000083850000d9d7000076860000fc
:102e7000e1d400007c870000efd1000094880000be
:102e800004cf0000be89000021cc0000fb8a0000b6
:102e900046c900004a8c000073c60000ab8d0000dc
:102ea000a9c300001d8f0000e9c00000a190000030
:102eb00032be00003692000085bb0000dc930000ab
:102ec000e3b80000939500004cb600005a9700004c
:102ed000c0b300003199000040b10000189b000011
:102ee000ccae00000e9d000065ac0000149f0000f9
:102ef0000aaa000029a10000bda700004ca3000001
:102f00007ea500007ea500004ca30000bda7000028
:102f100029a100000aaa0000149f000065ac00006f
:102f20000e9d0000ccae0000189b000040b10000d8
:102f300031990000c0b300005a9700004cb6000061
:102f400093950000e3b80000dc93000085bb00000f
:102f50003692000032be0000a1900000e9c00000df
:102f60001d8f0000a9c30000ab8d000073c60000d8
:102f70004a8c000046c90000fb8a000021cc0000fa
:102f8000bf89000004cf000094880000efd100004a
:102f90007c870000e1d4000076860000d9d70000cd
:102fa00083850000d8da0000a3840000dcdd000087
:102fb000d6830000e6e000001c830000f5e300007b
:102fc0007682000007e70000e38100001eea0000af
:102fd0006381000038ed0000f780000055f000002c
:102fe0009e80000074f300005980000095f60000f8
:102ff00028800000b8f900000a800000dcfc000016
:020000040000fa
:103000000600fa00881f7800100798002107980032
:1030100091fa0700a0fa0700c3fa070095fa070023
:10302000c7fa0700cffa070010002000001688003a
:103030002000200040168800100020005016880054
:10304000113a8000f00b2000008160006004200035
:1030500071052000237420008049780081497800a0
:10306000824978000136800000fe2f000080600059
:103070003000b30000368800103a8000000178006c
:103080000260a0006004200071052000237420006d
:1030900080497800814978008249780001c0200089
:1030a00000102000e8f507000100370000000000d4
:1030b00010168000620060000000e0001100320085
:1030c000304080000000e0000e003a00acfa07003b
:1030d0001000200030408800601680004f00de00a5
:1030e0000040780000c0ea00614060000080fb0002
:1030f0004f00dd006116800001f0a10001007000aa
:103100006016880000408000e20f5000e7ff3a00a0
:10311000a0fa07000000eb00000f780067003700fe
:103120001e007800c200dd0000e0280000804000a2
:103130001000be0018c0b3006011b80015f80700f9
:103140000000e000010035000044eb000804e0004e
:103150000e0032001e007800c200dd0000e02800f2
:10316000008040001000be00020020000370240018
:10317000e4f807000200200003f0230034f7070002
:1031800008f80700000078000d0037001e007800e6
:10319000c200dd0000e02800008040001000be00fa
:1031a00002e02f00f36f2400d6f807000200200091
:1031b00003f0230027f70700faf707000000780064
:1031c0009e0078004209dd000100240081004100da
:1031d000800878001e007800c200dd002000240076
:1031e000008040008000eb00010878001e0078009d
:1031f000c200dd0000202900008040001000be0059
:1032000018c0b3006011b800e2f707000000e0004a
:10321000010035000044eb000804e0000e0032001d
:103220001e007800c200dd00002029000080400060
:103230001000be000200200003702400b1f8070057
:103240000200200003f0230001f70700d5f7070074
:10325000000078000d0037001e007800c200dd007d
:1032600000202900008040001000be0002e02f0076
:10327000f36f2400a3f807000200200003f02300ee
:10328000f4f60700c7f70700000078009e007800fa
:103290004209dd00014024008100410080087800df
:1032a0001e007800c200dd002040240000804000a5
:1032b0008000eb00010878001e0fe800f00f2000ee
:1032c0009e007800808f500095ff340060168000cb
:1032d0004700de006140600000c0ea00614060001d
:1032e0000080fb00610060004700dd006116800087
:1032f0000170a10001007000601688000040eb0022
:103300005800070010c0b3005600070010408000ae
:103310000000e8001040880011408000c003200039
:10332000808f50004c003a00601680004700de009d
:103330006140600000c0ea00614060000080fb0066
:10334000610060004700dd00611680000170a1008f
:10335000010070006016880090408000a14080004d
:10336000020020006339240021f707009040880004
:10337000a1408800b0408000c140800002002000d1
:10338000633924001af70700b0408800c140880064
:1033900090408000a140800003f807005040880062
:1033a00061408800b0408000c1408000fef7070007
:1033b000704088008140880050408000614080005b
:1033c0000002be0005f0a100704080008140800036
:1033d00001f0a1000001be000400be009cf6070041
:1033e00018c0b3006011b8006af707000000e000e1
:1033f000010035000044eb000804e0000200320048
:1034000010002000404088000228ef006000b80053
:1034100090408800a14088006000b800b04088005b
:10342000c1408800601680004700de0061406000f7
:1034300000c0ea00614060000080fb0061006000a5
:103440004700dd00611680000170a10001007000de
:1034500060168800d4f907000028ef00c8f90700bb
:1034600013ff37000600fa00404798000000eb0009
:10347000000f78004e4090000004e00006003a0083
:1034800003c02000020024000100240000102000de
:1034900022f50700080037004e409000e14f500031
:1034a00005003a0003c0200002402400014024002f
:1034b0000010200019f507000000eb00000f780055
:1034c0002a0037004e4090000004e00012003a004d
:1034d0001e007800c200dd000000240000804000d3
:1034e000100078008080d1001e0078004201dd00cd
:1034f0000000240000004100010878001e00780050
:10350000c200dd0020002400008040008000eb00ad
:1035100001087800140037004e409000e14f500041
:1035200011003a001e007800c200dd0000402400b7
:1035300000804000100078008080d1001e007800dc
:103540004201dd0000402400000041000108780035
:103550001e007800c200dd002040240000804000f2
:103560008000eb00010878001e0fe800f00f20003b
:103570009e007800808f5000d2ff34004e409000b3
:103580000004e00009003a000000200080007800fc
:10359000006029008101780000017800010024000a
:1035a00080002000e0f407000b0037004e40900040
:1035b000e14f500008003a00000020008000780031
:1035c000006029008101780000017800014024009a
:1035d00080002000d4f407004e4090000004e0007a
:1035e00004003a0001002400800020000ef50700ce
:1035f000060037004e409000e14f500003003a00b3
:10360000014024008000200007f507004e40900094
:103610000004e00005003a00a2822000010024001e
:10362000001020001bf50700070037004e409000f7
:10363000e14f500004003a00a28220000140240023
:103640000010200013f5070022822000a182200034
:1036500000082000a4f4070010418000cf80de00a5
:103660002041880031418800d1418000e041800044
:1036700080804000f0418000808040000042800057
:1036800080804000104280000080400010079800b9
:103690004e4090000004e0000f003a001e00900031
:1036a000cf80de00e0f60700020020000370240057
:1036b0004ff607000002be0090408000a14080004d
:1036c0000001be000400be00e2f507009040880043
:1036d000a1408800110037004e409000e14f50009b
:1036e0000e003a001e009000cf80de00cef60700ec
:1036f00002002000037024003df607000002be0017
:10370000b0408000c14080000001be000400be0047
:10371000d0f50700b0408800c14088000080fa0062
:04372000000006009f
:020000040000fa
:10372400004000000004000000000000004400000d
:103734000004000000000000000c00000004000071
:1037440000000000000800001a0000000000000053
:103754001a08000008000000000000002a08000009
:103764000002000000000000220800000600000023
:103774000000000028080000020000000000000013
:043784000000000041
:020000040000fa
:0200000401f009
:04000000ffffff00ff
:020000040000fa
:0200000401f009
:04000400ffffff00fb
:020000040000fa
:0200000401f009
:04000800fbffff00fb
:020000040000fa
:0200000401f009
:04000c008000000070
:020000040000fa
:0200000401f009
:04001000a300000049
:020000040000fa
:0200000401f009
:040014005f00000089
:020000040000fa
:0200000401f009
:04001800f7000000ed
:020000040000fa
:0200000401f009
:04001c00deff000003
:00000001FF
